{
  "_format": "hh-sol-artifact-1",
  "contractName": "MintingRouter",
  "sourceName": "contracts/MintingRouter.sol",
  "abi": [
    {
      "inputs": [
        {
          "internalType": "contract INFT",
          "name": "_nftContract",
          "type": "address"
        },
        {
          "internalType": "string",
          "name": "tokenName",
          "type": "string"
        },
        {
          "internalType": "string",
          "name": "version",
          "type": "string"
        }
      ],
      "stateMutability": "nonpayable",
      "type": "constructor"
    },
    {
      "anonymous": false,
      "inputs": [
        {
          "indexed": true,
          "internalType": "address",
          "name": "previousOwner",
          "type": "address"
        },
        {
          "indexed": true,
          "internalType": "address",
          "name": "newOwner",
          "type": "address"
        }
      ],
      "name": "OwnershipTransferred",
      "type": "event"
    },
    {
      "anonymous": false,
      "inputs": [
        {
          "indexed": true,
          "internalType": "bytes32",
          "name": "role",
          "type": "bytes32"
        },
        {
          "indexed": true,
          "internalType": "bytes32",
          "name": "previousAdminRole",
          "type": "bytes32"
        },
        {
          "indexed": true,
          "internalType": "bytes32",
          "name": "newAdminRole",
          "type": "bytes32"
        }
      ],
      "name": "RoleAdminChanged",
      "type": "event"
    },
    {
      "anonymous": false,
      "inputs": [
        {
          "indexed": true,
          "internalType": "bytes32",
          "name": "role",
          "type": "bytes32"
        },
        {
          "indexed": true,
          "internalType": "address",
          "name": "account",
          "type": "address"
        },
        {
          "indexed": true,
          "internalType": "address",
          "name": "sender",
          "type": "address"
        }
      ],
      "name": "RoleGranted",
      "type": "event"
    },
    {
      "anonymous": false,
      "inputs": [
        {
          "indexed": true,
          "internalType": "bytes32",
          "name": "role",
          "type": "bytes32"
        },
        {
          "indexed": true,
          "internalType": "address",
          "name": "account",
          "type": "address"
        },
        {
          "indexed": true,
          "internalType": "address",
          "name": "sender",
          "type": "address"
        }
      ],
      "name": "RoleRevoked",
      "type": "event"
    },
    {
      "inputs": [],
      "name": "DEFAULT_ADMIN_ROLE",
      "outputs": [
        {
          "internalType": "bytes32",
          "name": "",
          "type": "bytes32"
        }
      ],
      "stateMutability": "view",
      "type": "function"
    },
    {
      "inputs": [],
      "name": "DOMAIN_SEPARATOR",
      "outputs": [
        {
          "internalType": "bytes32",
          "name": "",
          "type": "bytes32"
        }
      ],
      "stateMutability": "view",
      "type": "function"
    },
    {
      "inputs": [],
      "name": "MINTER_TYPEHASH",
      "outputs": [
        {
          "internalType": "bytes32",
          "name": "",
          "type": "bytes32"
        }
      ],
      "stateMutability": "view",
      "type": "function"
    },
    {
      "inputs": [
        {
          "internalType": "address",
          "name": "minter",
          "type": "address"
        }
      ],
      "name": "allowedTokenCount",
      "outputs": [
        {
          "internalType": "uint256",
          "name": "",
          "type": "uint256"
        }
      ],
      "stateMutability": "view",
      "type": "function"
    },
    {
      "inputs": [
        {
          "internalType": "uint256",
          "name": "price",
          "type": "uint256"
        },
        {
          "internalType": "uint256",
          "name": "totalAmount",
          "type": "uint256"
        },
        {
          "internalType": "uint8",
          "name": "limitAmountPerWallet",
          "type": "uint8"
        },
        {
          "internalType": "uint256",
          "name": "maxAmountPerMint",
          "type": "uint256"
        }
      ],
      "name": "changeSaleRoundParams",
      "outputs": [],
      "stateMutability": "nonpayable",
      "type": "function"
    },
    {
      "inputs": [],
      "name": "currentSaleIndex",
      "outputs": [
        {
          "internalType": "uint256",
          "name": "",
          "type": "uint256"
        }
      ],
      "stateMutability": "view",
      "type": "function"
    },
    {
      "inputs": [],
      "name": "disableSaleRound",
      "outputs": [],
      "stateMutability": "nonpayable",
      "type": "function"
    },
    {
      "inputs": [],
      "name": "enableSaleRound",
      "outputs": [],
      "stateMutability": "nonpayable",
      "type": "function"
    },
    {
      "inputs": [
        {
          "internalType": "bytes32",
          "name": "role",
          "type": "bytes32"
        }
      ],
      "name": "getRoleAdmin",
      "outputs": [
        {
          "internalType": "bytes32",
          "name": "",
          "type": "bytes32"
        }
      ],
      "stateMutability": "view",
      "type": "function"
    },
    {
      "inputs": [
        {
          "internalType": "bytes32",
          "name": "role",
          "type": "bytes32"
        },
        {
          "internalType": "address",
          "name": "account",
          "type": "address"
        }
      ],
      "name": "grantRole",
      "outputs": [],
      "stateMutability": "nonpayable",
      "type": "function"
    },
    {
      "inputs": [
        {
          "internalType": "bytes32",
          "name": "role",
          "type": "bytes32"
        },
        {
          "internalType": "address",
          "name": "account",
          "type": "address"
        }
      ],
      "name": "hasRole",
      "outputs": [
        {
          "internalType": "bool",
          "name": "",
          "type": "bool"
        }
      ],
      "stateMutability": "view",
      "type": "function"
    },
    {
      "inputs": [
        {
          "internalType": "uint256",
          "name": "",
          "type": "uint256"
        }
      ],
      "name": "mintedAmountPerRound",
      "outputs": [
        {
          "internalType": "uint256",
          "name": "",
          "type": "uint256"
        }
      ],
      "stateMutability": "view",
      "type": "function"
    },
    {
      "inputs": [],
      "name": "owner",
      "outputs": [
        {
          "internalType": "address",
          "name": "",
          "type": "address"
        }
      ],
      "stateMutability": "view",
      "type": "function"
    },
    {
      "inputs": [
        {
          "internalType": "address",
          "name": "recipient",
          "type": "address"
        },
        {
          "internalType": "uint256",
          "name": "quantity",
          "type": "uint256"
        }
      ],
      "name": "publicMint",
      "outputs": [],
      "stateMutability": "payable",
      "type": "function"
    },
    {
      "inputs": [],
      "name": "renounceOwnership",
      "outputs": [],
      "stateMutability": "nonpayable",
      "type": "function"
    },
    {
      "inputs": [
        {
          "internalType": "bytes32",
          "name": "role",
          "type": "bytes32"
        },
        {
          "internalType": "address",
          "name": "account",
          "type": "address"
        }
      ],
      "name": "renounceRole",
      "outputs": [],
      "stateMutability": "nonpayable",
      "type": "function"
    },
    {
      "inputs": [
        {
          "internalType": "bytes32",
          "name": "role",
          "type": "bytes32"
        },
        {
          "internalType": "address",
          "name": "account",
          "type": "address"
        }
      ],
      "name": "revokeRole",
      "outputs": [],
      "stateMutability": "nonpayable",
      "type": "function"
    },
    {
      "inputs": [],
      "name": "saleRound",
      "outputs": [
        {
          "internalType": "enum MintingRouter.SaleRoundType",
          "name": "saleType",
          "type": "uint8"
        },
        {
          "internalType": "uint256",
          "name": "price",
          "type": "uint256"
        },
        {
          "internalType": "uint256",
          "name": "totalAmount",
          "type": "uint256"
        },
        {
          "internalType": "uint256",
          "name": "limitAmountPerWallet",
          "type": "uint256"
        },
        {
          "internalType": "uint256",
          "name": "maxAmountPerMint",
          "type": "uint256"
        },
        {
          "internalType": "bool",
          "name": "enabled",
          "type": "bool"
        }
      ],
      "stateMutability": "view",
      "type": "function"
    },
    {
      "inputs": [
        {
          "internalType": "enum MintingRouter.SaleRoundType",
          "name": "saleType",
          "type": "uint8"
        },
        {
          "internalType": "uint256",
          "name": "price",
          "type": "uint256"
        },
        {
          "internalType": "uint256",
          "name": "totalAmount",
          "type": "uint256"
        },
        {
          "internalType": "uint256",
          "name": "limitAmountPerWallet",
          "type": "uint256"
        },
        {
          "internalType": "uint256",
          "name": "maxAmountPerMint",
          "type": "uint256"
        }
      ],
      "name": "setSaleRound",
      "outputs": [],
      "stateMutability": "nonpayable",
      "type": "function"
    },
    {
      "inputs": [
        {
          "internalType": "address",
          "name": "signer",
          "type": "address"
        }
      ],
      "name": "setWhitelistSigningAddress",
      "outputs": [],
      "stateMutability": "nonpayable",
      "type": "function"
    },
    {
      "inputs": [
        {
          "internalType": "bytes4",
          "name": "interfaceId",
          "type": "bytes4"
        }
      ],
      "name": "supportsInterface",
      "outputs": [
        {
          "internalType": "bool",
          "name": "",
          "type": "bool"
        }
      ],
      "stateMutability": "view",
      "type": "function"
    },
    {
      "inputs": [],
      "name": "tokensLeft",
      "outputs": [
        {
          "internalType": "uint256",
          "name": "",
          "type": "uint256"
        }
      ],
      "stateMutability": "view",
      "type": "function"
    },
    {
      "inputs": [],
      "name": "totalMintedAmount",
      "outputs": [
        {
          "internalType": "uint256",
          "name": "",
          "type": "uint256"
        }
      ],
      "stateMutability": "view",
      "type": "function"
    },
    {
      "inputs": [
        {
          "internalType": "address",
          "name": "newOwner",
          "type": "address"
        }
      ],
      "name": "transferOwnership",
      "outputs": [],
      "stateMutability": "nonpayable",
      "type": "function"
    },
    {
      "inputs": [
        {
          "internalType": "address",
          "name": "recipient",
          "type": "address"
        },
        {
          "internalType": "uint256",
          "name": "quantity",
          "type": "uint256"
        },
        {
          "internalType": "bytes",
          "name": "signature",
          "type": "bytes"
        }
      ],
      "name": "whitelistMint",
      "outputs": [],
      "stateMutability": "payable",
      "type": "function"
    },
    {
      "inputs": [],
      "name": "withdraw",
      "outputs": [
        {
          "internalType": "bool",
          "name": "",
          "type": "bool"
        }
      ],
      "stateMutability": "nonpayable",
      "type": "function"
    }
  ],
  "bytecode": "0x6080604052600180546001600160a01b03191690553480156200002157600080fd5b50604051620021b1380380620021b18339810160408190526200004491620002ad565b8181620000513362000105565b8151602080840191909120825183830120604080517f8b73c3c69bb8fe3d512ecc4cf759cc79239f7b179b0ffacaa9a75d522b39400f9481019490945283019190915260608201524660808201523060a082015260c00160408051601f19818403018152919052805160209091012060025550506001600355620000d760003362000155565b5050600580546001600160a01b0319166001600160a01b0392909216919091179055600019600c5562000349565b600080546001600160a01b038381166001600160a01b0319831681178455604051919092169283917f8be0079c531659141344cd1fd0a4f28419497f9722a3daafe3b4186f6b6457e09190a35050565b60008281526004602090815260408083206001600160a01b038516845290915290205460ff16620001f65760008281526004602090815260408083206001600160a01b03851684529091529020805460ff19166001179055620001b53390565b6001600160a01b0316816001600160a01b0316837f2f8788117e7eff1d82e926ec794901d17c78024a50270940304540a733656f0d60405160405180910390a45b5050565b600082601f8301126200020b578081fd5b81516001600160401b038082111562000228576200022862000333565b604051601f8301601f19908116603f0116810190828211818310171562000253576200025362000333565b816040528381526020925086838588010111156200026f578485fd5b8491505b8382101562000292578582018301518183018401529082019062000273565b83821115620002a357848385830101525b9695505050505050565b600080600060608486031215620002c2578283fd5b83516001600160a01b0381168114620002d9578384fd5b60208501519093506001600160401b0380821115620002f6578384fd5b6200030487838801620001fa565b935060408601519150808211156200031a578283fd5b506200032986828701620001fa565b9150509250925092565b634e487b7160e01b600052604160045260246000fd5b611e5880620003596000396000f3fe6080604052600436106101815760003560e01c80638da5cb5b116100d1578063cd7708331161008a578063e4e9275a11610064578063e4e9275a14610416578063eb9bbe6614610459578063f2fde38b14610479578063fa4d280c1461049957600080fd5b8063cd770833146103c3578063ce6df2b9146103e3578063d547741f146103f657600080fd5b80638da5cb5b1461032657806391d148541461034e578063a217fddf1461036e578063b31f8f9314610383578063bd14c3d014610398578063c1d69168146103ae57600080fd5b806336568abe1161013e5780634d4a6be8116101185780634d4a6be8146102c85780635ed222e3146102e85780636f865e6f146102fb578063715018a61461031157600080fd5b806336568abe146102735780633924cf73146102935780633ccfd60b146102b357600080fd5b806301ffc9a7146101865780631263a460146101bb578063248a9ca3146101d257806327c51a06146102105780632f2ff15d1461023d5780633644e5151461025d575b600080fd5b34801561019257600080fd5b506101a66101a1366004611b9c565b6104cd565b60405190151581526020015b60405180910390f35b3480156101c757600080fd5b506101d0610504565b005b3480156101de57600080fd5b506102026101ed366004611b59565b60009081526004602052604090206001015490565b6040519081526020016101b2565b34801561021c57600080fd5b5061020261022b366004611b59565b600e6020526000908152604090205481565b34801561024957600080fd5b506101d0610258366004611b71565b610599565b34801561026957600080fd5b5061020260025481565b34801561027f57600080fd5b506101d061028e366004611b71565b6105c4565b34801561029f57600080fd5b506101d06102ae366004611bc4565b610642565b3480156102bf57600080fd5b506101a6610868565b3480156102d457600080fd5b506102026102e3366004611a74565b6108ae565b6101d06102f6366004611ab7565b6109b7565b34801561030757600080fd5b50610202600d5481565b34801561031d57600080fd5b506101d0610c51565b34801561033257600080fd5b506000546040516001600160a01b0390911681526020016101b2565b34801561035a57600080fd5b506101a6610369366004611b71565b610c87565b34801561037a57600080fd5b50610202600081565b34801561038f57600080fd5b50610202610cb2565b3480156103a457600080fd5b50610202600c5481565b3480156103ba57600080fd5b506101d0610cf6565b3480156103cf57600080fd5b506101d06103de366004611a74565b610d83565b6101d06103f1366004611a8e565b610dce565b34801561040257600080fd5b506101d0610411366004611b71565b610ebf565b34801561042257600080fd5b50600654600754600854600954600a54600b546104479560ff90811695949392911686565b6040516101b296959493929190611cc2565b34801561046557600080fd5b506101d0610474366004611c0a565b610ee5565b34801561048557600080fd5b506101d0610494366004611a74565b610f26565b3480156104a557600080fd5b506102027f68e83002b91b0fd96d4df3566b5122221117e3ec6c2468fda594f6491f89b1c981565b60006001600160e01b03198216637965db0b60e01b14806104fe57506301ffc9a760e01b6001600160e01b03198316145b92915050565b6000546001600160a01b031633146105375760405162461bcd60e51b815260040161052e90611d42565b60405180910390fd5b600b5460ff161561058a5760405162461bcd60e51b815260206004820152601e60248201527f53616c6520726f756e642077617320616c726561647920656e61626c65640000604482015260640161052e565b600b805460ff19166001179055565b6000828152600460205260409020600101546105b58133610fbe565b6105bf8383611022565b505050565b6001600160a01b03811633146106345760405162461bcd60e51b815260206004820152602f60248201527f416363657373436f6e74726f6c3a2063616e206f6e6c792072656e6f756e636560448201526e103937b632b9903337b91039b2b63360891b606482015260840161052e565b61063e82826110a8565b5050565b6000546001600160a01b0316331461066c5760405162461bcd60e51b815260040161052e90611d42565b60055460408051631abdbca760e11b815290516000926001600160a01b03169163357b794e916004808301926020929190829003018186803b1580156106b157600080fd5b505afa1580156106c5573d6000803e3d6000fd5b505050506040513d601f19601f820116820180604052508101906106e99190611b39565b905060018115151461076e5760405162461bcd60e51b815260206004820152604260248201527f43616e2774206e6f74206f70656e20616e792073616c6520726f756e6420756e60448201527f74696c20616c6c20726573657276656420746f6b656e7320617265206d696e74606482015261195960f21b608482015260a40161052e565b600b5460ff16156107e75760405162461bcd60e51b815260206004820152603960248201527f43616e27742073657420612073616c6520726f756e64207768656e206375727260448201527f656e742073616c6520726f756e6420697320656e61626c656400000000000000606482015260840161052e565b600019600c5414156107fd576000600c55610816565b6001600c60008282546108109190611d77565b90915550505b600785905560088490556009839055600a8290556006805487919060ff19166001838181111561085657634e487b7160e01b600052602160045260246000fd5b0217905550506000600d555050505050565b6000806108758133610fbe565b6040514790339082156108fc029083906000818181858888f193505050501580156108a4573d6000803e3d6000fd5b5060019250505090565b600c546000908152600f602090815260408083206001600160a01b03851684529091528120546009548291106108e5576000610918565b600c546000908152600f602090815260408083206001600160a01b03871684529091529020546009546109189190611dae565b600c546000908152600e602052604081205460085492935090911161093e57600061095d565b600c546000908152600e602052604090205460085461095d9190611dae565b6008546009549192506000916109739190611d77565b141561098457506000199392505050565b600954610992579392505050565b6008546109a0575092915050565b8082106109ad57806109af565b815b949350505050565b600154829082906001600160a01b0316610a2e5760405162461bcd60e51b815260206004820152603260248201527f57686974656c697374206e6f7420656e61626c65643b20706c656173652073656044820152713a103a343290383934bb30ba329035b2bc9760711b606482015260840161052e565b600254604080517f68e83002b91b0fd96d4df3566b5122221117e3ec6c2468fda594f6491f89b1c9602082015233918101919091526000919060600160405160208183030381529060405280519060200120604051602001610aa792919061190160f01b81526002810192909252602282015260420190565b6040516020818303038152906040528051906020012090506000610b0384848080601f016020809104026020016040519081016040528093929190818152602001838380828437600092019190915250869392505061110f9050565b6001549091506001600160a01b03808316911614610b575760405162461bcd60e51b8152602060048201526011602482015270496e76616c6964207369676e617475726560781b604482015260640161052e565b60026003541415610baa5760405162461bcd60e51b815260206004820152601f60248201527f5265656e7472616e637947756172643a207265656e7472616e742063616c6c00604482015260640161052e565b6002600355600060065460ff166001811115610bd657634e487b7160e01b600052602160045260246000fd5b14610c375760405162461bcd60e51b815260206004820152602b60248201527f4163746976652073616c6520726f756e64206973206e6f74206120776869746560448201526a3634b9ba103937bab7321760a91b606482015260840161052e565b610c42348989611133565b50506001600355505050505050565b6000546001600160a01b03163314610c7b5760405162461bcd60e51b815260040161052e90611d42565b610c856000611488565b565b60009182526004602090815260408084206001600160a01b0393909316845291905290205460ff1690565b600c546000908152600e602052604081205460085411610cd25750600090565b600c546000908152600e6020526040902054600854610cf19190611dae565b905090565b6000546001600160a01b03163314610d205760405162461bcd60e51b815260040161052e90611d42565b600b5460ff161515600114610d775760405162461bcd60e51b815260206004820152601f60248201527f53616c6520726f756e642077617320616c72656164792064697361626c656400604482015260640161052e565b600b805460ff19169055565b6000546001600160a01b03163314610dad5760405162461bcd60e51b815260040161052e90611d42565b600180546001600160a01b0319166001600160a01b03831617905550565b50565b60026003541415610e215760405162461bcd60e51b815260206004820152601f60248201527f5265656e7472616e637947756172643a207265656e7472616e742063616c6c00604482015260640161052e565b6002600355600160065460ff166001811115610e4d57634e487b7160e01b600052602160045260246000fd5b14610eab5760405162461bcd60e51b815260206004820152602860248201527f4163746976652073616c6520726f756e64206973206e6f742061207075626c6960448201526731903937bab7321760c11b606482015260840161052e565b610eb6348383611133565b50506001600355565b600082815260046020526040902060010154610edb8133610fbe565b6105bf83836110a8565b6000546001600160a01b03163314610f0f5760405162461bcd60e51b815260040161052e90611d42565b60079390935560089190915560ff16600955600a55565b6000546001600160a01b03163314610f505760405162461bcd60e51b815260040161052e90611d42565b6001600160a01b038116610fb55760405162461bcd60e51b815260206004820152602660248201527f4f776e61626c653a206e6577206f776e657220697320746865207a65726f206160448201526564647265737360d01b606482015260840161052e565b610dcb81611488565b610fc88282610c87565b61063e57610fe0816001600160a01b031660146114d8565b610feb8360206114d8565b604051602001610ffc929190611c4d565b60408051601f198184030181529082905262461bcd60e51b825261052e91600401611d0f565b61102c8282610c87565b61063e5760008281526004602090815260408083206001600160a01b03851684529091529020805460ff191660011790556110643390565b6001600160a01b0316816001600160a01b0316837f2f8788117e7eff1d82e926ec794901d17c78024a50270940304540a733656f0d60405160405180910390a45050565b6110b28282610c87565b1561063e5760008281526004602090815260408083206001600160a01b0385168085529252808320805460ff1916905551339285917ff6391f5c32d9c69d2a47ea670b442974b53935d1edc7fd64eb21e047a839171b9190a45050565b600080600061111e85856116c1565b9150915061112b81611731565b509392505050565b600b5460ff1615156001146111945760405162461bcd60e51b815260206004820152602160248201527f53616c6520726f756e64207761732064697361626c6564206f7220636c6f73656044820152601960fa1b606482015260840161052e565b600081116111ee5760405162461bcd60e51b815260206004820152602160248201527f5175616e746974792073686f756c642062652067726561746572207468616e206044820152600360fc1b606482015260840161052e565b600a541561125657600a548111156112565760405162461bcd60e51b815260206004820152602560248201527f5175616e74697479206578636565646564206d617820616d6f756e7420706572604482015264081b5a5b9d60da1b606482015260840161052e565b600854156112c957600854600d5461126f908390611d77565b11156112c95760405162461bcd60e51b8152602060048201526024808201527f4d617820616d6f756e7420776173207265616368656420666f7220746869732060448201526373616c6560e01b606482015260840161052e565b6009541561135457600c546000908152600f602090815260408083206001600160a01b03861684529091529020546009546113048383611d77565b11156113525760405162461bcd60e51b815260206004820152601e60248201527f4d6178206d696e74656420706572206164647265737320726561636865640000604482015260640161052e565b505b600754611362908290611d8f565b8310156113a65760405162461bcd60e51b8152602060048201526012602482015271496e73756666696369656e742066756e647360701b604482015260640161052e565b6005546040516340c10f1960e01b81526001600160a01b03848116600483015260248201849052909116906340c10f1990604401600060405180830381600087803b1580156113f457600080fd5b505af1158015611408573d6000803e3d6000fd5b5050505080600d600082825461141e9190611d77565b9091555050600c546000908152600f602090815260408083206001600160a01b038616845290915281208054839290611458908490611d77565b9091555050600c546000908152600e60205260408120805483929061147e908490611d77565b9091555050505050565b600080546001600160a01b038381166001600160a01b0319831681178455604051919092169283917f8be0079c531659141344cd1fd0a4f28419497f9722a3daafe3b4186f6b6457e09190a35050565b606060006114e7836002611d8f565b6114f2906002611d77565b67ffffffffffffffff81111561151857634e487b7160e01b600052604160045260246000fd5b6040519080825280601f01601f191660200182016040528015611542576020820181803683370190505b509050600360fc1b8160008151811061156b57634e487b7160e01b600052603260045260246000fd5b60200101906001600160f81b031916908160001a905350600f60fb1b816001815181106115a857634e487b7160e01b600052603260045260246000fd5b60200101906001600160f81b031916908160001a90535060006115cc846002611d8f565b6115d7906001611d77565b90505b600181111561166b576f181899199a1a9b1b9c1cb0b131b232b360811b85600f166010811061161957634e487b7160e01b600052603260045260246000fd5b1a60f81b82828151811061163d57634e487b7160e01b600052603260045260246000fd5b60200101906001600160f81b031916908160001a90535060049490941c9361166481611df5565b90506115da565b5083156116ba5760405162461bcd60e51b815260206004820181905260248201527f537472696e67733a20686578206c656e67746820696e73756666696369656e74604482015260640161052e565b9392505050565b6000808251604114156116f85760208301516040840151606085015160001a6116ec87828585611932565b9450945050505061172a565b8251604014156117225760208301516040840151611717868383611a1f565b93509350505061172a565b506000905060025b9250929050565b600081600481111561175357634e487b7160e01b600052602160045260246000fd5b141561175c5750565b600181600481111561177e57634e487b7160e01b600052602160045260246000fd5b14156117cc5760405162461bcd60e51b815260206004820152601860248201527f45434453413a20696e76616c6964207369676e61747572650000000000000000604482015260640161052e565b60028160048111156117ee57634e487b7160e01b600052602160045260246000fd5b141561183c5760405162461bcd60e51b815260206004820152601f60248201527f45434453413a20696e76616c6964207369676e6174757265206c656e67746800604482015260640161052e565b600381600481111561185e57634e487b7160e01b600052602160045260246000fd5b14156118b75760405162461bcd60e51b815260206004820152602260248201527f45434453413a20696e76616c6964207369676e6174757265202773272076616c604482015261756560f01b606482015260840161052e565b60048160048111156118d957634e487b7160e01b600052602160045260246000fd5b1415610dcb5760405162461bcd60e51b815260206004820152602260248201527f45434453413a20696e76616c6964207369676e6174757265202776272076616c604482015261756560f01b606482015260840161052e565b6000807f7fffffffffffffffffffffffffffffff5d576e7357a4501ddfe92f46681b20a08311156119695750600090506003611a16565b8460ff16601b1415801561198157508460ff16601c14155b156119925750600090506004611a16565b6040805160008082526020820180845289905260ff881692820192909252606081018690526080810185905260019060a0016020604051602081039080840390855afa1580156119e6573d6000803e3d6000fd5b5050604051601f1901519150506001600160a01b038116611a0f57600060019250925050611a16565b9150600090505b94509492505050565b6000806001600160ff1b03831681611a3c60ff86901c601b611d77565b9050611a4a87828885611932565b935093505050935093915050565b80356001600160a01b0381168114611a6f57600080fd5b919050565b600060208284031215611a85578081fd5b6116ba82611a58565b60008060408385031215611aa0578081fd5b611aa983611a58565b946020939093013593505050565b60008060008060608587031215611acc578182fd5b611ad585611a58565b935060208501359250604085013567ffffffffffffffff80821115611af8578384fd5b818701915087601f830112611b0b578384fd5b813581811115611b19578485fd5b886020828501011115611b2a578485fd5b95989497505060200194505050565b600060208284031215611b4a578081fd5b815180151581146116ba578182fd5b600060208284031215611b6a578081fd5b5035919050565b60008060408385031215611b83578182fd5b82359150611b9360208401611a58565b90509250929050565b600060208284031215611bad578081fd5b81356001600160e01b0319811681146116ba578182fd5b600080600080600060a08688031215611bdb578081fd5b853560028110611be9578182fd5b97602087013597506040870135966060810135965060800135945092505050565b60008060008060808587031215611c1f578384fd5b8435935060208501359250604085013560ff81168114611c3d578283fd5b9396929550929360600135925050565b7f416363657373436f6e74726f6c3a206163636f756e7420000000000000000000815260008351611c85816017850160208801611dc5565b7001034b99036b4b9b9b4b733903937b6329607d1b6017918401918201528351611cb6816028840160208801611dc5565b01602801949350505050565b60c0810160028810611ce457634e487b7160e01b600052602160045260246000fd5b9681526020810195909552604085019390935260608401919091526080830152151560a09091015290565b6020815260008251806020840152611d2e816040850160208701611dc5565b601f01601f19169190910160400192915050565b6020808252818101527f4f776e61626c653a2063616c6c6572206973206e6f7420746865206f776e6572604082015260600190565b60008219821115611d8a57611d8a611e0c565b500190565b6000816000190483118215151615611da957611da9611e0c565b500290565b600082821015611dc057611dc0611e0c565b500390565b60005b83811015611de0578181015183820152602001611dc8565b83811115611def576000848401525b50505050565b600081611e0457611e04611e0c565b506000190190565b634e487b7160e01b600052601160045260246000fdfea2646970667358221220b7047533fff5504ffeefd8ffd1246e6f4eecfd5115b0a5c0cba0e9eb79d3837d64736f6c63430008040033",
  "linkReferences": {},
  "deployedLinkReferences": {}
}