{
  "_format": "hh-sol-artifact-1",
  "contractName": "NFT",
  "sourceName": "contracts/NFT.sol",
  "abi": [
    {
      "inputs": [
        {
          "internalType": "string",
          "name": "tokenName",
          "type": "string"
        },
        {
          "internalType": "string",
          "name": "tokenSymbol",
          "type": "string"
        },
        {
          "internalType": "string",
          "name": "unrevealedUri",
          "type": "string"
        },
        {
          "internalType": "uint256",
          "name": "maxSupply",
          "type": "uint256"
        },
        {
          "internalType": "uint256",
          "name": "maxReservedSupply",
          "type": "uint256"
        }
      ],
      "stateMutability": "nonpayable",
      "type": "constructor"
    },
    {
      "inputs": [],
      "name": "ApprovalCallerNotOwnerNorApproved",
      "type": "error"
    },
    {
      "inputs": [],
      "name": "ApprovalQueryForNonexistentToken",
      "type": "error"
    },
    {
      "inputs": [],
      "name": "ApprovalToCurrentOwner",
      "type": "error"
    },
    {
      "inputs": [],
      "name": "ApproveToCaller",
      "type": "error"
    },
    {
      "inputs": [],
      "name": "BalanceQueryForZeroAddress",
      "type": "error"
    },
    {
      "inputs": [],
      "name": "MintToZeroAddress",
      "type": "error"
    },
    {
      "inputs": [],
      "name": "MintZeroQuantity",
      "type": "error"
    },
    {
      "inputs": [],
      "name": "OwnerIndexOutOfBounds",
      "type": "error"
    },
    {
      "inputs": [],
      "name": "OwnerQueryForNonexistentToken",
      "type": "error"
    },
    {
      "inputs": [],
      "name": "TokenIndexOutOfBounds",
      "type": "error"
    },
    {
      "inputs": [],
      "name": "TransferCallerNotOwnerNorApproved",
      "type": "error"
    },
    {
      "inputs": [],
      "name": "TransferFromIncorrectOwner",
      "type": "error"
    },
    {
      "inputs": [],
      "name": "TransferToNonERC721ReceiverImplementer",
      "type": "error"
    },
    {
      "inputs": [],
      "name": "TransferToZeroAddress",
      "type": "error"
    },
    {
      "inputs": [],
      "name": "URIQueryForNonexistentToken",
      "type": "error"
    },
    {
      "anonymous": false,
      "inputs": [
        {
          "indexed": true,
          "internalType": "address",
          "name": "owner",
          "type": "address"
        },
        {
          "indexed": true,
          "internalType": "address",
          "name": "approved",
          "type": "address"
        },
        {
          "indexed": true,
          "internalType": "uint256",
          "name": "tokenId",
          "type": "uint256"
        }
      ],
      "name": "Approval",
      "type": "event"
    },
    {
      "anonymous": false,
      "inputs": [
        {
          "indexed": true,
          "internalType": "address",
          "name": "owner",
          "type": "address"
        },
        {
          "indexed": true,
          "internalType": "address",
          "name": "operator",
          "type": "address"
        },
        {
          "indexed": false,
          "internalType": "bool",
          "name": "approved",
          "type": "bool"
        }
      ],
      "name": "ApprovalForAll",
      "type": "event"
    },
    {
      "anonymous": false,
      "inputs": [
        {
          "indexed": true,
          "internalType": "address",
          "name": "previousOwner",
          "type": "address"
        },
        {
          "indexed": true,
          "internalType": "address",
          "name": "newOwner",
          "type": "address"
        }
      ],
      "name": "OwnershipTransferred",
      "type": "event"
    },
    {
      "anonymous": false,
      "inputs": [
        {
          "indexed": true,
          "internalType": "bytes32",
          "name": "role",
          "type": "bytes32"
        },
        {
          "indexed": true,
          "internalType": "bytes32",
          "name": "previousAdminRole",
          "type": "bytes32"
        },
        {
          "indexed": true,
          "internalType": "bytes32",
          "name": "newAdminRole",
          "type": "bytes32"
        }
      ],
      "name": "RoleAdminChanged",
      "type": "event"
    },
    {
      "anonymous": false,
      "inputs": [
        {
          "indexed": true,
          "internalType": "bytes32",
          "name": "role",
          "type": "bytes32"
        },
        {
          "indexed": true,
          "internalType": "address",
          "name": "account",
          "type": "address"
        },
        {
          "indexed": true,
          "internalType": "address",
          "name": "sender",
          "type": "address"
        }
      ],
      "name": "RoleGranted",
      "type": "event"
    },
    {
      "anonymous": false,
      "inputs": [
        {
          "indexed": true,
          "internalType": "bytes32",
          "name": "role",
          "type": "bytes32"
        },
        {
          "indexed": true,
          "internalType": "address",
          "name": "account",
          "type": "address"
        },
        {
          "indexed": true,
          "internalType": "address",
          "name": "sender",
          "type": "address"
        }
      ],
      "name": "RoleRevoked",
      "type": "event"
    },
    {
      "anonymous": false,
      "inputs": [
        {
          "indexed": true,
          "internalType": "address",
          "name": "from",
          "type": "address"
        },
        {
          "indexed": true,
          "internalType": "address",
          "name": "to",
          "type": "address"
        },
        {
          "indexed": true,
          "internalType": "uint256",
          "name": "tokenId",
          "type": "uint256"
        }
      ],
      "name": "Transfer",
      "type": "event"
    },
    {
      "inputs": [],
      "name": "DEFAULT_ADMIN_ROLE",
      "outputs": [
        {
          "internalType": "bytes32",
          "name": "",
          "type": "bytes32"
        }
      ],
      "stateMutability": "view",
      "type": "function"
    },
    {
      "inputs": [],
      "name": "MAX_RESERVED_SUPPLY",
      "outputs": [
        {
          "internalType": "uint256",
          "name": "",
          "type": "uint256"
        }
      ],
      "stateMutability": "view",
      "type": "function"
    },
    {
      "inputs": [],
      "name": "MAX_SUPPLY",
      "outputs": [
        {
          "internalType": "uint256",
          "name": "",
          "type": "uint256"
        }
      ],
      "stateMutability": "view",
      "type": "function"
    },
    {
      "inputs": [],
      "name": "MINTER_ROLE",
      "outputs": [
        {
          "internalType": "bytes32",
          "name": "",
          "type": "bytes32"
        }
      ],
      "stateMutability": "view",
      "type": "function"
    },
    {
      "inputs": [
        {
          "internalType": "address",
          "name": "to",
          "type": "address"
        },
        {
          "internalType": "uint256",
          "name": "tokenId",
          "type": "uint256"
        }
      ],
      "name": "approve",
      "outputs": [],
      "stateMutability": "nonpayable",
      "type": "function"
    },
    {
      "inputs": [
        {
          "internalType": "address",
          "name": "owner",
          "type": "address"
        }
      ],
      "name": "balanceOf",
      "outputs": [
        {
          "internalType": "uint256",
          "name": "",
          "type": "uint256"
        }
      ],
      "stateMutability": "view",
      "type": "function"
    },
    {
      "inputs": [
        {
          "internalType": "uint256[]",
          "name": "tokenIds",
          "type": "uint256[]"
        }
      ],
      "name": "burnTokens",
      "outputs": [],
      "stateMutability": "nonpayable",
      "type": "function"
    },
    {
      "inputs": [
        {
          "internalType": "uint256",
          "name": "tokenId",
          "type": "uint256"
        }
      ],
      "name": "getApproved",
      "outputs": [
        {
          "internalType": "address",
          "name": "",
          "type": "address"
        }
      ],
      "stateMutability": "view",
      "type": "function"
    },
    {
      "inputs": [
        {
          "internalType": "bytes32",
          "name": "role",
          "type": "bytes32"
        }
      ],
      "name": "getRoleAdmin",
      "outputs": [
        {
          "internalType": "bytes32",
          "name": "",
          "type": "bytes32"
        }
      ],
      "stateMutability": "view",
      "type": "function"
    },
    {
      "inputs": [
        {
          "internalType": "bytes32",
          "name": "role",
          "type": "bytes32"
        },
        {
          "internalType": "address",
          "name": "account",
          "type": "address"
        }
      ],
      "name": "grantRole",
      "outputs": [],
      "stateMutability": "nonpayable",
      "type": "function"
    },
    {
      "inputs": [
        {
          "internalType": "bytes32",
          "name": "role",
          "type": "bytes32"
        },
        {
          "internalType": "address",
          "name": "account",
          "type": "address"
        }
      ],
      "name": "hasRole",
      "outputs": [
        {
          "internalType": "bool",
          "name": "",
          "type": "bool"
        }
      ],
      "stateMutability": "view",
      "type": "function"
    },
    {
      "inputs": [
        {
          "internalType": "address",
          "name": "owner",
          "type": "address"
        },
        {
          "internalType": "address",
          "name": "operator",
          "type": "address"
        }
      ],
      "name": "isApprovedForAll",
      "outputs": [
        {
          "internalType": "bool",
          "name": "",
          "type": "bool"
        }
      ],
      "stateMutability": "view",
      "type": "function"
    },
    {
      "inputs": [
        {
          "internalType": "address",
          "name": "recipient",
          "type": "address"
        },
        {
          "internalType": "uint256",
          "name": "quantity",
          "type": "uint256"
        }
      ],
      "name": "mint",
      "outputs": [],
      "stateMutability": "nonpayable",
      "type": "function"
    },
    {
      "inputs": [],
      "name": "name",
      "outputs": [
        {
          "internalType": "string",
          "name": "",
          "type": "string"
        }
      ],
      "stateMutability": "view",
      "type": "function"
    },
    {
      "inputs": [],
      "name": "owner",
      "outputs": [
        {
          "internalType": "address",
          "name": "",
          "type": "address"
        }
      ],
      "stateMutability": "view",
      "type": "function"
    },
    {
      "inputs": [
        {
          "internalType": "uint256",
          "name": "tokenId",
          "type": "uint256"
        }
      ],
      "name": "ownerOf",
      "outputs": [
        {
          "internalType": "address",
          "name": "",
          "type": "address"
        }
      ],
      "stateMutability": "view",
      "type": "function"
    },
    {
      "inputs": [
        {
          "internalType": "uint256",
          "name": "quantity",
          "type": "uint256"
        }
      ],
      "name": "premint",
      "outputs": [],
      "stateMutability": "nonpayable",
      "type": "function"
    },
    {
      "inputs": [],
      "name": "preminted",
      "outputs": [
        {
          "internalType": "bool",
          "name": "",
          "type": "bool"
        }
      ],
      "stateMutability": "view",
      "type": "function"
    },
    {
      "inputs": [],
      "name": "renounceOwnership",
      "outputs": [],
      "stateMutability": "nonpayable",
      "type": "function"
    },
    {
      "inputs": [
        {
          "internalType": "bytes32",
          "name": "role",
          "type": "bytes32"
        },
        {
          "internalType": "address",
          "name": "account",
          "type": "address"
        }
      ],
      "name": "renounceRole",
      "outputs": [],
      "stateMutability": "nonpayable",
      "type": "function"
    },
    {
      "inputs": [],
      "name": "reveal",
      "outputs": [],
      "stateMutability": "nonpayable",
      "type": "function"
    },
    {
      "inputs": [],
      "name": "revealed",
      "outputs": [
        {
          "internalType": "bool",
          "name": "",
          "type": "bool"
        }
      ],
      "stateMutability": "view",
      "type": "function"
    },
    {
      "inputs": [
        {
          "internalType": "bytes32",
          "name": "role",
          "type": "bytes32"
        },
        {
          "internalType": "address",
          "name": "account",
          "type": "address"
        }
      ],
      "name": "revokeRole",
      "outputs": [],
      "stateMutability": "nonpayable",
      "type": "function"
    },
    {
      "inputs": [
        {
          "internalType": "address",
          "name": "from",
          "type": "address"
        },
        {
          "internalType": "address",
          "name": "to",
          "type": "address"
        },
        {
          "internalType": "uint256",
          "name": "tokenId",
          "type": "uint256"
        }
      ],
      "name": "safeTransferFrom",
      "outputs": [],
      "stateMutability": "nonpayable",
      "type": "function"
    },
    {
      "inputs": [
        {
          "internalType": "address",
          "name": "from",
          "type": "address"
        },
        {
          "internalType": "address",
          "name": "to",
          "type": "address"
        },
        {
          "internalType": "uint256",
          "name": "tokenId",
          "type": "uint256"
        },
        {
          "internalType": "bytes",
          "name": "_data",
          "type": "bytes"
        }
      ],
      "name": "safeTransferFrom",
      "outputs": [],
      "stateMutability": "nonpayable",
      "type": "function"
    },
    {
      "inputs": [
        {
          "internalType": "address",
          "name": "operator",
          "type": "address"
        },
        {
          "internalType": "bool",
          "name": "approved",
          "type": "bool"
        }
      ],
      "name": "setApprovalForAll",
      "outputs": [],
      "stateMutability": "nonpayable",
      "type": "function"
    },
    {
      "inputs": [
        {
          "internalType": "string",
          "name": "uri",
          "type": "string"
        }
      ],
      "name": "setBaseUri",
      "outputs": [],
      "stateMutability": "nonpayable",
      "type": "function"
    },
    {
      "inputs": [
        {
          "internalType": "uint256",
          "name": "quantity",
          "type": "uint256"
        }
      ],
      "name": "setMaxSupply",
      "outputs": [],
      "stateMutability": "nonpayable",
      "type": "function"
    },
    {
      "inputs": [
        {
          "internalType": "address",
          "name": "mintingRouter",
          "type": "address"
        }
      ],
      "name": "setMinter",
      "outputs": [],
      "stateMutability": "nonpayable",
      "type": "function"
    },
    {
      "inputs": [
        {
          "internalType": "string",
          "name": "uri",
          "type": "string"
        }
      ],
      "name": "setUnrevealedUri",
      "outputs": [],
      "stateMutability": "nonpayable",
      "type": "function"
    },
    {
      "inputs": [
        {
          "internalType": "bytes4",
          "name": "interfaceId",
          "type": "bytes4"
        }
      ],
      "name": "supportsInterface",
      "outputs": [
        {
          "internalType": "bool",
          "name": "",
          "type": "bool"
        }
      ],
      "stateMutability": "view",
      "type": "function"
    },
    {
      "inputs": [],
      "name": "symbol",
      "outputs": [
        {
          "internalType": "string",
          "name": "",
          "type": "string"
        }
      ],
      "stateMutability": "view",
      "type": "function"
    },
    {
      "inputs": [
        {
          "internalType": "uint256",
          "name": "index",
          "type": "uint256"
        }
      ],
      "name": "tokenByIndex",
      "outputs": [
        {
          "internalType": "uint256",
          "name": "",
          "type": "uint256"
        }
      ],
      "stateMutability": "view",
      "type": "function"
    },
    {
      "inputs": [
        {
          "internalType": "address",
          "name": "owner",
          "type": "address"
        },
        {
          "internalType": "uint256",
          "name": "index",
          "type": "uint256"
        }
      ],
      "name": "tokenOfOwnerByIndex",
      "outputs": [
        {
          "internalType": "uint256",
          "name": "",
          "type": "uint256"
        }
      ],
      "stateMutability": "view",
      "type": "function"
    },
    {
      "inputs": [
        {
          "internalType": "uint256",
          "name": "tokenId",
          "type": "uint256"
        }
      ],
      "name": "tokenURI",
      "outputs": [
        {
          "internalType": "string",
          "name": "",
          "type": "string"
        }
      ],
      "stateMutability": "view",
      "type": "function"
    },
    {
      "inputs": [],
      "name": "totalSupply",
      "outputs": [
        {
          "internalType": "uint256",
          "name": "",
          "type": "uint256"
        }
      ],
      "stateMutability": "view",
      "type": "function"
    },
    {
      "inputs": [
        {
          "internalType": "address",
          "name": "from",
          "type": "address"
        },
        {
          "internalType": "address",
          "name": "to",
          "type": "address"
        },
        {
          "internalType": "uint256",
          "name": "tokenId",
          "type": "uint256"
        }
      ],
      "name": "transferFrom",
      "outputs": [],
      "stateMutability": "nonpayable",
      "type": "function"
    },
    {
      "inputs": [
        {
          "internalType": "address",
          "name": "newOwner",
          "type": "address"
        }
      ],
      "name": "transferOwnership",
      "outputs": [],
      "stateMutability": "nonpayable",
      "type": "function"
    },
    {
      "inputs": [],
      "name": "unreveal",
      "outputs": [],
      "stateMutability": "nonpayable",
      "type": "function"
    }
  ],
  "bytecode": "0x60c0604052600b60808190526a697066733a2f2f6e6f6e6560a81b60a09081526200002e91600a919062000222565b50600c805460ff19908116909155600f805490911690553480156200005257600080fd5b506040516200292938038062002929833981016040819052620000759162000395565b82858581600290805190602001906200009092919062000222565b508051620000a690600390602084019062000222565b505050620000c3620000bd6200012760201b60201c565b6200012b565b8051620000d890600b90602084019062000222565b50620000e890506000336200017d565b620001147f9f2df0fed2c77648de5860a4cc508cd0818c85b8b8a1ab4ceeef8d981c8956a6336200017d565b600d91909155600e555062000475915050565b3390565b600980546001600160a01b038381166001600160a01b0319831681179093556040519116919082907f8be0079c531659141344cd1fd0a4f28419497f9722a3daafe3b4186f6b6457e090600090a35050565b60008281526008602090815260408083206001600160a01b038516845290915290205460ff166200021e5760008281526008602090815260408083206001600160a01b03851684529091529020805460ff19166001179055620001dd3390565b6001600160a01b0316816001600160a01b0316837f2f8788117e7eff1d82e926ec794901d17c78024a50270940304540a733656f0d60405160405180910390a45b5050565b828054620002309062000439565b90600052602060002090601f0160209004810192826200025457600085556200029f565b82601f106200026f57805160ff19168380011785556200029f565b828001600101855582156200029f579182015b828111156200029f57825182559160200191906001019062000282565b50620002ad929150620002b1565b5090565b5b80821115620002ad5760008155600101620002b2565b634e487b7160e01b600052604160045260246000fd5b600082601f830112620002f057600080fd5b81516001600160401b03808211156200030d576200030d620002c8565b604051601f8301601f19908116603f01168101908282118183101715620003385762000338620002c8565b816040528381526020925086838588010111156200035557600080fd5b600091505b838210156200037957858201830151818301840152908201906200035a565b838211156200038b5760008385830101525b9695505050505050565b600080600080600060a08688031215620003ae57600080fd5b85516001600160401b0380821115620003c657600080fd5b620003d489838a01620002de565b96506020880151915080821115620003eb57600080fd5b620003f989838a01620002de565b955060408801519150808211156200041057600080fd5b506200041f88828901620002de565b606088015160809098015196999598509695949350505050565b600181811c908216806200044e57607f821691505b6020821081036200046f57634e487b7160e01b600052602260045260246000fd5b50919050565b6124a480620004856000396000f3fe608060405234801561001057600080fd5b506004361061023d5760003560e01c80636f8b44b01161013b578063a22cb465116100b8578063d547741f1161007c578063d547741f146104d1578063dfe0ce18146104e4578063e985e9c5146104ed578063f2fde38b14610529578063fca3b5aa1461053c57600080fd5b8063a22cb46514610469578063a475b5dd1461047c578063b88d4fde14610484578063c87b56dd14610497578063d5391393146104aa57600080fd5b806391d14854116100ff57806391d148541461042057806395d89b41146104335780639d5aef301461043b578063a0bcfc7f1461044e578063a217fddf1461046157600080fd5b80636f8b44b0146103ce57806370a08231146103e1578063715018a6146103f45780638da5cb5b146103fc57806390fb5fb91461040d57600080fd5b80632f745c59116101c957806342842e0e1161018d57806342842e0e146103755780634f6ccce714610388578063518302271461039b5780636352211e146103a857806367a53173146103bb57600080fd5b80632f745c591461032657806332cb6b0c14610339578063357b794e1461034257806336568abe1461034f57806340c10f191461036257600080fd5b8063158756b911610210578063158756b9146102bf57806318160ddd146102c757806323b872dd146102dd578063248a9ca3146102f05780632f2ff15d1461031357600080fd5b806301ffc9a71461024257806306fdde031461026a578063081812fc1461027f578063095ea7b3146102aa575b600080fd5b610255610250366004611e29565b61054f565b60405190151581526020015b60405180910390f35b610272610560565b6040516102619190611e9e565b61029261028d366004611eb1565b6105f2565b6040516001600160a01b039091168152602001610261565b6102bd6102b8366004611ee6565b610636565b005b6102bd6106c3565b600154600054035b604051908152602001610261565b6102bd6102eb366004611f10565b6106dc565b6102cf6102fe366004611eb1565b60009081526008602052604090206001015490565b6102bd610321366004611f4c565b6106e7565b6102cf610334366004611ee6565b61070d565b6102cf600d5481565b600f546102559060ff1681565b6102bd61035d366004611f4c565b6107fe565b6102bd610370366004611ee6565b610881565b6102bd610383366004611f10565b61096b565b6102cf610396366004611eb1565b610986565b600c546102559060ff1681565b6102926103b6366004611eb1565b610a26565b6102bd6103c9366004611f78565b610a38565b6102bd6103dc366004611eb1565b610b04565b6102cf6103ef366004611fec565b610b66565b6102bd610bb4565b6009546001600160a01b0316610292565b6102bd61041b366004612092565b610c1a565b61025561042e366004611f4c565b610c39565b610272610c64565b6102bd610449366004611eb1565b610c73565b6102bd61045c366004612092565b610d64565b6102cf600081565b6102bd6104773660046120da565b610d95565b6102bd610e2a565b6102bd610492366004612116565b610e46565b6102726104a5366004611eb1565b610e80565b6102cf7f9f2df0fed2c77648de5860a4cc508cd0818c85b8b8a1ab4ceeef8d981c8956a681565b6102bd6104df366004611f4c565b610eb1565b6102cf600e5481565b6102556104fb366004612191565b6001600160a01b03918216600090815260076020908152604080832093909416825291909152205460ff1690565b6102bd610537366004611fec565b610ed7565b6102bd61054a366004611fec565b610fa2565b600061055a82610fd8565b92915050565b60606002805461056f906121bb565b80601f016020809104026020016040519081016040528092919081815260200182805461059b906121bb565b80156105e85780601f106105bd576101008083540402835291602001916105e8565b820191906000526020600020905b8154815290600101906020018083116105cb57829003601f168201915b5050505050905090565b60006105fd82610ffd565b61061a576040516333d1c03960e21b815260040160405180910390fd5b506000908152600660205260409020546001600160a01b031690565b600061064182610a26565b9050806001600160a01b0316836001600160a01b0316036106755760405163250fdee360e21b815260040160405180910390fd5b336001600160a01b03821614801590610695575061069381336104fb565b155b156106b3576040516367d9dca160e11b815260040160405180910390fd5b6106be838383611028565b505050565b60006106cf8133611084565b50600c805460ff19169055565b6106be8383836110e8565b6000828152600860205260409020600101546107038133611084565b6106be83836112fc565b600061071883610b66565b8210610737576040516306ed618760e11b815260040160405180910390fd5b600080549080805b838110156107f857600081815260046020908152604091829020825160608101845290546001600160a01b0381168252600160a01b81046001600160401b031692820192909252600160e01b90910460ff1615801592820192909252906107a657506107f0565b80516001600160a01b0316156107bb57805192505b876001600160a01b0316836001600160a01b0316036107ee578684036107e75750935061055a92505050565b6001909301925b505b60010161073f565b50600080fd5b6001600160a01b03811633146108735760405162461bcd60e51b815260206004820152602f60248201527f416363657373436f6e74726f6c3a2063616e206f6e6c792072656e6f756e636560448201526e103937b632b9903337b91039b2b63360891b60648201526084015b60405180910390fd5b61087d8282611382565b5050565b7f9f2df0fed2c77648de5860a4cc508cd0818c85b8b8a1ab4ceeef8d981c8956a66108ac8133611084565b600f5460ff1615156001146109035760405162461bcd60e51b815260206004820152601e60248201527f5445414d5f524553455256455f4e4f545f5052454d494e5445445f5945540000604482015260640161086a565b600d54826109146001546000540390565b61091e919061220b565b11156109615760405162461bcd60e51b815260206004820152601260248201527145786365656473206d617820737570706c7960701b604482015260640161086a565b6106be83836113e9565b6106be83838360405180602001604052806000815250610e46565b6000805481805b82811015610a0c57600081815260046020908152604091829020825160608101845290546001600160a01b0381168252600160a01b81046001600160401b031692820192909252600160e01b90910460ff16151591810182905290610a03578583036109fc5750949350505050565b6001909201915b5060010161098d565b506040516329c8c00760e21b815260040160405180910390fd5b6000610a3182611403565b5192915050565b60005b818110156106be576000610a66848484818110610a5a57610a5a612223565b90506020020135611403565b80519091506001600160a01b031633141580610a83575080604001515b15610ad05760405162461bcd60e51b815260206004820152601b60248201527f4e6f74206f776e6572206f7220616c7265616479206275726e65640000000000604482015260640161086a565b610af1848484818110610ae557610ae5612223565b9050602002013561151c565b5080610afc81612239565b915050610a3b565b6000610b108133611084565b60008211610b605760405162461bcd60e51b815260206004820152601f60248201527f5175616e74697479206d7573742062652067726561746572207468616e203000604482015260640161086a565b50600d55565b60006001600160a01b038216610b8f576040516323d3ad8160e21b815260040160405180910390fd5b506001600160a01b03166000908152600560205260409020546001600160401b031690565b6009546001600160a01b03163314610c0e5760405162461bcd60e51b815260206004820181905260248201527f4f776e61626c653a2063616c6c6572206973206e6f7420746865206f776e6572604482015260640161086a565b610c186000611698565b565b6000610c268133611084565b81516106be90600b906020850190611d7a565b60009182526008602090815260408084206001600160a01b0393909316845291905290205460ff1690565b60606003805461056f906121bb565b6000610c7f8133611084565b600f5460ff1615610cd25760405162461bcd60e51b815260206004820152601e60248201527f526573657276656420746f6b656e73206d696e74656420616c72656164790000604482015260640161086a565b600e5482610ce36001546000540390565b610ced919061220b565b1115610d3b5760405162461bcd60e51b815260206004820152601c60248201527f4d41585f52455345525645445f535550504c5920657863656564656400000000604482015260640161086a565b610d4533836113e9565b600e5460015460005403600f80549190921460ff199091161790555050565b6000610d708133611084565b8151610d8390600a906020850190611d7a565b5050600c805460ff1916600117905550565b336001600160a01b03831603610dbe5760405163b06307db60e01b815260040160405180910390fd5b3360008181526007602090815260408083206001600160a01b03871680855290835292819020805460ff191686151590811790915590519081529192917f17307eab39ab6107e8899845ad3d59bd9653f200f220920489ca2b5937696c31910160405180910390a35050565b6000610e368133611084565b50600c805460ff19166001179055565b610e518484846110e8565b610e5d848484846116ea565b610e7a576040516368d2bf6b60e11b815260040160405180910390fd5b50505050565b6060610e8b82610ffd565b610ea857604051630a14c4b560e41b815260040160405180910390fd5b61055a826117ed565b600082815260086020526040902060010154610ecd8133611084565b6106be8383611382565b6009546001600160a01b03163314610f315760405162461bcd60e51b815260206004820181905260248201527f4f776e61626c653a2063616c6c6572206973206e6f7420746865206f776e6572604482015260640161086a565b6001600160a01b038116610f965760405162461bcd60e51b815260206004820152602660248201527f4f776e61626c653a206e6577206f776e657220697320746865207a65726f206160448201526564647265737360d01b606482015260840161086a565b610f9f81611698565b50565b6000610fae8133611084565b61087d7f9f2df0fed2c77648de5860a4cc508cd0818c85b8b8a1ab4ceeef8d981c8956a6836118e8565b60006001600160e01b03198216637965db0b60e01b148061055a575061055a826118f2565b600080548210801561055a575050600090815260046020526040902054600160e01b900460ff161590565b60008281526006602052604080822080546001600160a01b0319166001600160a01b0387811691821790925591518593918516917f8c5be1e5ebec7d5bd14f71427d1e84f3dd0314c0f7b2291e5b200ac8c7c3b92591a4505050565b61108e8282610c39565b61087d576110a6816001600160a01b0316601461195d565b6110b183602061195d565b6040516020016110c292919061226e565b60408051601f198184030181529082905262461bcd60e51b825261086a91600401611e9e565b60006110f382611403565b80519091506000906001600160a01b0316336001600160a01b031614806111215750815161112190336104fb565b8061113c575033611131846105f2565b6001600160a01b0316145b90508061115c57604051632ce44b5f60e11b815260040160405180910390fd5b846001600160a01b031682600001516001600160a01b0316146111915760405162a1148160e81b815260040160405180910390fd5b6001600160a01b0384166111b857604051633a954ecd60e21b815260040160405180910390fd5b6111c86000848460000151611028565b6001600160a01b038581166000908152600560209081526040808320805467ffffffffffffffff198082166001600160401b0392831660001901831617909255898616808652838620805493841693831660019081018416949094179055898652600490945282852080546001600160e01b031916909417600160a01b4290921691909102179092559086018083529120549091166112b2576000548110156112b257825160008281526004602090815260409091208054918601516001600160401b0316600160a01b026001600160e01b03199092166001600160a01b03909316929092171790555b5082846001600160a01b0316866001600160a01b03167fddf252ad1be2c89b69c2b068fc378daa952ba7f163c4a11628f55a4df523b3ef60405160405180910390a45b5050505050565b6113068282610c39565b61087d5760008281526008602090815260408083206001600160a01b03851684529091529020805460ff1916600117905561133e3390565b6001600160a01b0316816001600160a01b0316837f2f8788117e7eff1d82e926ec794901d17c78024a50270940304540a733656f0d60405160405180910390a45050565b61138c8282610c39565b1561087d5760008281526008602090815260408083206001600160a01b0385168085529252808320805460ff1916905551339285917ff6391f5c32d9c69d2a47ea670b442974b53935d1edc7fd64eb21e047a839171b9190a45050565b61087d828260405180602001604052806000815250611aff565b604080516060810182526000808252602082018190529181018290529054829081101561150357600081815260046020908152604091829020825160608101845290546001600160a01b0381168252600160a01b81046001600160401b031692820192909252600160e01b90910460ff161515918101829052906115015780516001600160a01b031615611498579392505050565b5060001901600081815260046020908152604091829020825160608101845290546001600160a01b038116808352600160a01b82046001600160401b031693830193909352600160e01b900460ff16151592810192909252156114fc579392505050565b611498565b505b604051636f96cda160e11b815260040160405180910390fd5b600061152782611403565b90506115396000838360000151611028565b80516001600160a01b039081166000908152600560209081526040808320805467ffffffffffffffff1981166001600160401b0391821660001901821617909155855185168452818420805467ffffffffffffffff60801b198116600160801b9182900484166001908101851690920217909155865188865260049094528285208054600160e01b9588166001600160e01b031990911617600160a01b42909416939093029290921760ff60e01b19169390931790559085018083529120549091166116505760005481101561165057815160008281526004602090815260409091208054918501516001600160401b0316600160a01b026001600160e01b03199092166001600160a01b03909316929092171790555b50805160405183916000916001600160a01b03909116907fddf252ad1be2c89b69c2b068fc378daa952ba7f163c4a11628f55a4df523b3ef908390a450506001805481019055565b600980546001600160a01b038381166001600160a01b0319831681179093556040519116919082907f8be0079c531659141344cd1fd0a4f28419497f9722a3daafe3b4186f6b6457e090600090a35050565b60006001600160a01b0384163b156117e157604051630a85bd0160e11b81526001600160a01b0385169063150b7a029061172e9033908990889088906004016122e3565b6020604051808303816000875af1925050508015611769575060408051601f3d908101601f1916820190925261176691810190612320565b60015b6117c7573d808015611797576040519150601f19603f3d011682016040523d82523d6000602084013e61179c565b606091505b5080516000036117bf576040516368d2bf6b60e11b815260040160405180910390fd5b805181602001fd5b6001600160e01b031916630a85bd0160e11b1490506117e5565b5060015b949350505050565b600c5460609060ff1661188c57600b8054611807906121bb565b80601f0160208091040260200160405190810160405280929190818152602001828054611833906121bb565b80156118805780601f1061185557610100808354040283529160200191611880565b820191906000526020600020905b81548152906001019060200180831161186357829003601f168201915b50505050509050919050565b600a8054611899906121bb565b90506000036118b7576040518060200160405280600081525061055a565b600a6118c283611b0c565b6040516020016118d392919061233d565b60405160208183030381529060405292915050565b61087d82826112fc565b60006001600160e01b031982166380ac58cd60e01b148061192357506001600160e01b03198216635b5e139f60e01b145b8061193e57506001600160e01b0319821663780e9d6360e01b145b8061055a57506301ffc9a760e01b6001600160e01b031983161461055a565b6060600061196c8360026123e3565b61197790600261220b565b6001600160401b0381111561198e5761198e612007565b6040519080825280601f01601f1916602001820160405280156119b8576020820181803683370190505b509050600360fc1b816000815181106119d3576119d3612223565b60200101906001600160f81b031916908160001a905350600f60fb1b81600181518110611a0257611a02612223565b60200101906001600160f81b031916908160001a9053506000611a268460026123e3565b611a3190600161220b565b90505b6001811115611aa9576f181899199a1a9b1b9c1cb0b131b232b360811b85600f1660108110611a6557611a65612223565b1a60f81b828281518110611a7b57611a7b612223565b60200101906001600160f81b031916908160001a90535060049490941c93611aa281612402565b9050611a34565b508315611af85760405162461bcd60e51b815260206004820181905260248201527f537472696e67733a20686578206c656e67746820696e73756666696369656e74604482015260640161086a565b9392505050565b6106be8383836001611c0c565b606081600003611b335750506040805180820190915260018152600360fc1b602082015290565b8160005b8115611b5d5780611b4781612239565b9150611b569050600a8361242f565b9150611b37565b6000816001600160401b03811115611b7757611b77612007565b6040519080825280601f01601f191660200182016040528015611ba1576020820181803683370190505b5090505b84156117e557611bb6600183612443565b9150611bc3600a8661245a565b611bce90603061220b565b60f81b818381518110611be357611be3612223565b60200101906001600160f81b031916908160001a905350611c05600a8661242f565b9450611ba5565b6000546001600160a01b038516611c3557604051622e076360e81b815260040160405180910390fd5b83600003611c565760405163b562e8dd60e01b815260040160405180910390fd5b6001600160a01b038516600081815260056020908152604080832080546fffffffffffffffffffffffffffffffff1981166001600160401b038083168c0181169182176801000000000000000067ffffffffffffffff1990941690921783900481168c018116909202179091558584526004909252822080546001600160e01b031916909317600160a01b42909216919091021790915581905b85811015611d715760405182906001600160a01b038916906000907fddf252ad1be2c89b69c2b068fc378daa952ba7f163c4a11628f55a4df523b3ef908290a4838015611d475750611d4560008884886116ea565b155b15611d65576040516368d2bf6b60e11b815260040160405180910390fd5b60019182019101611cf0565b506000556112f5565b828054611d86906121bb565b90600052602060002090601f016020900481019282611da85760008555611dee565b82601f10611dc157805160ff1916838001178555611dee565b82800160010185558215611dee579182015b82811115611dee578251825591602001919060010190611dd3565b50611dfa929150611dfe565b5090565b5b80821115611dfa5760008155600101611dff565b6001600160e01b031981168114610f9f57600080fd5b600060208284031215611e3b57600080fd5b8135611af881611e13565b60005b83811015611e61578181015183820152602001611e49565b83811115610e7a5750506000910152565b60008151808452611e8a816020860160208601611e46565b601f01601f19169290920160200192915050565b602081526000611af86020830184611e72565b600060208284031215611ec357600080fd5b5035919050565b80356001600160a01b0381168114611ee157600080fd5b919050565b60008060408385031215611ef957600080fd5b611f0283611eca565b946020939093013593505050565b600080600060608486031215611f2557600080fd5b611f2e84611eca565b9250611f3c60208501611eca565b9150604084013590509250925092565b60008060408385031215611f5f57600080fd5b82359150611f6f60208401611eca565b90509250929050565b60008060208385031215611f8b57600080fd5b82356001600160401b0380821115611fa257600080fd5b818501915085601f830112611fb657600080fd5b813581811115611fc557600080fd5b8660208260051b8501011115611fda57600080fd5b60209290920196919550909350505050565b600060208284031215611ffe57600080fd5b611af882611eca565b634e487b7160e01b600052604160045260246000fd5b60006001600160401b038084111561203757612037612007565b604051601f8501601f19908116603f0116810190828211818310171561205f5761205f612007565b8160405280935085815286868601111561207857600080fd5b858560208301376000602087830101525050509392505050565b6000602082840312156120a457600080fd5b81356001600160401b038111156120ba57600080fd5b8201601f810184136120cb57600080fd5b6117e58482356020840161201d565b600080604083850312156120ed57600080fd5b6120f683611eca565b91506020830135801515811461210b57600080fd5b809150509250929050565b6000806000806080858703121561212c57600080fd5b61213585611eca565b935061214360208601611eca565b92506040850135915060608501356001600160401b0381111561216557600080fd5b8501601f8101871361217657600080fd5b6121858782356020840161201d565b91505092959194509250565b600080604083850312156121a457600080fd5b6121ad83611eca565b9150611f6f60208401611eca565b600181811c908216806121cf57607f821691505b6020821081036121ef57634e487b7160e01b600052602260045260246000fd5b50919050565b634e487b7160e01b600052601160045260246000fd5b6000821982111561221e5761221e6121f5565b500190565b634e487b7160e01b600052603260045260246000fd5b60006001820161224b5761224b6121f5565b5060010190565b60008151612264818560208601611e46565b9290920192915050565b7f416363657373436f6e74726f6c3a206163636f756e74200000000000000000008152600083516122a6816017850160208801611e46565b7001034b99036b4b9b9b4b733903937b6329607d1b60179184019182015283516122d7816028840160208801611e46565b01602801949350505050565b6001600160a01b038581168252841660208201526040810183905260806060820181905260009061231690830184611e72565b9695505050505050565b60006020828403121561233257600080fd5b8151611af881611e13565b600080845481600182811c91508083168061235957607f831692505b6020808410820361237857634e487b7160e01b86526022600452602486fd5b81801561238c576001811461239d576123ca565b60ff198616895284890196506123ca565b60008b81526020902060005b868110156123c25781548b8201529085019083016123a9565b505084890196505b5050505050506123da8185612252565b95945050505050565b60008160001904831182151516156123fd576123fd6121f5565b500290565b600081612411576124116121f5565b506000190190565b634e487b7160e01b600052601260045260246000fd5b60008261243e5761243e612419565b500490565b600082821015612455576124556121f5565b500390565b60008261246957612469612419565b50069056fea2646970667358221220696f8663b9042bf2ff5cfd9c209c0dcda30a3b4a22867fa8123c4d336b3c363364736f6c634300080d0033",
  "linkReferences": {},
  "deployedLinkReferences": {}
}