{
  "_format": "hh-sol-artifact-1",
  "contractName": "NFT",
  "sourceName": "contracts/NFT.sol",
  "abi": [
    {
      "inputs": [
        {
          "internalType": "string",
          "name": "tokenName",
          "type": "string"
        },
        {
          "internalType": "string",
          "name": "tokenSymbol",
          "type": "string"
        },
        {
          "internalType": "string",
          "name": "customBaseURI",
          "type": "string"
        },
        {
          "internalType": "string",
          "name": "notRevealedURI",
          "type": "string"
        },
        {
          "internalType": "uint256",
          "name": "maxSupply",
          "type": "uint256"
        },
        {
          "internalType": "uint256",
          "name": "maxReservedSupply",
          "type": "uint256"
        }
      ],
      "stateMutability": "nonpayable",
      "type": "constructor"
    },
    {
      "inputs": [],
      "name": "ApprovalCallerNotOwnerNorApproved",
      "type": "error"
    },
    {
      "inputs": [],
      "name": "ApprovalQueryForNonexistentToken",
      "type": "error"
    },
    {
      "inputs": [],
      "name": "ApprovalToCurrentOwner",
      "type": "error"
    },
    {
      "inputs": [],
      "name": "ApproveToCaller",
      "type": "error"
    },
    {
      "inputs": [],
      "name": "BalanceQueryForZeroAddress",
      "type": "error"
    },
    {
      "inputs": [],
      "name": "MintToZeroAddress",
      "type": "error"
    },
    {
      "inputs": [],
      "name": "MintZeroQuantity",
      "type": "error"
    },
    {
      "inputs": [],
      "name": "OwnerQueryForNonexistentToken",
      "type": "error"
    },
    {
      "inputs": [],
      "name": "TransferCallerNotOwnerNorApproved",
      "type": "error"
    },
    {
      "inputs": [],
      "name": "TransferFromIncorrectOwner",
      "type": "error"
    },
    {
      "inputs": [],
      "name": "TransferToNonERC721ReceiverImplementer",
      "type": "error"
    },
    {
      "inputs": [],
      "name": "TransferToZeroAddress",
      "type": "error"
    },
    {
      "inputs": [],
      "name": "URIQueryForNonexistentToken",
      "type": "error"
    },
    {
      "anonymous": false,
      "inputs": [
        {
          "indexed": true,
          "internalType": "address",
          "name": "owner",
          "type": "address"
        },
        {
          "indexed": true,
          "internalType": "address",
          "name": "approved",
          "type": "address"
        },
        {
          "indexed": true,
          "internalType": "uint256",
          "name": "tokenId",
          "type": "uint256"
        }
      ],
      "name": "Approval",
      "type": "event"
    },
    {
      "anonymous": false,
      "inputs": [
        {
          "indexed": true,
          "internalType": "address",
          "name": "owner",
          "type": "address"
        },
        {
          "indexed": true,
          "internalType": "address",
          "name": "operator",
          "type": "address"
        },
        {
          "indexed": false,
          "internalType": "bool",
          "name": "approved",
          "type": "bool"
        }
      ],
      "name": "ApprovalForAll",
      "type": "event"
    },
    {
      "anonymous": false,
      "inputs": [
        {
          "indexed": true,
          "internalType": "address",
          "name": "previousOwner",
          "type": "address"
        },
        {
          "indexed": true,
          "internalType": "address",
          "name": "newOwner",
          "type": "address"
        }
      ],
      "name": "OwnershipTransferred",
      "type": "event"
    },
    {
      "anonymous": false,
      "inputs": [
        {
          "indexed": true,
          "internalType": "bytes32",
          "name": "role",
          "type": "bytes32"
        },
        {
          "indexed": true,
          "internalType": "bytes32",
          "name": "previousAdminRole",
          "type": "bytes32"
        },
        {
          "indexed": true,
          "internalType": "bytes32",
          "name": "newAdminRole",
          "type": "bytes32"
        }
      ],
      "name": "RoleAdminChanged",
      "type": "event"
    },
    {
      "anonymous": false,
      "inputs": [
        {
          "indexed": true,
          "internalType": "bytes32",
          "name": "role",
          "type": "bytes32"
        },
        {
          "indexed": true,
          "internalType": "address",
          "name": "account",
          "type": "address"
        },
        {
          "indexed": true,
          "internalType": "address",
          "name": "sender",
          "type": "address"
        }
      ],
      "name": "RoleGranted",
      "type": "event"
    },
    {
      "anonymous": false,
      "inputs": [
        {
          "indexed": true,
          "internalType": "bytes32",
          "name": "role",
          "type": "bytes32"
        },
        {
          "indexed": true,
          "internalType": "address",
          "name": "account",
          "type": "address"
        },
        {
          "indexed": true,
          "internalType": "address",
          "name": "sender",
          "type": "address"
        }
      ],
      "name": "RoleRevoked",
      "type": "event"
    },
    {
      "anonymous": false,
      "inputs": [
        {
          "indexed": true,
          "internalType": "address",
          "name": "from",
          "type": "address"
        },
        {
          "indexed": true,
          "internalType": "address",
          "name": "to",
          "type": "address"
        },
        {
          "indexed": true,
          "internalType": "uint256",
          "name": "tokenId",
          "type": "uint256"
        }
      ],
      "name": "Transfer",
      "type": "event"
    },
    {
      "inputs": [],
      "name": "DEFAULT_ADMIN_ROLE",
      "outputs": [
        {
          "internalType": "bytes32",
          "name": "",
          "type": "bytes32"
        }
      ],
      "stateMutability": "view",
      "type": "function"
    },
    {
      "inputs": [],
      "name": "MAX_RESERVED_SUPPLY",
      "outputs": [
        {
          "internalType": "uint256",
          "name": "",
          "type": "uint256"
        }
      ],
      "stateMutability": "view",
      "type": "function"
    },
    {
      "inputs": [],
      "name": "MAX_SUPPLY",
      "outputs": [
        {
          "internalType": "uint256",
          "name": "",
          "type": "uint256"
        }
      ],
      "stateMutability": "view",
      "type": "function"
    },
    {
      "inputs": [],
      "name": "MINTER_ROLE",
      "outputs": [
        {
          "internalType": "bytes32",
          "name": "",
          "type": "bytes32"
        }
      ],
      "stateMutability": "view",
      "type": "function"
    },
    {
      "inputs": [
        {
          "internalType": "address",
          "name": "to",
          "type": "address"
        },
        {
          "internalType": "uint256",
          "name": "tokenId",
          "type": "uint256"
        }
      ],
      "name": "approve",
      "outputs": [],
      "stateMutability": "nonpayable",
      "type": "function"
    },
    {
      "inputs": [
        {
          "internalType": "address",
          "name": "owner",
          "type": "address"
        }
      ],
      "name": "balanceOf",
      "outputs": [
        {
          "internalType": "uint256",
          "name": "",
          "type": "uint256"
        }
      ],
      "stateMutability": "view",
      "type": "function"
    },
    {
      "inputs": [
        {
          "internalType": "uint256[]",
          "name": "tokenIds",
          "type": "uint256[]"
        }
      ],
      "name": "burnTokens",
      "outputs": [],
      "stateMutability": "nonpayable",
      "type": "function"
    },
    {
      "inputs": [
        {
          "internalType": "uint256",
          "name": "tokenId",
          "type": "uint256"
        }
      ],
      "name": "getApproved",
      "outputs": [
        {
          "internalType": "address",
          "name": "",
          "type": "address"
        }
      ],
      "stateMutability": "view",
      "type": "function"
    },
    {
      "inputs": [
        {
          "internalType": "bytes32",
          "name": "role",
          "type": "bytes32"
        }
      ],
      "name": "getRoleAdmin",
      "outputs": [
        {
          "internalType": "bytes32",
          "name": "",
          "type": "bytes32"
        }
      ],
      "stateMutability": "view",
      "type": "function"
    },
    {
      "inputs": [
        {
          "internalType": "bytes32",
          "name": "role",
          "type": "bytes32"
        },
        {
          "internalType": "address",
          "name": "account",
          "type": "address"
        }
      ],
      "name": "grantRole",
      "outputs": [],
      "stateMutability": "nonpayable",
      "type": "function"
    },
    {
      "inputs": [
        {
          "internalType": "bytes32",
          "name": "role",
          "type": "bytes32"
        },
        {
          "internalType": "address",
          "name": "account",
          "type": "address"
        }
      ],
      "name": "hasRole",
      "outputs": [
        {
          "internalType": "bool",
          "name": "",
          "type": "bool"
        }
      ],
      "stateMutability": "view",
      "type": "function"
    },
    {
      "inputs": [
        {
          "internalType": "uint256",
          "name": "quantity",
          "type": "uint256"
        }
      ],
      "name": "increaseMaxSupply",
      "outputs": [],
      "stateMutability": "nonpayable",
      "type": "function"
    },
    {
      "inputs": [
        {
          "internalType": "address",
          "name": "owner",
          "type": "address"
        },
        {
          "internalType": "address",
          "name": "operator",
          "type": "address"
        }
      ],
      "name": "isApprovedForAll",
      "outputs": [
        {
          "internalType": "bool",
          "name": "",
          "type": "bool"
        }
      ],
      "stateMutability": "view",
      "type": "function"
    },
    {
      "inputs": [
        {
          "internalType": "address",
          "name": "recipient",
          "type": "address"
        },
        {
          "internalType": "uint256",
          "name": "quantity",
          "type": "uint256"
        }
      ],
      "name": "mint",
      "outputs": [],
      "stateMutability": "nonpayable",
      "type": "function"
    },
    {
      "inputs": [],
      "name": "name",
      "outputs": [
        {
          "internalType": "string",
          "name": "",
          "type": "string"
        }
      ],
      "stateMutability": "view",
      "type": "function"
    },
    {
      "inputs": [],
      "name": "owner",
      "outputs": [
        {
          "internalType": "address",
          "name": "",
          "type": "address"
        }
      ],
      "stateMutability": "view",
      "type": "function"
    },
    {
      "inputs": [
        {
          "internalType": "uint256",
          "name": "tokenId",
          "type": "uint256"
        }
      ],
      "name": "ownerOf",
      "outputs": [
        {
          "internalType": "address",
          "name": "",
          "type": "address"
        }
      ],
      "stateMutability": "view",
      "type": "function"
    },
    {
      "inputs": [
        {
          "internalType": "uint256",
          "name": "quantity",
          "type": "uint256"
        }
      ],
      "name": "premint",
      "outputs": [],
      "stateMutability": "nonpayable",
      "type": "function"
    },
    {
      "inputs": [],
      "name": "preminted",
      "outputs": [
        {
          "internalType": "bool",
          "name": "",
          "type": "bool"
        }
      ],
      "stateMutability": "view",
      "type": "function"
    },
    {
      "inputs": [],
      "name": "renounceOwnership",
      "outputs": [],
      "stateMutability": "nonpayable",
      "type": "function"
    },
    {
      "inputs": [
        {
          "internalType": "bytes32",
          "name": "role",
          "type": "bytes32"
        },
        {
          "internalType": "address",
          "name": "account",
          "type": "address"
        }
      ],
      "name": "renounceRole",
      "outputs": [],
      "stateMutability": "nonpayable",
      "type": "function"
    },
    {
      "inputs": [],
      "name": "reveal",
      "outputs": [],
      "stateMutability": "nonpayable",
      "type": "function"
    },
    {
      "inputs": [],
      "name": "revealed",
      "outputs": [
        {
          "internalType": "bool",
          "name": "",
          "type": "bool"
        }
      ],
      "stateMutability": "view",
      "type": "function"
    },
    {
      "inputs": [
        {
          "internalType": "bytes32",
          "name": "role",
          "type": "bytes32"
        },
        {
          "internalType": "address",
          "name": "account",
          "type": "address"
        }
      ],
      "name": "revokeRole",
      "outputs": [],
      "stateMutability": "nonpayable",
      "type": "function"
    },
    {
      "inputs": [
        {
          "internalType": "address",
          "name": "from",
          "type": "address"
        },
        {
          "internalType": "address",
          "name": "to",
          "type": "address"
        },
        {
          "internalType": "uint256",
          "name": "tokenId",
          "type": "uint256"
        }
      ],
      "name": "safeTransferFrom",
      "outputs": [],
      "stateMutability": "nonpayable",
      "type": "function"
    },
    {
      "inputs": [
        {
          "internalType": "address",
          "name": "from",
          "type": "address"
        },
        {
          "internalType": "address",
          "name": "to",
          "type": "address"
        },
        {
          "internalType": "uint256",
          "name": "tokenId",
          "type": "uint256"
        },
        {
          "internalType": "bytes",
          "name": "_data",
          "type": "bytes"
        }
      ],
      "name": "safeTransferFrom",
      "outputs": [],
      "stateMutability": "nonpayable",
      "type": "function"
    },
    {
      "inputs": [
        {
          "internalType": "address",
          "name": "operator",
          "type": "address"
        },
        {
          "internalType": "bool",
          "name": "approved",
          "type": "bool"
        }
      ],
      "name": "setApprovalForAll",
      "outputs": [],
      "stateMutability": "nonpayable",
      "type": "function"
    },
    {
      "inputs": [
        {
          "internalType": "string",
          "name": "uri",
          "type": "string"
        }
      ],
      "name": "setBaseUri",
      "outputs": [],
      "stateMutability": "nonpayable",
      "type": "function"
    },
    {
      "inputs": [
        {
          "internalType": "address",
          "name": "mintingRouter",
          "type": "address"
        }
      ],
      "name": "setMinter",
      "outputs": [],
      "stateMutability": "nonpayable",
      "type": "function"
    },
    {
      "inputs": [
        {
          "internalType": "string",
          "name": "uri",
          "type": "string"
        }
      ],
      "name": "setUnrevealedUri",
      "outputs": [],
      "stateMutability": "nonpayable",
      "type": "function"
    },
    {
      "inputs": [
        {
          "internalType": "bytes4",
          "name": "interfaceId",
          "type": "bytes4"
        }
      ],
      "name": "supportsInterface",
      "outputs": [
        {
          "internalType": "bool",
          "name": "",
          "type": "bool"
        }
      ],
      "stateMutability": "view",
      "type": "function"
    },
    {
      "inputs": [],
      "name": "symbol",
      "outputs": [
        {
          "internalType": "string",
          "name": "",
          "type": "string"
        }
      ],
      "stateMutability": "view",
      "type": "function"
    },
    {
      "inputs": [
        {
          "internalType": "uint256",
          "name": "tokenId",
          "type": "uint256"
        }
      ],
      "name": "tokenURI",
      "outputs": [
        {
          "internalType": "string",
          "name": "",
          "type": "string"
        }
      ],
      "stateMutability": "view",
      "type": "function"
    },
    {
      "inputs": [],
      "name": "totalSupply",
      "outputs": [
        {
          "internalType": "uint256",
          "name": "",
          "type": "uint256"
        }
      ],
      "stateMutability": "view",
      "type": "function"
    },
    {
      "inputs": [
        {
          "internalType": "address",
          "name": "from",
          "type": "address"
        },
        {
          "internalType": "address",
          "name": "to",
          "type": "address"
        },
        {
          "internalType": "uint256",
          "name": "tokenId",
          "type": "uint256"
        }
      ],
      "name": "transferFrom",
      "outputs": [],
      "stateMutability": "nonpayable",
      "type": "function"
    },
    {
      "inputs": [
        {
          "internalType": "address",
          "name": "newOwner",
          "type": "address"
        }
      ],
      "name": "transferOwnership",
      "outputs": [],
      "stateMutability": "nonpayable",
      "type": "function"
    },
    {
      "inputs": [],
      "name": "unreveal",
      "outputs": [],
      "stateMutability": "nonpayable",
      "type": "function"
    }
  ],
  "bytecode": "0x6080604052600c805460ff19908116909155600f805490911690553480156200002757600080fd5b50604051620027fe380380620027fe8339810160408190526200004a916200036a565b8383878781600290805190602001906200006692919062000211565b5080516200007c90600390602084019062000211565b50505062000099620000936200011660201b60201c565b6200011a565b8151620000ae90600a90602085019062000211565b508051620000c490600b90602084019062000211565b50620000d6915060009050336200016c565b620001027f9f2df0fed2c77648de5860a4cc508cd0818c85b8b8a1ab4ceeef8d981c8956a6336200016c565b600d91909155600e55506200048392505050565b3390565b600980546001600160a01b038381166001600160a01b0319831681179093556040519116919082907f8be0079c531659141344cd1fd0a4f28419497f9722a3daafe3b4186f6b6457e090600090a35050565b60008281526008602090815260408083206001600160a01b038516845290915290205460ff166200020d5760008281526008602090815260408083206001600160a01b03851684529091529020805460ff19166001179055620001cc3390565b6001600160a01b0316816001600160a01b0316837f2f8788117e7eff1d82e926ec794901d17c78024a50270940304540a733656f0d60405160405180910390a45b5050565b8280546200021f9062000430565b90600052602060002090601f0160209004810192826200024357600085556200028e565b82601f106200025e57805160ff19168380011785556200028e565b828001600101855582156200028e579182015b828111156200028e57825182559160200191906001019062000271565b506200029c929150620002a0565b5090565b5b808211156200029c5760008155600101620002a1565b600082601f830112620002c8578081fd5b81516001600160401b0380821115620002e557620002e56200046d565b604051601f8301601f19908116603f011681019082821181831017156200031057620003106200046d565b816040528381526020925086838588010111156200032c578485fd5b8491505b838210156200034f578582018301518183018401529082019062000330565b838211156200036057848385830101525b9695505050505050565b60008060008060008060c0878903121562000383578182fd5b86516001600160401b03808211156200039a578384fd5b620003a88a838b01620002b7565b97506020890151915080821115620003be578384fd5b620003cc8a838b01620002b7565b96506040890151915080821115620003e2578384fd5b620003f08a838b01620002b7565b9550606089015191508082111562000406578384fd5b506200041589828a01620002b7565b9350506080870151915060a087015190509295509295509295565b600181811c908216806200044557607f821691505b602082108114156200046757634e487b7160e01b600052602260045260246000fd5b50919050565b634e487b7160e01b600052604160045260246000fd5b61236b80620004936000396000f3fe608060405234801561001057600080fd5b50600436106102275760003560e01c8063715018a611610130578063a22cb465116100b8578063d547741f1161007c578063d547741f14610495578063dfe0ce18146104a8578063e985e9c5146104b1578063f2fde38b146104ed578063fca3b5aa1461050057600080fd5b8063a22cb4651461042d578063a475b5dd14610440578063b88d4fde14610448578063c87b56dd1461045b578063d53913931461046e57600080fd5b806391d14854116100ff57806391d14854146103e457806395d89b41146103f75780639d5aef30146103ff578063a0bcfc7f14610412578063a217fddf1461042557600080fd5b8063715018a6146103a55780638da5cb5b146103ad57806390edbfee146103be57806390fb5fb9146103d157600080fd5b806332cb6b0c116101b357806342842e0e1161018257806342842e0e1461034c578063518302271461035f5780636352211e1461036c57806367a531731461037f57806370a082311461039257600080fd5b806332cb6b0c14610310578063357b794e1461031957806336568abe1461032657806340c10f191461033957600080fd5b8063158756b9116101fa578063158756b9146102a957806318160ddd146102b157806323b872dd146102c7578063248a9ca3146102da5780632f2ff15d146102fd57600080fd5b806301ffc9a71461022c57806306fdde0314610254578063081812fc14610269578063095ea7b314610294575b600080fd5b61023f61023a366004611f9e565b610513565b60405190151581526020015b60405180910390f35b61025c610524565b60405161024b91906121bb565b61027c610277366004611f64565b6105b6565b6040516001600160a01b03909116815260200161024b565b6102a76102a2366004611ecc565b6105fa565b005b6102a7610688565b600154600054035b60405190815260200161024b565b6102a76102d5366004611ddf565b6106a1565b6102b96102e8366004611f64565b60009081526008602052604090206001015490565b6102a761030b366004611f7c565b6106ac565b6102b9600d5481565b600f5461023f9060ff1681565b6102a7610334366004611f7c565b6106d2565b6102a7610347366004611ecc565b610755565b6102a761035a366004611ddf565b61083f565b600c5461023f9060ff1681565b61027c61037a366004611f64565b61085a565b6102a761038d366004611ef5565b61086c565b6102b96103a0366004611d93565b61097a565b6102a76109c8565b6009546001600160a01b031661027c565b6102a76103cc366004611f64565b610a2e565b6102a76103df366004611fd6565b610aa5565b61023f6103f2366004611f7c565b610ac4565b61025c610aef565b6102a761040d366004611f64565b610afe565b6102a7610420366004611fd6565b610c18565b6102b9600081565b6102a761043b366004611e92565b610c37565b6102a7610ccd565b6102a7610456366004611e1a565b610ce9565b61025c610469366004611f64565b610d23565b6102b97f9f2df0fed2c77648de5860a4cc508cd0818c85b8b8a1ab4ceeef8d981c8956a681565b6102a76104a3366004611f7c565b610d54565b6102b9600e5481565b61023f6104bf366004611dad565b6001600160a01b03918216600090815260076020908152604080832093909416825291909152205460ff1690565b6102a76104fb366004611d93565b610d7a565b6102a761050e366004611d93565b610e45565b600061051e82610e7b565b92915050565b60606002805461053390612273565b80601f016020809104026020016040519081016040528092919081815260200182805461055f90612273565b80156105ac5780601f10610581576101008083540402835291602001916105ac565b820191906000526020600020905b81548152906001019060200180831161058f57829003601f168201915b5050505050905090565b60006105c182610ea0565b6105de576040516333d1c03960e21b815260040160405180910390fd5b506000908152600660205260409020546001600160a01b031690565b60006106058261085a565b9050806001600160a01b0316836001600160a01b0316141561063a5760405163250fdee360e21b815260040160405180910390fd5b336001600160a01b0382161480159061065a575061065881336104bf565b155b15610678576040516367d9dca160e11b815260040160405180910390fd5b610683838383610ecb565b505050565b60006106948133610f27565b50600c805460ff19169055565b610683838383610f8b565b6000828152600860205260409020600101546106c88133610f27565b610683838361119f565b6001600160a01b03811633146107475760405162461bcd60e51b815260206004820152602f60248201527f416363657373436f6e74726f6c3a2063616e206f6e6c792072656e6f756e636560448201526e103937b632b9903337b91039b2b63360891b60648201526084015b60405180910390fd5b6107518282611225565b5050565b7f9f2df0fed2c77648de5860a4cc508cd0818c85b8b8a1ab4ceeef8d981c8956a66107808133610f27565b600f5460ff1615156001146107d75760405162461bcd60e51b815260206004820152601e60248201527f5445414d5f524553455256455f4e4f545f5052454d494e5445445f5945540000604482015260640161073e565b600d54826107e86001546000540390565b6107f291906121ce565b11156108355760405162461bcd60e51b815260206004820152601260248201527145786365656473206d617820737570706c7960701b604482015260640161073e565b610683838361128c565b61068383838360405180602001604052806000815250610ce9565b6000610865826112a6565b5192915050565b60005b818110156106835760006108a884848481811061089c57634e487b7160e01b600052603260045260246000fd5b905060200201356112a6565b80519091506001600160a01b0316331415806108c5575080604001515b156109385760405162461bcd60e51b815260206004820152603b60248201527f43616c6c6572206973206e6f74206f776e6572206f662074686520746f6b656e60448201527f206f7220746f6b656e20697320616c7265616479206275726e65640000000000606482015260840161073e565b61096784848481811061095b57634e487b7160e01b600052603260045260246000fd5b905060200201356113bf565b5080610972816122ae565b91505061086f565b60006001600160a01b0382166109a3576040516323d3ad8160e21b815260040160405180910390fd5b506001600160a01b03166000908152600560205260409020546001600160401b031690565b6009546001600160a01b03163314610a225760405162461bcd60e51b815260206004820181905260248201527f4f776e61626c653a2063616c6c6572206973206e6f7420746865206f776e6572604482015260640161073e565b610a2c600061153b565b565b6000610a3a8133610f27565b60008211610a8a5760405162461bcd60e51b815260206004820152601f60248201527f5175616e74697479206d7573742062652067726561746572207468616e203000604482015260640161073e565b81600d6000828254610a9c91906121ce565b90915550505050565b6000610ab18133610f27565b815161068390600b906020850190611c69565b60009182526008602090815260408084206001600160a01b0393909316845291905290205460ff1690565b60606003805461053390612273565b6000610b0a8133610f27565b600f5460ff1615610b6d5760405162461bcd60e51b815260206004820152602760248201527f416c6c20726573657276656420746f6b656e73207765726520616c7265616479604482015266081b5a5b9d195960ca1b606482015260840161073e565b600e5482610b7e6001546000540390565b610b8891906121ce565b1115610bef5760405162461bcd60e51b815260206004820152603060248201527f546f74616c206d696e74207175616e74697479206578636565646564204d415860448201526f5f52455345525645445f535550504c5960801b606482015260840161073e565b610bf9338361128c565b600e5460015460005403600f80549190921460ff199091161790555050565b6000610c248133610f27565b815161068390600a906020850190611c69565b6001600160a01b038216331415610c615760405163b06307db60e01b815260040160405180910390fd5b3360008181526007602090815260408083206001600160a01b03871680855290835292819020805460ff191686151590811790915590519081529192917f17307eab39ab6107e8899845ad3d59bd9653f200f220920489ca2b5937696c31910160405180910390a35050565b6000610cd98133610f27565b50600c805460ff19166001179055565b610cf4848484610f8b565b610d008484848461158d565b610d1d576040516368d2bf6b60e11b815260040160405180910390fd5b50505050565b6060610d2e82610ea0565b610d4b57604051630a14c4b560e41b815260040160405180910390fd5b61051e8261169c565b600082815260086020526040902060010154610d708133610f27565b6106838383611225565b6009546001600160a01b03163314610dd45760405162461bcd60e51b815260206004820181905260248201527f4f776e61626c653a2063616c6c6572206973206e6f7420746865206f776e6572604482015260640161073e565b6001600160a01b038116610e395760405162461bcd60e51b815260206004820152602660248201527f4f776e61626c653a206e6577206f776e657220697320746865207a65726f206160448201526564647265737360d01b606482015260840161073e565b610e428161153b565b50565b6000610e518133610f27565b6107517f9f2df0fed2c77648de5860a4cc508cd0818c85b8b8a1ab4ceeef8d981c8956a683611796565b60006001600160e01b03198216637965db0b60e01b148061051e575061051e826117a0565b600080548210801561051e575050600090815260046020526040902054600160e01b900460ff161590565b60008281526006602052604080822080546001600160a01b0319166001600160a01b0387811691821790925591518593918516917f8c5be1e5ebec7d5bd14f71427d1e84f3dd0314c0f7b2291e5b200ac8c7c3b92591a4505050565b610f318282610ac4565b61075157610f49816001600160a01b031660146117f0565b610f548360206117f0565b604051602001610f65929190612109565b60408051601f198184030181529082905262461bcd60e51b825261073e916004016121bb565b6000610f96826112a6565b80519091506000906001600160a01b0316336001600160a01b03161480610fc457508151610fc490336104bf565b80610fdf575033610fd4846105b6565b6001600160a01b0316145b905080610fff57604051632ce44b5f60e11b815260040160405180910390fd5b846001600160a01b031682600001516001600160a01b0316146110345760405162a1148160e81b815260040160405180910390fd5b6001600160a01b03841661105b57604051633a954ecd60e21b815260040160405180910390fd5b61106b6000848460000151610ecb565b6001600160a01b038581166000908152600560209081526040808320805467ffffffffffffffff198082166001600160401b0392831660001901831617909255898616808652838620805493841693831660019081018416949094179055898652600490945282852080546001600160e01b031916909417600160a01b4290921691909102179092559086018083529120549091166111555760005481101561115557825160008281526004602090815260409091208054918601516001600160401b0316600160a01b026001600160e01b03199092166001600160a01b03909316929092171790555b5082846001600160a01b0316866001600160a01b03167fddf252ad1be2c89b69c2b068fc378daa952ba7f163c4a11628f55a4df523b3ef60405160405180910390a45b5050505050565b6111a98282610ac4565b6107515760008281526008602090815260408083206001600160a01b03851684529091529020805460ff191660011790556111e13390565b6001600160a01b0316816001600160a01b0316837f2f8788117e7eff1d82e926ec794901d17c78024a50270940304540a733656f0d60405160405180910390a45050565b61122f8282610ac4565b156107515760008281526008602090815260408083206001600160a01b0385168085529252808320805460ff1916905551339285917ff6391f5c32d9c69d2a47ea670b442974b53935d1edc7fd64eb21e047a839171b9190a45050565b6107518282604051806020016040528060008152506119d8565b60408051606081018252600080825260208201819052918101829052905482908110156113a657600081815260046020908152604091829020825160608101845290546001600160a01b0381168252600160a01b81046001600160401b031692820192909252600160e01b90910460ff161515918101829052906113a45780516001600160a01b03161561133b579392505050565b5060001901600081815260046020908152604091829020825160608101845290546001600160a01b038116808352600160a01b82046001600160401b031693830193909352600160e01b900460ff161515928101929092521561139f579392505050565b61133b565b505b604051636f96cda160e11b815260040160405180910390fd5b60006113ca826112a6565b90506113dc6000838360000151610ecb565b80516001600160a01b039081166000908152600560209081526040808320805467ffffffffffffffff1981166001600160401b0391821660001901821617909155855185168452818420805467ffffffffffffffff60801b198116600160801b9182900484166001908101851690920217909155865188865260049094528285208054600160e01b9588166001600160e01b031990911617600160a01b42909416939093029290921760ff60e01b19169390931790559085018083529120549091166114f3576000548110156114f357815160008281526004602090815260409091208054918501516001600160401b0316600160a01b026001600160e01b03199092166001600160a01b03909316929092171790555b50805160405183916000916001600160a01b03909116907fddf252ad1be2c89b69c2b068fc378daa952ba7f163c4a11628f55a4df523b3ef908390a450506001805481019055565b600980546001600160a01b038381166001600160a01b0319831681179093556040519116919082907f8be0079c531659141344cd1fd0a4f28419497f9722a3daafe3b4186f6b6457e090600090a35050565b60006001600160a01b0384163b1561169057604051630a85bd0160e11b81526001600160a01b0385169063150b7a02906115d190339089908890889060040161217e565b602060405180830381600087803b1580156115eb57600080fd5b505af192505050801561161b575060408051601f3d908101601f1916820190925261161891810190611fba565b60015b611676573d808015611649576040519150601f19603f3d011682016040523d82523d6000602084013e61164e565b606091505b50805161166e576040516368d2bf6b60e11b815260040160405180910390fd5b805181602001fd5b6001600160e01b031916630a85bd0160e11b149050611694565b5060015b949350505050565b600c5460609060ff1661173b57600b80546116b690612273565b80601f01602080910402602001604051908101604052809291908181526020018280546116e290612273565b801561172f5780601f106117045761010080835404028352916020019161172f565b820191906000526020600020905b81548152906001019060200180831161171257829003601f168201915b50505050509050919050565b600a805461174890612273565b15159050611765576040518060200160405280600081525061051e565b600a611770836119e5565b604051602001611781929190612063565b60405160208183030381529060405292915050565b610751828261119f565b60006001600160e01b031982166380ac58cd60e01b14806117d157506001600160e01b03198216635b5e139f60e01b145b8061051e57506301ffc9a760e01b6001600160e01b031983161461051e565b606060006117ff8360026121fa565b61180a9060026121ce565b6001600160401b0381111561182f57634e487b7160e01b600052604160045260246000fd5b6040519080825280601f01601f191660200182016040528015611859576020820181803683370190505b509050600360fc1b8160008151811061188257634e487b7160e01b600052603260045260246000fd5b60200101906001600160f81b031916908160001a905350600f60fb1b816001815181106118bf57634e487b7160e01b600052603260045260246000fd5b60200101906001600160f81b031916908160001a90535060006118e38460026121fa565b6118ee9060016121ce565b90505b6001811115611982576f181899199a1a9b1b9c1cb0b131b232b360811b85600f166010811061193057634e487b7160e01b600052603260045260246000fd5b1a60f81b82828151811061195457634e487b7160e01b600052603260045260246000fd5b60200101906001600160f81b031916908160001a90535060049490941c9361197b8161225c565b90506118f1565b5083156119d15760405162461bcd60e51b815260206004820181905260248201527f537472696e67733a20686578206c656e67746820696e73756666696369656e74604482015260640161073e565b9392505050565b6106838383836001611afe565b606081611a095750506040805180820190915260018152600360fc1b602082015290565b8160005b8115611a335780611a1d816122ae565b9150611a2c9050600a836121e6565b9150611a0d565b6000816001600160401b03811115611a5b57634e487b7160e01b600052604160045260246000fd5b6040519080825280601f01601f191660200182016040528015611a85576020820181803683370190505b5090505b841561169457611a9a600183612219565b9150611aa7600a866122c9565b611ab29060306121ce565b60f81b818381518110611ad557634e487b7160e01b600052603260045260246000fd5b60200101906001600160f81b031916908160001a905350611af7600a866121e6565b9450611a89565b6000546001600160a01b038516611b2757604051622e076360e81b815260040160405180910390fd5b83611b455760405163b562e8dd60e01b815260040160405180910390fd5b6001600160a01b038516600081815260056020908152604080832080546fffffffffffffffffffffffffffffffff1981166001600160401b038083168c0181169182176801000000000000000067ffffffffffffffff1990941690921783900481168c018116909202179091558584526004909252822080546001600160e01b031916909317600160a01b42909216919091021790915581905b85811015611c605760405182906001600160a01b038916906000907fddf252ad1be2c89b69c2b068fc378daa952ba7f163c4a11628f55a4df523b3ef908290a4838015611c365750611c34600088848861158d565b155b15611c54576040516368d2bf6b60e11b815260040160405180910390fd5b60019182019101611bdf565b50600055611198565b828054611c7590612273565b90600052602060002090601f016020900481019282611c975760008555611cdd565b82601f10611cb057805160ff1916838001178555611cdd565b82800160010185558215611cdd579182015b82811115611cdd578251825591602001919060010190611cc2565b50611ce9929150611ced565b5090565b5b80821115611ce95760008155600101611cee565b60006001600160401b0380841115611d1c57611d1c612309565b604051601f8501601f19908116603f01168101908282118183101715611d4457611d44612309565b81604052809350858152868686011115611d5d57600080fd5b858560208301376000602087830101525050509392505050565b80356001600160a01b0381168114611d8e57600080fd5b919050565b600060208284031215611da4578081fd5b6119d182611d77565b60008060408385031215611dbf578081fd5b611dc883611d77565b9150611dd660208401611d77565b90509250929050565b600080600060608486031215611df3578081fd5b611dfc84611d77565b9250611e0a60208501611d77565b9150604084013590509250925092565b60008060008060808587031215611e2f578081fd5b611e3885611d77565b9350611e4660208601611d77565b92506040850135915060608501356001600160401b03811115611e67578182fd5b8501601f81018713611e77578182fd5b611e8687823560208401611d02565b91505092959194509250565b60008060408385031215611ea4578182fd5b611ead83611d77565b915060208301358015158114611ec1578182fd5b809150509250929050565b60008060408385031215611ede578182fd5b611ee783611d77565b946020939093013593505050565b60008060208385031215611f07578182fd5b82356001600160401b0380821115611f1d578384fd5b818501915085601f830112611f30578384fd5b813581811115611f3e578485fd5b8660208260051b8501011115611f52578485fd5b60209290920196919550909350505050565b600060208284031215611f75578081fd5b5035919050565b60008060408385031215611f8e578182fd5b82359150611dd660208401611d77565b600060208284031215611faf578081fd5b81356119d18161231f565b600060208284031215611fcb578081fd5b81516119d18161231f565b600060208284031215611fe7578081fd5b81356001600160401b03811115611ffc578182fd5b8201601f8101841361200c578182fd5b61169484823560208401611d02565b60008151808452612033816020860160208601612230565b601f01601f19169290920160200192915050565b60008151612059818560208601612230565b9290920192915050565b600080845482600182811c91508083168061207f57607f831692505b602080841082141561209f57634e487b7160e01b87526022600452602487fd5b8180156120b357600181146120c4576120f0565b60ff198616895284890196506120f0565b60008b815260209020885b868110156120e85781548b8201529085019083016120cf565b505084890196505b5050505050506121008185612047565b95945050505050565b7f416363657373436f6e74726f6c3a206163636f756e7420000000000000000000815260008351612141816017850160208801612230565b7001034b99036b4b9b9b4b733903937b6329607d1b6017918401918201528351612172816028840160208801612230565b01602801949350505050565b6001600160a01b03858116825284166020820152604081018390526080606082018190526000906121b19083018461201b565b9695505050505050565b6020815260006119d1602083018461201b565b600082198211156121e1576121e16122dd565b500190565b6000826121f5576121f56122f3565b500490565b6000816000190483118215151615612214576122146122dd565b500290565b60008282101561222b5761222b6122dd565b500390565b60005b8381101561224b578181015183820152602001612233565b83811115610d1d5750506000910152565b60008161226b5761226b6122dd565b506000190190565b600181811c9082168061228757607f821691505b602082108114156122a857634e487b7160e01b600052602260045260246000fd5b50919050565b60006000198214156122c2576122c26122dd565b5060010190565b6000826122d8576122d86122f3565b500690565b634e487b7160e01b600052601160045260246000fd5b634e487b7160e01b600052601260045260246000fd5b634e487b7160e01b600052604160045260246000fd5b6001600160e01b031981168114610e4257600080fdfea264697066735822122015ce894d30c6c03bef34b68a7ad681c7f6fee1701ff18ef22a4c76bf3577eb1e64736f6c63430008040033",
  "linkReferences": {},
  "deployedLinkReferences": {}
}