{
  "_format": "hh-sol-artifact-1",
  "contractName": "NFT",
  "sourceName": "contracts/NFT.sol",
  "abi": [
    {
      "inputs": [
        {
          "internalType": "string",
          "name": "tokenName",
          "type": "string"
        },
        {
          "internalType": "string",
          "name": "tokenSymbol",
          "type": "string"
        },
        {
          "internalType": "string",
          "name": "customBaseURI",
          "type": "string"
        },
        {
          "internalType": "string",
          "name": "notRevealedURI",
          "type": "string"
        },
        {
          "internalType": "uint256",
          "name": "maxSupply",
          "type": "uint256"
        },
        {
          "internalType": "uint256",
          "name": "maxReservedSupply",
          "type": "uint256"
        }
      ],
      "stateMutability": "nonpayable",
      "type": "constructor"
    },
    {
      "inputs": [],
      "name": "ApprovalCallerNotOwnerNorApproved",
      "type": "error"
    },
    {
      "inputs": [],
      "name": "ApprovalQueryForNonexistentToken",
      "type": "error"
    },
    {
      "inputs": [],
      "name": "ApprovalToCurrentOwner",
      "type": "error"
    },
    {
      "inputs": [],
      "name": "ApproveToCaller",
      "type": "error"
    },
    {
      "inputs": [],
      "name": "BalanceQueryForZeroAddress",
      "type": "error"
    },
    {
      "inputs": [],
      "name": "MintToZeroAddress",
      "type": "error"
    },
    {
      "inputs": [],
      "name": "MintZeroQuantity",
      "type": "error"
    },
    {
      "inputs": [],
      "name": "OwnerIndexOutOfBounds",
      "type": "error"
    },
    {
      "inputs": [],
      "name": "OwnerQueryForNonexistentToken",
      "type": "error"
    },
    {
      "inputs": [],
      "name": "TokenIndexOutOfBounds",
      "type": "error"
    },
    {
      "inputs": [],
      "name": "TransferCallerNotOwnerNorApproved",
      "type": "error"
    },
    {
      "inputs": [],
      "name": "TransferFromIncorrectOwner",
      "type": "error"
    },
    {
      "inputs": [],
      "name": "TransferToNonERC721ReceiverImplementer",
      "type": "error"
    },
    {
      "inputs": [],
      "name": "TransferToZeroAddress",
      "type": "error"
    },
    {
      "inputs": [],
      "name": "URIQueryForNonexistentToken",
      "type": "error"
    },
    {
      "anonymous": false,
      "inputs": [
        {
          "indexed": true,
          "internalType": "address",
          "name": "owner",
          "type": "address"
        },
        {
          "indexed": true,
          "internalType": "address",
          "name": "approved",
          "type": "address"
        },
        {
          "indexed": true,
          "internalType": "uint256",
          "name": "tokenId",
          "type": "uint256"
        }
      ],
      "name": "Approval",
      "type": "event"
    },
    {
      "anonymous": false,
      "inputs": [
        {
          "indexed": true,
          "internalType": "address",
          "name": "owner",
          "type": "address"
        },
        {
          "indexed": true,
          "internalType": "address",
          "name": "operator",
          "type": "address"
        },
        {
          "indexed": false,
          "internalType": "bool",
          "name": "approved",
          "type": "bool"
        }
      ],
      "name": "ApprovalForAll",
      "type": "event"
    },
    {
      "anonymous": false,
      "inputs": [
        {
          "indexed": true,
          "internalType": "address",
          "name": "previousOwner",
          "type": "address"
        },
        {
          "indexed": true,
          "internalType": "address",
          "name": "newOwner",
          "type": "address"
        }
      ],
      "name": "OwnershipTransferred",
      "type": "event"
    },
    {
      "anonymous": false,
      "inputs": [
        {
          "indexed": true,
          "internalType": "bytes32",
          "name": "role",
          "type": "bytes32"
        },
        {
          "indexed": true,
          "internalType": "bytes32",
          "name": "previousAdminRole",
          "type": "bytes32"
        },
        {
          "indexed": true,
          "internalType": "bytes32",
          "name": "newAdminRole",
          "type": "bytes32"
        }
      ],
      "name": "RoleAdminChanged",
      "type": "event"
    },
    {
      "anonymous": false,
      "inputs": [
        {
          "indexed": true,
          "internalType": "bytes32",
          "name": "role",
          "type": "bytes32"
        },
        {
          "indexed": true,
          "internalType": "address",
          "name": "account",
          "type": "address"
        },
        {
          "indexed": true,
          "internalType": "address",
          "name": "sender",
          "type": "address"
        }
      ],
      "name": "RoleGranted",
      "type": "event"
    },
    {
      "anonymous": false,
      "inputs": [
        {
          "indexed": true,
          "internalType": "bytes32",
          "name": "role",
          "type": "bytes32"
        },
        {
          "indexed": true,
          "internalType": "address",
          "name": "account",
          "type": "address"
        },
        {
          "indexed": true,
          "internalType": "address",
          "name": "sender",
          "type": "address"
        }
      ],
      "name": "RoleRevoked",
      "type": "event"
    },
    {
      "anonymous": false,
      "inputs": [
        {
          "indexed": true,
          "internalType": "address",
          "name": "from",
          "type": "address"
        },
        {
          "indexed": true,
          "internalType": "address",
          "name": "to",
          "type": "address"
        },
        {
          "indexed": true,
          "internalType": "uint256",
          "name": "tokenId",
          "type": "uint256"
        }
      ],
      "name": "Transfer",
      "type": "event"
    },
    {
      "inputs": [],
      "name": "DEFAULT_ADMIN_ROLE",
      "outputs": [
        {
          "internalType": "bytes32",
          "name": "",
          "type": "bytes32"
        }
      ],
      "stateMutability": "view",
      "type": "function"
    },
    {
      "inputs": [],
      "name": "MAX_RESERVED_SUPPLY",
      "outputs": [
        {
          "internalType": "uint256",
          "name": "",
          "type": "uint256"
        }
      ],
      "stateMutability": "view",
      "type": "function"
    },
    {
      "inputs": [],
      "name": "MAX_SUPPLY",
      "outputs": [
        {
          "internalType": "uint256",
          "name": "",
          "type": "uint256"
        }
      ],
      "stateMutability": "view",
      "type": "function"
    },
    {
      "inputs": [],
      "name": "MINTER_ROLE",
      "outputs": [
        {
          "internalType": "bytes32",
          "name": "",
          "type": "bytes32"
        }
      ],
      "stateMutability": "view",
      "type": "function"
    },
    {
      "inputs": [
        {
          "internalType": "address",
          "name": "to",
          "type": "address"
        },
        {
          "internalType": "uint256",
          "name": "tokenId",
          "type": "uint256"
        }
      ],
      "name": "approve",
      "outputs": [],
      "stateMutability": "nonpayable",
      "type": "function"
    },
    {
      "inputs": [
        {
          "internalType": "address",
          "name": "owner",
          "type": "address"
        }
      ],
      "name": "balanceOf",
      "outputs": [
        {
          "internalType": "uint256",
          "name": "",
          "type": "uint256"
        }
      ],
      "stateMutability": "view",
      "type": "function"
    },
    {
      "inputs": [
        {
          "internalType": "uint256[]",
          "name": "tokenIds",
          "type": "uint256[]"
        }
      ],
      "name": "burnTokens",
      "outputs": [],
      "stateMutability": "nonpayable",
      "type": "function"
    },
    {
      "inputs": [
        {
          "internalType": "uint256",
          "name": "tokenId",
          "type": "uint256"
        }
      ],
      "name": "getApproved",
      "outputs": [
        {
          "internalType": "address",
          "name": "",
          "type": "address"
        }
      ],
      "stateMutability": "view",
      "type": "function"
    },
    {
      "inputs": [
        {
          "internalType": "bytes32",
          "name": "role",
          "type": "bytes32"
        }
      ],
      "name": "getRoleAdmin",
      "outputs": [
        {
          "internalType": "bytes32",
          "name": "",
          "type": "bytes32"
        }
      ],
      "stateMutability": "view",
      "type": "function"
    },
    {
      "inputs": [
        {
          "internalType": "bytes32",
          "name": "role",
          "type": "bytes32"
        },
        {
          "internalType": "address",
          "name": "account",
          "type": "address"
        }
      ],
      "name": "grantRole",
      "outputs": [],
      "stateMutability": "nonpayable",
      "type": "function"
    },
    {
      "inputs": [
        {
          "internalType": "bytes32",
          "name": "role",
          "type": "bytes32"
        },
        {
          "internalType": "address",
          "name": "account",
          "type": "address"
        }
      ],
      "name": "hasRole",
      "outputs": [
        {
          "internalType": "bool",
          "name": "",
          "type": "bool"
        }
      ],
      "stateMutability": "view",
      "type": "function"
    },
    {
      "inputs": [
        {
          "internalType": "uint256",
          "name": "quantity",
          "type": "uint256"
        }
      ],
      "name": "increaseMaxSupply",
      "outputs": [],
      "stateMutability": "nonpayable",
      "type": "function"
    },
    {
      "inputs": [
        {
          "internalType": "address",
          "name": "owner",
          "type": "address"
        },
        {
          "internalType": "address",
          "name": "operator",
          "type": "address"
        }
      ],
      "name": "isApprovedForAll",
      "outputs": [
        {
          "internalType": "bool",
          "name": "",
          "type": "bool"
        }
      ],
      "stateMutability": "view",
      "type": "function"
    },
    {
      "inputs": [
        {
          "internalType": "address",
          "name": "recipient",
          "type": "address"
        },
        {
          "internalType": "uint256",
          "name": "quantity",
          "type": "uint256"
        }
      ],
      "name": "mint",
      "outputs": [],
      "stateMutability": "nonpayable",
      "type": "function"
    },
    {
      "inputs": [],
      "name": "name",
      "outputs": [
        {
          "internalType": "string",
          "name": "",
          "type": "string"
        }
      ],
      "stateMutability": "view",
      "type": "function"
    },
    {
      "inputs": [],
      "name": "owner",
      "outputs": [
        {
          "internalType": "address",
          "name": "",
          "type": "address"
        }
      ],
      "stateMutability": "view",
      "type": "function"
    },
    {
      "inputs": [
        {
          "internalType": "uint256",
          "name": "tokenId",
          "type": "uint256"
        }
      ],
      "name": "ownerOf",
      "outputs": [
        {
          "internalType": "address",
          "name": "",
          "type": "address"
        }
      ],
      "stateMutability": "view",
      "type": "function"
    },
    {
      "inputs": [
        {
          "internalType": "uint256",
          "name": "quantity",
          "type": "uint256"
        }
      ],
      "name": "premint",
      "outputs": [],
      "stateMutability": "nonpayable",
      "type": "function"
    },
    {
      "inputs": [],
      "name": "preminted",
      "outputs": [
        {
          "internalType": "bool",
          "name": "",
          "type": "bool"
        }
      ],
      "stateMutability": "view",
      "type": "function"
    },
    {
      "inputs": [],
      "name": "renounceOwnership",
      "outputs": [],
      "stateMutability": "nonpayable",
      "type": "function"
    },
    {
      "inputs": [
        {
          "internalType": "bytes32",
          "name": "role",
          "type": "bytes32"
        },
        {
          "internalType": "address",
          "name": "account",
          "type": "address"
        }
      ],
      "name": "renounceRole",
      "outputs": [],
      "stateMutability": "nonpayable",
      "type": "function"
    },
    {
      "inputs": [],
      "name": "reveal",
      "outputs": [],
      "stateMutability": "nonpayable",
      "type": "function"
    },
    {
      "inputs": [],
      "name": "revealed",
      "outputs": [
        {
          "internalType": "bool",
          "name": "",
          "type": "bool"
        }
      ],
      "stateMutability": "view",
      "type": "function"
    },
    {
      "inputs": [
        {
          "internalType": "bytes32",
          "name": "role",
          "type": "bytes32"
        },
        {
          "internalType": "address",
          "name": "account",
          "type": "address"
        }
      ],
      "name": "revokeRole",
      "outputs": [],
      "stateMutability": "nonpayable",
      "type": "function"
    },
    {
      "inputs": [
        {
          "internalType": "address",
          "name": "from",
          "type": "address"
        },
        {
          "internalType": "address",
          "name": "to",
          "type": "address"
        },
        {
          "internalType": "uint256",
          "name": "tokenId",
          "type": "uint256"
        }
      ],
      "name": "safeTransferFrom",
      "outputs": [],
      "stateMutability": "nonpayable",
      "type": "function"
    },
    {
      "inputs": [
        {
          "internalType": "address",
          "name": "from",
          "type": "address"
        },
        {
          "internalType": "address",
          "name": "to",
          "type": "address"
        },
        {
          "internalType": "uint256",
          "name": "tokenId",
          "type": "uint256"
        },
        {
          "internalType": "bytes",
          "name": "_data",
          "type": "bytes"
        }
      ],
      "name": "safeTransferFrom",
      "outputs": [],
      "stateMutability": "nonpayable",
      "type": "function"
    },
    {
      "inputs": [
        {
          "internalType": "address",
          "name": "operator",
          "type": "address"
        },
        {
          "internalType": "bool",
          "name": "approved",
          "type": "bool"
        }
      ],
      "name": "setApprovalForAll",
      "outputs": [],
      "stateMutability": "nonpayable",
      "type": "function"
    },
    {
      "inputs": [
        {
          "internalType": "string",
          "name": "uri",
          "type": "string"
        }
      ],
      "name": "setBaseUri",
      "outputs": [],
      "stateMutability": "nonpayable",
      "type": "function"
    },
    {
      "inputs": [
        {
          "internalType": "address",
          "name": "mintingRouter",
          "type": "address"
        }
      ],
      "name": "setMinter",
      "outputs": [],
      "stateMutability": "nonpayable",
      "type": "function"
    },
    {
      "inputs": [
        {
          "internalType": "string",
          "name": "uri",
          "type": "string"
        }
      ],
      "name": "setUnrevealedUri",
      "outputs": [],
      "stateMutability": "nonpayable",
      "type": "function"
    },
    {
      "inputs": [
        {
          "internalType": "bytes4",
          "name": "interfaceId",
          "type": "bytes4"
        }
      ],
      "name": "supportsInterface",
      "outputs": [
        {
          "internalType": "bool",
          "name": "",
          "type": "bool"
        }
      ],
      "stateMutability": "view",
      "type": "function"
    },
    {
      "inputs": [],
      "name": "symbol",
      "outputs": [
        {
          "internalType": "string",
          "name": "",
          "type": "string"
        }
      ],
      "stateMutability": "view",
      "type": "function"
    },
    {
      "inputs": [
        {
          "internalType": "uint256",
          "name": "index",
          "type": "uint256"
        }
      ],
      "name": "tokenByIndex",
      "outputs": [
        {
          "internalType": "uint256",
          "name": "",
          "type": "uint256"
        }
      ],
      "stateMutability": "view",
      "type": "function"
    },
    {
      "inputs": [
        {
          "internalType": "address",
          "name": "owner",
          "type": "address"
        },
        {
          "internalType": "uint256",
          "name": "index",
          "type": "uint256"
        }
      ],
      "name": "tokenOfOwnerByIndex",
      "outputs": [
        {
          "internalType": "uint256",
          "name": "",
          "type": "uint256"
        }
      ],
      "stateMutability": "view",
      "type": "function"
    },
    {
      "inputs": [
        {
          "internalType": "uint256",
          "name": "tokenId",
          "type": "uint256"
        }
      ],
      "name": "tokenURI",
      "outputs": [
        {
          "internalType": "string",
          "name": "",
          "type": "string"
        }
      ],
      "stateMutability": "view",
      "type": "function"
    },
    {
      "inputs": [],
      "name": "totalSupply",
      "outputs": [
        {
          "internalType": "uint256",
          "name": "",
          "type": "uint256"
        }
      ],
      "stateMutability": "view",
      "type": "function"
    },
    {
      "inputs": [
        {
          "internalType": "address",
          "name": "from",
          "type": "address"
        },
        {
          "internalType": "address",
          "name": "to",
          "type": "address"
        },
        {
          "internalType": "uint256",
          "name": "tokenId",
          "type": "uint256"
        }
      ],
      "name": "transferFrom",
      "outputs": [],
      "stateMutability": "nonpayable",
      "type": "function"
    },
    {
      "inputs": [
        {
          "internalType": "address",
          "name": "newOwner",
          "type": "address"
        }
      ],
      "name": "transferOwnership",
      "outputs": [],
      "stateMutability": "nonpayable",
      "type": "function"
    },
    {
      "inputs": [],
      "name": "unreveal",
      "outputs": [],
      "stateMutability": "nonpayable",
      "type": "function"
    }
  ],
  "bytecode": "0x6080604052600c805460ff19908116909155600f805490911690553480156200002757600080fd5b50604051620029e9380380620029e98339810160408190526200004a916200036a565b8383878781600290805190602001906200006692919062000211565b5080516200007c90600390602084019062000211565b50505062000099620000936200011660201b60201c565b6200011a565b8151620000ae90600a90602085019062000211565b508051620000c490600b90602084019062000211565b50620000d6915060009050336200016c565b620001027f9f2df0fed2c77648de5860a4cc508cd0818c85b8b8a1ab4ceeef8d981c8956a6336200016c565b600d91909155600e55506200048392505050565b3390565b600980546001600160a01b038381166001600160a01b0319831681179093556040519116919082907f8be0079c531659141344cd1fd0a4f28419497f9722a3daafe3b4186f6b6457e090600090a35050565b60008281526008602090815260408083206001600160a01b038516845290915290205460ff166200020d5760008281526008602090815260408083206001600160a01b03851684529091529020805460ff19166001179055620001cc3390565b6001600160a01b0316816001600160a01b0316837f2f8788117e7eff1d82e926ec794901d17c78024a50270940304540a733656f0d60405160405180910390a45b5050565b8280546200021f9062000430565b90600052602060002090601f0160209004810192826200024357600085556200028e565b82601f106200025e57805160ff19168380011785556200028e565b828001600101855582156200028e579182015b828111156200028e57825182559160200191906001019062000271565b506200029c929150620002a0565b5090565b5b808211156200029c5760008155600101620002a1565b600082601f830112620002c8578081fd5b81516001600160401b0380821115620002e557620002e56200046d565b604051601f8301601f19908116603f011681019082821181831017156200031057620003106200046d565b816040528381526020925086838588010111156200032c578485fd5b8491505b838210156200034f578582018301518183018401529082019062000330565b838211156200036057848385830101525b9695505050505050565b60008060008060008060c0878903121562000383578182fd5b86516001600160401b03808211156200039a578384fd5b620003a88a838b01620002b7565b97506020890151915080821115620003be578384fd5b620003cc8a838b01620002b7565b96506040890151915080821115620003e2578384fd5b620003f08a838b01620002b7565b9550606089015191508082111562000406578384fd5b506200041589828a01620002b7565b9350506080870151915060a087015190509295509295509295565b600181811c908216806200044557607f821691505b602082108114156200046757634e487b7160e01b600052602260045260246000fd5b50919050565b634e487b7160e01b600052604160045260246000fd5b61255680620004936000396000f3fe608060405234801561001057600080fd5b506004361061023d5760003560e01c806370a082311161013b578063a22cb465116100b8578063d547741f1161007c578063d547741f146104d1578063dfe0ce18146104e4578063e985e9c5146104ed578063f2fde38b14610529578063fca3b5aa1461053c57600080fd5b8063a22cb46514610469578063a475b5dd1461047c578063b88d4fde14610484578063c87b56dd14610497578063d5391393146104aa57600080fd5b806391d14854116100ff57806391d148541461042057806395d89b41146104335780639d5aef301461043b578063a0bcfc7f1461044e578063a217fddf1461046157600080fd5b806370a08231146103ce578063715018a6146103e15780638da5cb5b146103e957806390edbfee146103fa57806390fb5fb91461040d57600080fd5b80632f745c59116101c957806342842e0e1161018d57806342842e0e146103755780634f6ccce714610388578063518302271461039b5780636352211e146103a857806367a53173146103bb57600080fd5b80632f745c591461032657806332cb6b0c14610339578063357b794e1461034257806336568abe1461034f57806340c10f191461036257600080fd5b8063158756b911610210578063158756b9146102bf57806318160ddd146102c757806323b872dd146102dd578063248a9ca3146102f05780632f2ff15d1461031357600080fd5b806301ffc9a71461024257806306fdde031461026a578063081812fc1461027f578063095ea7b3146102aa575b600080fd5b610255610250366004612189565b61054f565b60405190151581526020015b60405180910390f35b610272610560565b60405161026191906123a6565b61029261028d36600461214f565b6105f2565b6040516001600160a01b039091168152602001610261565b6102bd6102b83660046120b7565b610636565b005b6102bd6106c4565b600154600054035b604051908152602001610261565b6102bd6102eb366004611fca565b6106dd565b6102cf6102fe36600461214f565b60009081526008602052604090206001015490565b6102bd610321366004612167565b6106e8565b6102cf6103343660046120b7565b61070e565b6102cf600d5481565b600f546102559060ff1681565b6102bd61035d366004612167565b610801565b6102bd6103703660046120b7565b610884565b6102bd610383366004611fca565b61096e565b6102cf61039636600461214f565b610989565b600c546102559060ff1681565b6102926103b636600461214f565b610a2a565b6102bd6103c93660046120e0565b610a3c565b6102cf6103dc366004611f7e565b610b4a565b6102bd610b98565b6009546001600160a01b0316610292565b6102bd61040836600461214f565b610bfe565b6102bd61041b3660046121c1565b610c75565b61025561042e366004612167565b610c94565b610272610cbf565b6102bd61044936600461214f565b610cce565b6102bd61045c3660046121c1565b610de8565b6102cf600081565b6102bd61047736600461207d565b610e07565b6102bd610e9d565b6102bd610492366004612005565b610eb9565b6102726104a536600461214f565b610ef3565b6102cf7f9f2df0fed2c77648de5860a4cc508cd0818c85b8b8a1ab4ceeef8d981c8956a681565b6102bd6104df366004612167565b610f24565b6102cf600e5481565b6102556104fb366004611f98565b6001600160a01b03918216600090815260076020908152604080832093909416825291909152205460ff1690565b6102bd610537366004611f7e565b610f4a565b6102bd61054a366004611f7e565b611015565b600061055a8261104b565b92915050565b60606002805461056f9061245e565b80601f016020809104026020016040519081016040528092919081815260200182805461059b9061245e565b80156105e85780601f106105bd576101008083540402835291602001916105e8565b820191906000526020600020905b8154815290600101906020018083116105cb57829003601f168201915b5050505050905090565b60006105fd82611070565b61061a576040516333d1c03960e21b815260040160405180910390fd5b506000908152600660205260409020546001600160a01b031690565b600061064182610a2a565b9050806001600160a01b0316836001600160a01b031614156106765760405163250fdee360e21b815260040160405180910390fd5b336001600160a01b03821614801590610696575061069481336104fb565b155b156106b4576040516367d9dca160e11b815260040160405180910390fd5b6106bf83838361109b565b505050565b60006106d081336110f7565b50600c805460ff19169055565b6106bf83838361115b565b60008281526008602052604090206001015461070481336110f7565b6106bf838361136f565b600061071983610b4a565b8210610738576040516306ed618760e11b815260040160405180910390fd5b600080549080805b838110156107fb57600081815260046020908152604091829020825160608101845290546001600160a01b0381168252600160a01b81046001600160401b031692820192909252600160e01b90910460ff1615801592820192909252906107a757506107f3565b80516001600160a01b0316156107bc57805192505b876001600160a01b0316836001600160a01b031614156107f157868414156107ea5750935061055a92505050565b6001909301925b505b600101610740565b50600080fd5b6001600160a01b03811633146108765760405162461bcd60e51b815260206004820152602f60248201527f416363657373436f6e74726f6c3a2063616e206f6e6c792072656e6f756e636560448201526e103937b632b9903337b91039b2b63360891b60648201526084015b60405180910390fd5b61088082826113f5565b5050565b7f9f2df0fed2c77648de5860a4cc508cd0818c85b8b8a1ab4ceeef8d981c8956a66108af81336110f7565b600f5460ff1615156001146109065760405162461bcd60e51b815260206004820152601e60248201527f5445414d5f524553455256455f4e4f545f5052454d494e5445445f5945540000604482015260640161086d565b600d54826109176001546000540390565b61092191906123b9565b11156109645760405162461bcd60e51b815260206004820152601260248201527145786365656473206d617820737570706c7960701b604482015260640161086d565b6106bf838361145c565b6106bf83838360405180602001604052806000815250610eb9565b6000805481805b82811015610a1057600081815260046020908152604091829020825160608101845290546001600160a01b0381168252600160a01b81046001600160401b031692820192909252600160e01b90910460ff16151591810182905290610a075785831415610a005750949350505050565b6001909201915b50600101610990565b506040516329c8c00760e21b815260040160405180910390fd5b6000610a3582611476565b5192915050565b60005b818110156106bf576000610a78848484818110610a6c57634e487b7160e01b600052603260045260246000fd5b90506020020135611476565b80519091506001600160a01b031633141580610a95575080604001515b15610b085760405162461bcd60e51b815260206004820152603b60248201527f43616c6c6572206973206e6f74206f776e6572206f662074686520746f6b656e60448201527f206f7220746f6b656e20697320616c7265616479206275726e65640000000000606482015260840161086d565b610b37848484818110610b2b57634e487b7160e01b600052603260045260246000fd5b9050602002013561158f565b5080610b4281612499565b915050610a3f565b60006001600160a01b038216610b73576040516323d3ad8160e21b815260040160405180910390fd5b506001600160a01b03166000908152600560205260409020546001600160401b031690565b6009546001600160a01b03163314610bf25760405162461bcd60e51b815260206004820181905260248201527f4f776e61626c653a2063616c6c6572206973206e6f7420746865206f776e6572604482015260640161086d565b610bfc600061170b565b565b6000610c0a81336110f7565b60008211610c5a5760405162461bcd60e51b815260206004820152601f60248201527f5175616e74697479206d7573742062652067726561746572207468616e203000604482015260640161086d565b81600d6000828254610c6c91906123b9565b90915550505050565b6000610c8181336110f7565b81516106bf90600b906020850190611e54565b60009182526008602090815260408084206001600160a01b0393909316845291905290205460ff1690565b60606003805461056f9061245e565b6000610cda81336110f7565b600f5460ff1615610d3d5760405162461bcd60e51b815260206004820152602760248201527f416c6c20726573657276656420746f6b656e73207765726520616c7265616479604482015266081b5a5b9d195960ca1b606482015260840161086d565b600e5482610d4e6001546000540390565b610d5891906123b9565b1115610dbf5760405162461bcd60e51b815260206004820152603060248201527f546f74616c206d696e74207175616e74697479206578636565646564204d415860448201526f5f52455345525645445f535550504c5960801b606482015260840161086d565b610dc9338361145c565b600e5460015460005403600f80549190921460ff199091161790555050565b6000610df481336110f7565b81516106bf90600a906020850190611e54565b6001600160a01b038216331415610e315760405163b06307db60e01b815260040160405180910390fd5b3360008181526007602090815260408083206001600160a01b03871680855290835292819020805460ff191686151590811790915590519081529192917f17307eab39ab6107e8899845ad3d59bd9653f200f220920489ca2b5937696c31910160405180910390a35050565b6000610ea981336110f7565b50600c805460ff19166001179055565b610ec484848461115b565b610ed08484848461175d565b610eed576040516368d2bf6b60e11b815260040160405180910390fd5b50505050565b6060610efe82611070565b610f1b57604051630a14c4b560e41b815260040160405180910390fd5b61055a8261186c565b600082815260086020526040902060010154610f4081336110f7565b6106bf83836113f5565b6009546001600160a01b03163314610fa45760405162461bcd60e51b815260206004820181905260248201527f4f776e61626c653a2063616c6c6572206973206e6f7420746865206f776e6572604482015260640161086d565b6001600160a01b0381166110095760405162461bcd60e51b815260206004820152602660248201527f4f776e61626c653a206e6577206f776e657220697320746865207a65726f206160448201526564647265737360d01b606482015260840161086d565b6110128161170b565b50565b600061102181336110f7565b6108807f9f2df0fed2c77648de5860a4cc508cd0818c85b8b8a1ab4ceeef8d981c8956a683611966565b60006001600160e01b03198216637965db0b60e01b148061055a575061055a82611970565b600080548210801561055a575050600090815260046020526040902054600160e01b900460ff161590565b60008281526006602052604080822080546001600160a01b0319166001600160a01b0387811691821790925591518593918516917f8c5be1e5ebec7d5bd14f71427d1e84f3dd0314c0f7b2291e5b200ac8c7c3b92591a4505050565b6111018282610c94565b61088057611119816001600160a01b031660146119db565b6111248360206119db565b6040516020016111359291906122f4565b60408051601f198184030181529082905262461bcd60e51b825261086d916004016123a6565b600061116682611476565b80519091506000906001600160a01b0316336001600160a01b031614806111945750815161119490336104fb565b806111af5750336111a4846105f2565b6001600160a01b0316145b9050806111cf57604051632ce44b5f60e11b815260040160405180910390fd5b846001600160a01b031682600001516001600160a01b0316146112045760405162a1148160e81b815260040160405180910390fd5b6001600160a01b03841661122b57604051633a954ecd60e21b815260040160405180910390fd5b61123b600084846000015161109b565b6001600160a01b038581166000908152600560209081526040808320805467ffffffffffffffff198082166001600160401b0392831660001901831617909255898616808652838620805493841693831660019081018416949094179055898652600490945282852080546001600160e01b031916909417600160a01b4290921691909102179092559086018083529120549091166113255760005481101561132557825160008281526004602090815260409091208054918601516001600160401b0316600160a01b026001600160e01b03199092166001600160a01b03909316929092171790555b5082846001600160a01b0316866001600160a01b03167fddf252ad1be2c89b69c2b068fc378daa952ba7f163c4a11628f55a4df523b3ef60405160405180910390a45b5050505050565b6113798282610c94565b6108805760008281526008602090815260408083206001600160a01b03851684529091529020805460ff191660011790556113b13390565b6001600160a01b0316816001600160a01b0316837f2f8788117e7eff1d82e926ec794901d17c78024a50270940304540a733656f0d60405160405180910390a45050565b6113ff8282610c94565b156108805760008281526008602090815260408083206001600160a01b0385168085529252808320805460ff1916905551339285917ff6391f5c32d9c69d2a47ea670b442974b53935d1edc7fd64eb21e047a839171b9190a45050565b610880828260405180602001604052806000815250611bc3565b604080516060810182526000808252602082018190529181018290529054829081101561157657600081815260046020908152604091829020825160608101845290546001600160a01b0381168252600160a01b81046001600160401b031692820192909252600160e01b90910460ff161515918101829052906115745780516001600160a01b03161561150b579392505050565b5060001901600081815260046020908152604091829020825160608101845290546001600160a01b038116808352600160a01b82046001600160401b031693830193909352600160e01b900460ff161515928101929092521561156f579392505050565b61150b565b505b604051636f96cda160e11b815260040160405180910390fd5b600061159a82611476565b90506115ac600083836000015161109b565b80516001600160a01b039081166000908152600560209081526040808320805467ffffffffffffffff1981166001600160401b0391821660001901821617909155855185168452818420805467ffffffffffffffff60801b198116600160801b9182900484166001908101851690920217909155865188865260049094528285208054600160e01b9588166001600160e01b031990911617600160a01b42909416939093029290921760ff60e01b19169390931790559085018083529120549091166116c3576000548110156116c357815160008281526004602090815260409091208054918501516001600160401b0316600160a01b026001600160e01b03199092166001600160a01b03909316929092171790555b50805160405183916000916001600160a01b03909116907fddf252ad1be2c89b69c2b068fc378daa952ba7f163c4a11628f55a4df523b3ef908390a450506001805481019055565b600980546001600160a01b038381166001600160a01b0319831681179093556040519116919082907f8be0079c531659141344cd1fd0a4f28419497f9722a3daafe3b4186f6b6457e090600090a35050565b60006001600160a01b0384163b1561186057604051630a85bd0160e11b81526001600160a01b0385169063150b7a02906117a1903390899088908890600401612369565b602060405180830381600087803b1580156117bb57600080fd5b505af19250505080156117eb575060408051601f3d908101601f191682019092526117e8918101906121a5565b60015b611846573d808015611819576040519150601f19603f3d011682016040523d82523d6000602084013e61181e565b606091505b50805161183e576040516368d2bf6b60e11b815260040160405180910390fd5b805181602001fd5b6001600160e01b031916630a85bd0160e11b149050611864565b5060015b949350505050565b600c5460609060ff1661190b57600b80546118869061245e565b80601f01602080910402602001604051908101604052809291908181526020018280546118b29061245e565b80156118ff5780601f106118d4576101008083540402835291602001916118ff565b820191906000526020600020905b8154815290600101906020018083116118e257829003601f168201915b50505050509050919050565b600a80546119189061245e565b15159050611935576040518060200160405280600081525061055a565b600a61194083611bd0565b60405160200161195192919061224e565b60405160208183030381529060405292915050565b610880828261136f565b60006001600160e01b031982166380ac58cd60e01b14806119a157506001600160e01b03198216635b5e139f60e01b145b806119bc57506001600160e01b0319821663780e9d6360e01b145b8061055a57506301ffc9a760e01b6001600160e01b031983161461055a565b606060006119ea8360026123e5565b6119f59060026123b9565b6001600160401b03811115611a1a57634e487b7160e01b600052604160045260246000fd5b6040519080825280601f01601f191660200182016040528015611a44576020820181803683370190505b509050600360fc1b81600081518110611a6d57634e487b7160e01b600052603260045260246000fd5b60200101906001600160f81b031916908160001a905350600f60fb1b81600181518110611aaa57634e487b7160e01b600052603260045260246000fd5b60200101906001600160f81b031916908160001a9053506000611ace8460026123e5565b611ad99060016123b9565b90505b6001811115611b6d576f181899199a1a9b1b9c1cb0b131b232b360811b85600f1660108110611b1b57634e487b7160e01b600052603260045260246000fd5b1a60f81b828281518110611b3f57634e487b7160e01b600052603260045260246000fd5b60200101906001600160f81b031916908160001a90535060049490941c93611b6681612447565b9050611adc565b508315611bbc5760405162461bcd60e51b815260206004820181905260248201527f537472696e67733a20686578206c656e67746820696e73756666696369656e74604482015260640161086d565b9392505050565b6106bf8383836001611ce9565b606081611bf45750506040805180820190915260018152600360fc1b602082015290565b8160005b8115611c1e5780611c0881612499565b9150611c179050600a836123d1565b9150611bf8565b6000816001600160401b03811115611c4657634e487b7160e01b600052604160045260246000fd5b6040519080825280601f01601f191660200182016040528015611c70576020820181803683370190505b5090505b841561186457611c85600183612404565b9150611c92600a866124b4565b611c9d9060306123b9565b60f81b818381518110611cc057634e487b7160e01b600052603260045260246000fd5b60200101906001600160f81b031916908160001a905350611ce2600a866123d1565b9450611c74565b6000546001600160a01b038516611d1257604051622e076360e81b815260040160405180910390fd5b83611d305760405163b562e8dd60e01b815260040160405180910390fd5b6001600160a01b038516600081815260056020908152604080832080546fffffffffffffffffffffffffffffffff1981166001600160401b038083168c0181169182176801000000000000000067ffffffffffffffff1990941690921783900481168c018116909202179091558584526004909252822080546001600160e01b031916909317600160a01b42909216919091021790915581905b85811015611e4b5760405182906001600160a01b038916906000907fddf252ad1be2c89b69c2b068fc378daa952ba7f163c4a11628f55a4df523b3ef908290a4838015611e215750611e1f600088848861175d565b155b15611e3f576040516368d2bf6b60e11b815260040160405180910390fd5b60019182019101611dca565b50600055611368565b828054611e609061245e565b90600052602060002090601f016020900481019282611e825760008555611ec8565b82601f10611e9b57805160ff1916838001178555611ec8565b82800160010185558215611ec8579182015b82811115611ec8578251825591602001919060010190611ead565b50611ed4929150611ed8565b5090565b5b80821115611ed45760008155600101611ed9565b60006001600160401b0380841115611f0757611f076124f4565b604051601f8501601f19908116603f01168101908282118183101715611f2f57611f2f6124f4565b81604052809350858152868686011115611f4857600080fd5b858560208301376000602087830101525050509392505050565b80356001600160a01b0381168114611f7957600080fd5b919050565b600060208284031215611f8f578081fd5b611bbc82611f62565b60008060408385031215611faa578081fd5b611fb383611f62565b9150611fc160208401611f62565b90509250929050565b600080600060608486031215611fde578081fd5b611fe784611f62565b9250611ff560208501611f62565b9150604084013590509250925092565b6000806000806080858703121561201a578081fd5b61202385611f62565b935061203160208601611f62565b92506040850135915060608501356001600160401b03811115612052578182fd5b8501601f81018713612062578182fd5b61207187823560208401611eed565b91505092959194509250565b6000806040838503121561208f578182fd5b61209883611f62565b9150602083013580151581146120ac578182fd5b809150509250929050565b600080604083850312156120c9578182fd5b6120d283611f62565b946020939093013593505050565b600080602083850312156120f2578182fd5b82356001600160401b0380821115612108578384fd5b818501915085601f83011261211b578384fd5b813581811115612129578485fd5b8660208260051b850101111561213d578485fd5b60209290920196919550909350505050565b600060208284031215612160578081fd5b5035919050565b60008060408385031215612179578182fd5b82359150611fc160208401611f62565b60006020828403121561219a578081fd5b8135611bbc8161250a565b6000602082840312156121b6578081fd5b8151611bbc8161250a565b6000602082840312156121d2578081fd5b81356001600160401b038111156121e7578182fd5b8201601f810184136121f7578182fd5b61186484823560208401611eed565b6000815180845261221e81602086016020860161241b565b601f01601f19169290920160200192915050565b6000815161224481856020860161241b565b9290920192915050565b600080845482600182811c91508083168061226a57607f831692505b602080841082141561228a57634e487b7160e01b87526022600452602487fd5b81801561229e57600181146122af576122db565b60ff198616895284890196506122db565b60008b815260209020885b868110156122d35781548b8201529085019083016122ba565b505084890196505b5050505050506122eb8185612232565b95945050505050565b7f416363657373436f6e74726f6c3a206163636f756e742000000000000000000081526000835161232c81601785016020880161241b565b7001034b99036b4b9b9b4b733903937b6329607d1b601791840191820152835161235d81602884016020880161241b565b01602801949350505050565b6001600160a01b038581168252841660208201526040810183905260806060820181905260009061239c90830184612206565b9695505050505050565b602081526000611bbc6020830184612206565b600082198211156123cc576123cc6124c8565b500190565b6000826123e0576123e06124de565b500490565b60008160001904831182151516156123ff576123ff6124c8565b500290565b600082821015612416576124166124c8565b500390565b60005b8381101561243657818101518382015260200161241e565b83811115610eed5750506000910152565b600081612456576124566124c8565b506000190190565b600181811c9082168061247257607f821691505b6020821081141561249357634e487b7160e01b600052602260045260246000fd5b50919050565b60006000198214156124ad576124ad6124c8565b5060010190565b6000826124c3576124c36124de565b500690565b634e487b7160e01b600052601160045260246000fd5b634e487b7160e01b600052601260045260246000fd5b634e487b7160e01b600052604160045260246000fd5b6001600160e01b03198116811461101257600080fdfea26469706673582212203d5c04a0c4b86a76f5912d51ac34163fddfb0c4b2d330748b4656b9e658a4d9464736f6c63430008040033",
  "linkReferences": {},
  "deployedLinkReferences": {}
}