{
  "_format": "hh-sol-artifact-1",
  "contractName": "NFTStaking",
  "sourceName": "contracts/NFTStaking.sol",
  "abi": [
    {
      "inputs": [
        {
          "internalType": "address",
          "name": "_token1",
          "type": "address"
        }
      ],
      "stateMutability": "nonpayable",
      "type": "constructor"
    },
    {
      "anonymous": false,
      "inputs": [
        {
          "indexed": true,
          "internalType": "address",
          "name": "staker",
          "type": "address"
        },
        {
          "indexed": false,
          "internalType": "address",
          "name": "nftContract",
          "type": "address"
        },
        {
          "indexed": false,
          "internalType": "uint256",
          "name": "tokensAmount",
          "type": "uint256"
        }
      ],
      "name": "Deposited",
      "type": "event"
    },
    {
      "anonymous": false,
      "inputs": [
        {
          "indexed": true,
          "internalType": "address",
          "name": "previousOwner",
          "type": "address"
        },
        {
          "indexed": true,
          "internalType": "address",
          "name": "newOwner",
          "type": "address"
        }
      ],
      "name": "OwnershipTransferred",
      "type": "event"
    },
    {
      "anonymous": false,
      "inputs": [
        {
          "indexed": true,
          "internalType": "address",
          "name": "staker",
          "type": "address"
        },
        {
          "indexed": false,
          "internalType": "address",
          "name": "nftContract",
          "type": "address"
        },
        {
          "indexed": false,
          "internalType": "uint256",
          "name": "tokensAmount",
          "type": "uint256"
        }
      ],
      "name": "Withdrawed",
      "type": "event"
    },
    {
      "anonymous": false,
      "inputs": [
        {
          "indexed": true,
          "internalType": "address",
          "name": "receiver",
          "type": "address"
        },
        {
          "indexed": true,
          "internalType": "address",
          "name": "tokenAddress",
          "type": "address"
        },
        {
          "indexed": true,
          "internalType": "uint256",
          "name": "tokenId",
          "type": "uint256"
        }
      ],
      "name": "WithdrawedStuckERC721",
      "type": "event"
    },
    {
      "inputs": [],
      "name": "SECONDS_IN_DAY",
      "outputs": [
        {
          "internalType": "uint256",
          "name": "",
          "type": "uint256"
        }
      ],
      "stateMutability": "view",
      "type": "function"
    },
    {
      "inputs": [
        {
          "internalType": "enum NFTStaking.ContractTypes",
          "name": "contractType",
          "type": "uint8"
        },
        {
          "internalType": "uint256[]",
          "name": "yields",
          "type": "uint256[]"
        }
      ],
      "name": "bulkUpdateCategoryYields",
      "outputs": [],
      "stateMutability": "nonpayable",
      "type": "function"
    },
    {
      "inputs": [
        {
          "internalType": "address",
          "name": "userAddress",
          "type": "address"
        }
      ],
      "name": "calculateBoostersYield",
      "outputs": [
        {
          "internalType": "uint256",
          "name": "",
          "type": "uint256"
        }
      ],
      "stateMutability": "view",
      "type": "function"
    },
    {
      "inputs": [
        {
          "internalType": "enum NFTStaking.ContractTypes",
          "name": "contractType",
          "type": "uint8"
        },
        {
          "internalType": "uint256[]",
          "name": "tokenIds",
          "type": "uint256[]"
        }
      ],
      "name": "deposit",
      "outputs": [],
      "stateMutability": "nonpayable",
      "type": "function"
    },
    {
      "inputs": [],
      "name": "depositPaused",
      "outputs": [
        {
          "internalType": "bool",
          "name": "",
          "type": "bool"
        }
      ],
      "stateMutability": "view",
      "type": "function"
    },
    {
      "inputs": [
        {
          "internalType": "enum NFTStaking.ContractTypes",
          "name": "contractType",
          "type": "uint8"
        },
        {
          "internalType": "uint256[]",
          "name": "tokenIds",
          "type": "uint256[]"
        }
      ],
      "name": "emergencyWithdraw",
      "outputs": [],
      "stateMutability": "nonpayable",
      "type": "function"
    },
    {
      "inputs": [
        {
          "internalType": "enum NFTStaking.ContractTypes",
          "name": "contractType",
          "type": "uint8"
        },
        {
          "internalType": "uint8[]",
          "name": "tokenIds",
          "type": "uint8[]"
        }
      ],
      "name": "getCategoriesForTokens",
      "outputs": [
        {
          "internalType": "uint8[]",
          "name": "",
          "type": "uint8[]"
        }
      ],
      "stateMutability": "view",
      "type": "function"
    },
    {
      "inputs": [
        {
          "internalType": "enum NFTStaking.ContractTypes",
          "name": "contractType",
          "type": "uint8"
        },
        {
          "internalType": "uint256",
          "name": "tokenId",
          "type": "uint256"
        }
      ],
      "name": "getCategoryOfToken",
      "outputs": [
        {
          "internalType": "uint8",
          "name": "",
          "type": "uint8"
        }
      ],
      "stateMutability": "view",
      "type": "function"
    },
    {
      "inputs": [
        {
          "internalType": "address",
          "name": "userAddress",
          "type": "address"
        }
      ],
      "name": "getCurrentYield",
      "outputs": [
        {
          "internalType": "uint256",
          "name": "",
          "type": "uint256"
        }
      ],
      "stateMutability": "view",
      "type": "function"
    },
    {
      "inputs": [
        {
          "internalType": "enum NFTStaking.ContractTypes",
          "name": "contractType",
          "type": "uint8"
        },
        {
          "internalType": "address",
          "name": "staker",
          "type": "address"
        }
      ],
      "name": "getStakerTokens",
      "outputs": [
        {
          "internalType": "uint256[]",
          "name": "tokens",
          "type": "uint256[]"
        }
      ],
      "stateMutability": "view",
      "type": "function"
    },
    {
      "inputs": [
        {
          "internalType": "enum NFTStaking.ContractTypes",
          "name": "contractType",
          "type": "uint8"
        },
        {
          "internalType": "uint256",
          "name": "tokenId",
          "type": "uint256"
        }
      ],
      "name": "getTokenYield",
      "outputs": [
        {
          "internalType": "uint256",
          "name": "",
          "type": "uint256"
        }
      ],
      "stateMutability": "view",
      "type": "function"
    },
    {
      "inputs": [
        {
          "internalType": "address",
          "name": "staker",
          "type": "address"
        }
      ],
      "name": "getTotalRewards",
      "outputs": [
        {
          "internalType": "uint256",
          "name": "",
          "type": "uint256"
        }
      ],
      "stateMutability": "view",
      "type": "function"
    },
    {
      "inputs": [
        {
          "internalType": "address",
          "name": "staker",
          "type": "address"
        }
      ],
      "name": "getUnclaimedRewards",
      "outputs": [
        {
          "internalType": "uint256",
          "name": "",
          "type": "uint256"
        }
      ],
      "stateMutability": "view",
      "type": "function"
    },
    {
      "inputs": [
        {
          "internalType": "enum NFTStaking.ContractTypes",
          "name": "contractType",
          "type": "uint8"
        },
        {
          "internalType": "uint256[]",
          "name": "tokenIds",
          "type": "uint256[]"
        }
      ],
      "name": "getYieldsForTokens",
      "outputs": [
        {
          "internalType": "uint256[]",
          "name": "",
          "type": "uint256[]"
        }
      ],
      "stateMutability": "view",
      "type": "function"
    },
    {
      "inputs": [],
      "name": "launchStaking",
      "outputs": [],
      "stateMutability": "nonpayable",
      "type": "function"
    },
    {
      "inputs": [
        {
          "internalType": "enum NFTStaking.ContractTypes",
          "name": "contractType",
          "type": "uint8"
        },
        {
          "internalType": "bytes",
          "name": "categoryInBytes",
          "type": "bytes"
        }
      ],
      "name": "massUpdateCategories",
      "outputs": [],
      "stateMutability": "nonpayable",
      "type": "function"
    },
    {
      "inputs": [
        {
          "internalType": "uint256",
          "name": "",
          "type": "uint256"
        }
      ],
      "name": "numberOfCategoryPerType",
      "outputs": [
        {
          "internalType": "uint256",
          "name": "",
          "type": "uint256"
        }
      ],
      "stateMutability": "view",
      "type": "function"
    },
    {
      "inputs": [
        {
          "internalType": "address",
          "name": "",
          "type": "address"
        },
        {
          "internalType": "address",
          "name": "",
          "type": "address"
        },
        {
          "internalType": "uint256",
          "name": "",
          "type": "uint256"
        },
        {
          "internalType": "bytes",
          "name": "",
          "type": "bytes"
        }
      ],
      "name": "onERC721Received",
      "outputs": [
        {
          "internalType": "bytes4",
          "name": "",
          "type": "bytes4"
        }
      ],
      "stateMutability": "pure",
      "type": "function"
    },
    {
      "inputs": [],
      "name": "owner",
      "outputs": [
        {
          "internalType": "address",
          "name": "",
          "type": "address"
        }
      ],
      "stateMutability": "view",
      "type": "function"
    },
    {
      "inputs": [
        {
          "internalType": "enum NFTStaking.ContractTypes",
          "name": "contractType",
          "type": "uint8"
        },
        {
          "internalType": "uint256",
          "name": "tokenId",
          "type": "uint256"
        }
      ],
      "name": "ownerOf",
      "outputs": [
        {
          "internalType": "address",
          "name": "",
          "type": "address"
        }
      ],
      "stateMutability": "view",
      "type": "function"
    },
    {
      "inputs": [
        {
          "internalType": "bool",
          "name": "_pause",
          "type": "bool"
        }
      ],
      "name": "pauseDeposit",
      "outputs": [],
      "stateMutability": "nonpayable",
      "type": "function"
    },
    {
      "inputs": [],
      "name": "renounceOwnership",
      "outputs": [],
      "stateMutability": "nonpayable",
      "type": "function"
    },
    {
      "inputs": [
        {
          "internalType": "address",
          "name": "token1",
          "type": "address"
        },
        {
          "internalType": "address",
          "name": "token2",
          "type": "address"
        },
        {
          "internalType": "address",
          "name": "booster",
          "type": "address"
        }
      ],
      "name": "setTokenAddresses",
      "outputs": [],
      "stateMutability": "nonpayable",
      "type": "function"
    },
    {
      "inputs": [
        {
          "internalType": "address",
          "name": "",
          "type": "address"
        }
      ],
      "name": "stakers",
      "outputs": [
        {
          "internalType": "uint256",
          "name": "claimedRewards",
          "type": "uint256"
        },
        {
          "internalType": "uint256",
          "name": "lastCheckpoint",
          "type": "uint256"
        }
      ],
      "stateMutability": "view",
      "type": "function"
    },
    {
      "inputs": [],
      "name": "stakingLaunched",
      "outputs": [
        {
          "internalType": "bool",
          "name": "",
          "type": "bool"
        }
      ],
      "stateMutability": "view",
      "type": "function"
    },
    {
      "inputs": [
        {
          "internalType": "uint256",
          "name": "",
          "type": "uint256"
        }
      ],
      "name": "tokenAddresses",
      "outputs": [
        {
          "internalType": "address",
          "name": "",
          "type": "address"
        }
      ],
      "stateMutability": "view",
      "type": "function"
    },
    {
      "inputs": [
        {
          "internalType": "uint256",
          "name": "",
          "type": "uint256"
        }
      ],
      "name": "tokenTypeSeeded",
      "outputs": [
        {
          "internalType": "bool",
          "name": "",
          "type": "bool"
        }
      ],
      "stateMutability": "view",
      "type": "function"
    },
    {
      "inputs": [
        {
          "internalType": "address",
          "name": "newOwner",
          "type": "address"
        }
      ],
      "name": "transferOwnership",
      "outputs": [],
      "stateMutability": "nonpayable",
      "type": "function"
    },
    {
      "inputs": [
        {
          "internalType": "enum NFTStaking.ContractTypes",
          "name": "contractType",
          "type": "uint8"
        },
        {
          "internalType": "uint8",
          "name": "category",
          "type": "uint8"
        },
        {
          "internalType": "uint256",
          "name": "yield",
          "type": "uint256"
        }
      ],
      "name": "updateCategoryYield",
      "outputs": [],
      "stateMutability": "nonpayable",
      "type": "function"
    },
    {
      "inputs": [
        {
          "internalType": "enum NFTStaking.ContractTypes",
          "name": "contractType",
          "type": "uint8"
        },
        {
          "internalType": "uint256[]",
          "name": "tokenIds",
          "type": "uint256[]"
        }
      ],
      "name": "withdraw",
      "outputs": [],
      "stateMutability": "nonpayable",
      "type": "function"
    },
    {
      "inputs": [
        {
          "internalType": "uint256",
          "name": "",
          "type": "uint256"
        },
        {
          "internalType": "uint256",
          "name": "",
          "type": "uint256"
        }
      ],
      "name": "yieldsPerCategoryPerTokenType",
      "outputs": [
        {
          "internalType": "uint256",
          "name": "",
          "type": "uint256"
        }
      ],
      "stateMutability": "view",
      "type": "function"
    }
  ],
  "bytecode": "0x60e06040526005608081815260a091909152600360c08190526200002691600791620000dc565b503480156200003457600080fd5b5060405162002a9938038062002a9983398101604081905262000057916200013b565b62000062336200008c565b60018055600380546001600160a01b0319166001600160a01b03929092169190911790556200016d565b600080546001600160a01b038381166001600160a01b0319831681178455604051919092169283917f8be0079c531659141344cd1fd0a4f28419497f9722a3daafe3b4186f6b6457e09190a35050565b826003810192821562000112579160200282015b8281111562000112578251829060ff16905591602001919060010190620000f0565b506200012092915062000124565b5090565b5b8082111562000120576000815560010162000125565b6000602082840312156200014e57600080fd5b81516001600160a01b03811681146200016657600080fd5b9392505050565b61291c806200017d6000396000f3fe608060405234801561001057600080fd5b50600436106101e55760003560e01c80639168ae721161010f578063c75062e0116100a2578063e1af569811610071578063e1af569814610495578063e5df8b84146104a2578063e7bc0d21146104b5578063f2fde38b146104c857600080fd5b8063c75062e014610437578063cc1c304a1461045c578063d1edbc531461046f578063d8de05d11461048257600080fd5b8063a80a02a7116100de578063a80a02a7146103de578063a9b8b958146103fe578063b471f68614610411578063bdd0c5331461042457600080fd5b80639168ae721461037457806391e7a600146103b05780639a2e1e7e146103c3578063a30a2474146103d657600080fd5b80634d3f9d3e116101875780636460e82c116101565780636460e82c1461032157806369a69e2914610334578063715018a6146103475780638da5cb5b1461034f57600080fd5b80634d3f9d3e146102de5780635732140c146102f157806357af22551461030457806361a52a361461031757600080fd5b806312377b3e116101c357806312377b3e14610246578063150b7a02146102595780632bcf161c146102aa578063415855d6146102cb57600080fd5b80630268587b146101ea57806302befd24146101ff57806308dcdefa14610226575b600080fd5b6101fd6101f83660046122c7565b6104db565b005b60025461021190610100900460ff1681565b60405190151581526020015b60405180910390f35b61023961023436600461232f565b6105de565b60405161021d9190612366565b6101fd610254366004612415565b610772565b6102916102673660046124be565b7f150b7a023d4804d13e8c85fb27262cb750cf6ba9f9dd3bb30d90f482ceeb4b1f95945050505050565b6040516001600160e01b0319909116815260200161021d565b6102bd6102b8366004612531565b610a6a565b60405190815260200161021d565b6101fd6102d9366004612555565b610a98565b6101fd6102ec366004612577565b610adc565b6102bd6102ff366004612531565b610b45565b6102116103123660046125c2565b610c3d565b6102bd6201518081565b6101fd61032f366004612415565b610c67565b6102bd610342366004612531565b6111d7565b6101fd611248565b6000546001600160a01b03165b6040516001600160a01b03909116815260200161021d565b61039b610382366004612531565b601c602052600090815260409020805460019091015482565b6040805192835260208301919091520161021d565b6101fd6103be366004612415565b61127e565b6101fd6103d1366004612415565b611383565b6101fd61193a565b6103f16103ec3660046125ec565b6119bc565b60405161021d9190612688565b6102bd61040c3660046126c3565b611a76565b61035c61041f3660046126c3565b611acb565b6101fd6104323660046126ed565b611b12565b61044a6104453660046126c3565b611c07565b60405160ff909116815260200161021d565b61023961046a366004612415565b611d13565b6102bd61047d366004612531565b611dbb565b6102bd6104903660046125c2565b611ec5565b6002546102119060ff1681565b61035c6104b03660046125c2565b611edc565b6102bd6104c3366004612729565b611efc565b6101fd6104d6366004612531565b611f27565b6000546001600160a01b0316331461050e5760405162461bcd60e51b81526004016105059061274b565b60405180910390fd5b6001600684600281111561052457610524612780565b6003811061053457610534612796565b602091828204019190066101000a81548160ff0219169083151502179055506000600281111561056657610566612780565b83600281111561057857610578612780565b0361058f5761058960198383612196565b50505050565b60018360028111156105a3576105a3612780565b036105b457610589601a8383612196565b60028360028111156105c8576105c8612780565b036105d957610589601b8383612196565b505050565b606060008360028111156105f4576105f4612780565b03610666576001600160a01b0382166000908152601c60209081526040918290206002018054835181840281018401909452808452909183018282801561065a57602002820191906000526020600020905b815481526020019060010190808311610646575b5050505050905061076c565b600183600281111561067a5761067a612780565b036106ea576001600160a01b0382166000908152601c60209081526040918290206003018054835181840281018401909452808452909183018282801561065a5760200282019190600052602060002090815481526020019060010190808311610646575050505050905061076c565b60028360028111156106fe576106fe612780565b0361076c576001600160a01b0382166000908152601c60209081526040918290206004018054835181840281018401909452808452909183018282801561076457602002820191906000526020600020905b815481526020019060010190808311610750575b505050505090505b92915050565b6000546001600160a01b0316331461079c5760405162461bcd60e51b81526004016105059061274b565b6032815111156107e15760405162461bcd60e51b815260206004820152601060248201526f06a6040d2e640dac2f040e0cae440e8f60831b6044820152606401610505565b60038260028111156107f5576107f5612780565b106108125760405162461bcd60e51b8152600401610505906127ac565b6000600383600281111561082857610828612780565b6003811061083857610838612796565b01546001600160a01b0316905061084f6001610a98565b60005b8251811015610589576000601d600086600281111561087357610873612780565b8152602001908152602001600020600085848151811061089557610895612796565b6020908102919091018101518252810191909152604001600020546001600160a01b0316905080158015906109625750306001600160a01b0316836001600160a01b0316636352211e8685815181106108f0576108f0612796565b60200260200101516040518263ffffffff1660e01b815260040161091691815260200190565b602060405180830381865afa158015610933573d6000803e3d6000fd5b505050506040513d601f19601f8201168201806040525081019061095791906127da565b6001600160a01b0316145b15610a5757826001600160a01b03166323b872dd308387868151811061098a5761098a612796565b60209081029190910101516040516001600160e01b031960e086901b1681526001600160a01b0393841660048201529290911660248301526044820152606401600060405180830381600087803b1580156109e457600080fd5b505af11580156109f8573d6000803e3d6000fd5b50505050838281518110610a0e57610a0e612796565b6020026020010151836001600160a01b0316826001600160a01b03167f1837113a5597b63cd0d2f9735141fa42e6ea536bd36c7e2ffa51028ef47808bc60405160405180910390a45b5080610a628161280d565b915050610852565b6000610a75826111d7565b6001600160a01b0383166000908152601c602052604090205461076c9190612826565b6000546001600160a01b03163314610ac25760405162461bcd60e51b81526004016105059061274b565b600280549115156101000261ff0019909216919091179055565b6000546001600160a01b03163314610b065760405162461bcd60e51b81526004016105059061274b565b600380546001600160a01b039485166001600160a01b031991821617909155600480549385169382169390931790925560058054919093169116179055565b6001600160a01b0381166000908152601c60209081526040808320600281015460049091018054835181860281018601909452808452919385939290830182828015610bb057602002820191906000526020600020905b815481526020019060010190808311610b9c575b505050505090506000826002610bc6919061283e565b9050600081835110610bd85781610bdb565b82515b90506000805b82811015610c32576000858281518110610bfd57610bfd612796565b60200260200101519050610c12600282611a76565b610c1c9084612826565b9250508080610c2a9061280d565b915050610be1565b509695505050505050565b60068160038110610c4d57600080fd5b60209182820401919006915054906101000a900460ff1681565b600260015403610cb95760405162461bcd60e51b815260206004820152601f60248201527f5265656e7472616e637947756172643a207265656e7472616e742063616c6c006044820152606401610505565b60026001819055506003826002811115610cd557610cd5612780565b10610cf25760405162461bcd60e51b8152600401610505906127ac565b600254610100900460ff1615610d3b5760405162461bcd60e51b815260206004820152600e60248201526d11195c1bdcda5d081c185d5cd95960921b6044820152606401610505565b60025460ff16610d835760405162461bcd60e51b815260206004820152601360248201527214dd185ada5b99c81a5cc8191a5cd8589b1959606a1b6044820152606401610505565b6000815111610dcd5760405162461bcd60e51b8152602060048201526016602482015275139bc81d1bdad95b8812591cc81cdc1958da599a595960521b6044820152606401610505565b60006003836002811115610de357610de3612780565b60038110610df357610df3612796565b01546001600160a01b03169050610e0933611fc2565b336000908152601c6020526040902060028481811115610e2b57610e2b612780565b03610e9e57600280820154610e3f9161283e565b83516004830154610e509190612826565b1115610e9e5760405162461bcd60e51b815260206004820152601f60248201527f4d6178696d756d206e756d206f6620626f6f73746572732072656163686564006044820152606401610505565b60005b835181101561118457336001600160a01b0316836001600160a01b0316636352211e868481518110610ed557610ed5612796565b60200260200101516040518263ffffffff1660e01b8152600401610efb91815260200190565b602060405180830381865afa158015610f18573d6000803e3d6000fd5b505050506040513d601f19601f82011682018060405250810190610f3c91906127da565b6001600160a01b031614610f825760405162461bcd60e51b815260206004820152600d60248201526c2737ba103a34329037bbb732b960991b6044820152606401610505565b6001600160a01b0383166342842e0e3330878581518110610fa557610fa5612796565b60209081029190910101516040516001600160e01b031960e086901b1681526001600160a01b0393841660048201529290911660248301526044820152606401600060405180830381600087803b158015610fff57600080fd5b505af1158015611013573d6000803e3d6000fd5b5050505061101e3390565b601d600087600281111561103457611034612780565b8152602001908152602001600020600086848151811061105657611056612796565b6020026020010151815260200190815260200160002060006101000a8154816001600160a01b0302191690836001600160a01b03160217905550600060028111156110a3576110a3612780565b8560028111156110b5576110b5612780565b036110f457816002018482815181106110d0576110d0612796565b60209081029190910181015182546001810184556000938452919092200155611172565b600185600281111561110857611108612780565b0361112357816003018482815181106110d0576110d0612796565b600285600281111561113757611137612780565b03611172578160040184828151811061115257611152612796565b602090810291909101810151825460018101845560009384529190922001555b8061117c8161280d565b915050610ea1565b508251604080516001600160a01b0385168152602081019290925233917f8752a472e571a816aea92eec8dae9baf628e840f4929fbcc2d155e6233ff68a791015b60405180910390a25050600180555050565b6001600160a01b0381166000908152601c6020526040812060010154810361120157506000919050565b6201518061120e83611dbb565b6001600160a01b0384166000908152601c6020526040902060010154611234904261285d565b61123e919061283e565b61076c9190612874565b6000546001600160a01b031633146112725760405162461bcd60e51b81526004016105059061274b565b61127c6000612018565b565b6000546001600160a01b031633146112a85760405162461bcd60e51b81526004016105059061274b565b60078260028111156112bc576112bc612780565b600381106112cc576112cc612796565b01548151146113105760405162461bcd60e51b815260206004820152601060248201526f098cadccee8d040dcdee840dac2e8c6d60831b6044820152606401610505565b60005b81518110156105d95781818151811061132e5761132e612796565b6020026020010151600a84600281111561134a5761134a612780565b6003811061135a5761135a612796565b60050201826005811061136f5761136f612796565b01558061137b8161280d565b915050611313565b6002600154036113d55760405162461bcd60e51b815260206004820152601f60248201527f5265656e7472616e637947756172643a207265656e7472616e742063616c6c006044820152606401610505565b600260018190555060038260028111156113f1576113f1612780565b1061140e5760405162461bcd60e51b8152600401610505906127ac565b60008151116114585760405162461bcd60e51b8152602060048201526016602482015275139bc81d1bdad95b8812591cc81cdc1958da599a595960521b6044820152606401610505565b6000600383600281111561146e5761146e612780565b6003811061147e5761147e612796565b01546001600160a01b0316905061149433611fc2565b336000908152601c60205260408120905b83518110156118f55760008482815181106114c2576114c2612796565b60200260200101519050306001600160a01b0316846001600160a01b0316636352211e836040518263ffffffff1660e01b815260040161150491815260200190565b602060405180830381865afa158015611521573d6000803e3d6000fd5b505050506040513d601f19601f8201168201806040525081019061154591906127da565b6001600160a01b03161461159b5760405162461bcd60e51b815260206004820152601960248201527f496e76616c696420746f6b656e4964732070726f7669646564000000000000006044820152606401610505565b33601d60008860028111156115b2576115b2612780565b8152602080820192909252604090810160009081208582529092529020546001600160a01b0316146116185760405162461bcd60e51b815260206004820152600f60248201526e2737ba103a37b5b2b71037bbb732b960891b6044820152606401610505565b6000601d600088600281111561163057611630612780565b815260208082019290925260409081016000908120858252909252812080546001600160a01b0319166001600160a01b03939093169290921790915586600281111561167e5761167e612780565b03611724576116df836002018054806020026020016040519081016040528092919081815260200182805480156116d457602002820191906000526020600020905b8154815260200190600101908083116116c0575b505050505082612068565b80516116f591600286019160209091019061221a565b508260020180548061170957611709612896565b60019003818190600052602060002001600090559055611875565b600186600281111561173857611738612780565b036117c157611797836003018054806020026020016040519081016040528092919081815260200182805480156116d457602002820191906000526020600020908154815260200190600101908083116116c057505050505082612068565b80516117ad91600386019160209091019061221a565b508260030180548061170957611709612896565b60028660028111156117d5576117d5612780565b0361187557611834836004018054806020026020016040519081016040528092919081815260200182805480156116d457602002820191906000526020600020908154815260200190600101908083116116c057505050505082612068565b805161184a91600486019160209091019061221a565b508260040180548061185e5761185e612896565b600190038181906000526020600020016000905590555b60408051632142170760e11b81523060048201523360248201526044810183905290516001600160a01b038616916342842e0e91606480830192600092919082900301818387803b1580156118c957600080fd5b505af11580156118dd573d6000803e3d6000fd5b505050505080806118ed9061280d565b9150506114a5565b508251604080516001600160a01b0385168152602081019290925233917ff10eae2de0b095be715d0a32380cea8e913ae297b48430b5397024146ce9036591016111c5565b6000546001600160a01b031633146119645760405162461bcd60e51b81526004016105059061274b565b60025460ff16156119ad5760405162461bcd60e51b815260206004820152601360248201527214dd185ada5b99c81dd85cc8195b98589b1959606a1b6044820152606401610505565b6002805460ff19166001179055565b60606000825167ffffffffffffffff8111156119da576119da6123aa565b604051908082528060200260200182016040528015611a03578160200160208202803683370190505b50905060005b8351811015611a6e57611a3885858381518110611a2857611a28612796565b602002602001015160ff16611c07565b828281518110611a4a57611a4a612796565b60ff9092166020928302919091019091015280611a668161280d565b915050611a09565b509392505050565b600080611a838484611c07565b9050600a846002811115611a9957611a99612780565b60038110611aa957611aa9612796565b600502018160ff1660058110611ac157611ac1612796565b0154949350505050565b6000601d6000846002811115611ae357611ae3612780565b8152602080820192909252604090810160009081208582529092529020546001600160a01b0316905092915050565b6000546001600160a01b03163314611b3c5760405162461bcd60e51b81526004016105059061274b565b60008260ff16118015611b7757506007836002811115611b5e57611b5e612780565b60038110611b6e57611b6e612796565b01548260ff1611155b611bc35760405162461bcd60e51b815260206004820152601760248201527f496e76616c69642063617465676f7279206e756d6265720000000000000000006044820152606401610505565b80600a846002811115611bd857611bd8612780565b60038110611be857611be8612796565b600502018360ff1660058110611c0057611c00612796565b0155505050565b60006006836002811115611c1d57611c1d612780565b60038110611c2d57611c2d612796565b602081049091015460ff601f9092166101000a9004161515600003611c545750600061076c565b6000836002811115611c6857611c68612780565b03611cbc576019828154611c7b906128ac565b8110611c8957611c89612796565b815460011615611ca85790600052602060002090602091828204019190065b9054901a600160f81b0260f81c905061076c565b6001836002811115611cd057611cd0612780565b03611ce357601a828154611c7b906128ac565b6002836002811115611cf757611cf7612780565b03611d0a57601b828154611c7b906128ac565b50600092915050565b60606000825167ffffffffffffffff811115611d3157611d316123aa565b604051908082528060200260200182016040528015611d5a578160200160208202803683370190505b50905060005b8351811015611a6e57611d8c85858381518110611d7f57611d7f612796565b6020026020010151611a76565b828281518110611d9e57611d9e612796565b602090810291909101015280611db38161280d565b915050611d60565b6001600160a01b0381166000908152601c60205260408120600281015460039091015482805b83811015611e4a576001600160a01b0386166000908152601c602052604081206002018054611e2c92919084908110611e1c57611e1c612796565b9060005260206000200154611a76565b611e369083612826565b915080611e428161280d565b915050611de1565b5060005b82811015611ea8576001600160a01b0386166000908152601c602052604090206003018054611e8a9160019184908110611e1c57611e1c612796565b611e949083612826565b915080611ea08161280d565b915050611e4e565b50611eb285610b45565b611ebc9082612826565b95945050505050565b60078160038110611ed557600080fd5b0154905081565b60038160038110611eec57600080fd5b01546001600160a01b0316905081565b600a8260038110611f0c57600080fd5b600502018160058110611f1e57600080fd5b01549150829050565b6000546001600160a01b03163314611f515760405162461bcd60e51b81526004016105059061274b565b6001600160a01b038116611fb65760405162461bcd60e51b815260206004820152602660248201527f4f776e61626c653a206e6577206f776e657220697320746865207a65726f206160448201526564647265737360d01b6064820152608401610505565b611fbf81612018565b50565b611fcb816111d7565b6001600160a01b0382166000908152601c602052604081208054909190611ff3908490612826565b90915550506001600160a01b03166000908152601c6020526040902042600190910155565b600080546001600160a01b038381166001600160a01b0319831681178455604051919092169283917f8be0079c531659141344cd1fd0a4f28419497f9722a3daafe3b4186f6b6457e09190a35050565b60606000806001855161207b919061285d565b855190915060005b818110156120cf578587828151811061209e5761209e612796565b6020026020010151036120bd576120b6816001612826565b93506120cf565b806120c78161280d565b915050612083565b50826000036121205760405162461bcd60e51b815260206004820152601b60248201527f6d73672e73656e646572206973206e6f7420746865206f776e657200000000006044820152606401610505565b61212b60018461285d565b925081831461218c5785828151811061214657612146612796565b602002602001015186848151811061216057612160612796565b6020026020010181815250508486838151811061217f5761217f612796565b6020026020010181815250505b5093949350505050565b8280546121a2906128ac565b90600052602060002090601f0160209004810192826121c4576000855561220a565b82601f106121dd5782800160ff1982351617855561220a565b8280016001018555821561220a579182015b8281111561220a5782358255916020019190600101906121ef565b50612216929150612255565b5090565b82805482825590600052602060002090810192821561220a579160200282015b8281111561220a57825182559160200191906001019061223a565b5b808211156122165760008155600101612256565b80356003811061227957600080fd5b919050565b60008083601f84011261229057600080fd5b50813567ffffffffffffffff8111156122a857600080fd5b6020830191508360208285010111156122c057600080fd5b9250929050565b6000806000604084860312156122dc57600080fd5b6122e58461226a565b9250602084013567ffffffffffffffff81111561230157600080fd5b61230d8682870161227e565b9497909650939450505050565b6001600160a01b0381168114611fbf57600080fd5b6000806040838503121561234257600080fd5b61234b8361226a565b9150602083013561235b8161231a565b809150509250929050565b6020808252825182820181905260009190848201906040850190845b8181101561239e57835183529284019291840191600101612382565b50909695505050505050565b634e487b7160e01b600052604160045260246000fd5b604051601f8201601f1916810167ffffffffffffffff811182821017156123e9576123e96123aa565b604052919050565b600067ffffffffffffffff82111561240b5761240b6123aa565b5060051b60200190565b6000806040838503121561242857600080fd5b6124318361226a565b915060208084013567ffffffffffffffff81111561244e57600080fd5b8401601f8101861361245f57600080fd5b803561247261246d826123f1565b6123c0565b81815260059190911b8201830190838101908883111561249157600080fd5b928401925b828410156124af57833582529284019290840190612496565b80955050505050509250929050565b6000806000806000608086880312156124d657600080fd5b85356124e18161231a565b945060208601356124f18161231a565b935060408601359250606086013567ffffffffffffffff81111561251457600080fd5b6125208882890161227e565b969995985093965092949392505050565b60006020828403121561254357600080fd5b813561254e8161231a565b9392505050565b60006020828403121561256757600080fd5b8135801515811461254e57600080fd5b60008060006060848603121561258c57600080fd5b83356125978161231a565b925060208401356125a78161231a565b915060408401356125b78161231a565b809150509250925092565b6000602082840312156125d457600080fd5b5035919050565b803560ff8116811461227957600080fd5b600080604083850312156125ff57600080fd5b6126088361226a565b915060208084013567ffffffffffffffff81111561262557600080fd5b8401601f8101861361263657600080fd5b803561264461246d826123f1565b81815260059190911b8201830190838101908883111561266357600080fd5b928401925b828410156124af57612679846125db565b82529284019290840190612668565b6020808252825182820181905260009190848201906040850190845b8181101561239e57835160ff16835292840192918401916001016126a4565b600080604083850312156126d657600080fd5b6126df8361226a565b946020939093013593505050565b60008060006060848603121561270257600080fd5b61270b8461226a565b9250612719602085016125db565b9150604084013590509250925092565b6000806040838503121561273c57600080fd5b50508035926020909101359150565b6020808252818101527f4f776e61626c653a2063616c6c6572206973206e6f7420746865206f776e6572604082015260600190565b634e487b7160e01b600052602160045260246000fd5b634e487b7160e01b600052603260045260246000fd5b602080825260149082015273139bdd0818481d985b1a590818dbdb9d1c9858dd60621b604082015260600190565b6000602082840312156127ec57600080fd5b815161254e8161231a565b634e487b7160e01b600052601160045260246000fd5b60006001820161281f5761281f6127f7565b5060010190565b60008219821115612839576128396127f7565b500190565b6000816000190483118215151615612858576128586127f7565b500290565b60008282101561286f5761286f6127f7565b500390565b60008261289157634e487b7160e01b600052601260045260246000fd5b500490565b634e487b7160e01b600052603160045260246000fd5b600181811c908216806128c057607f821691505b6020821081036128e057634e487b7160e01b600052602260045260246000fd5b5091905056fea26469706673582212207e7a8f13ef8567852c115249c7e5e4abdd0e686f916510f899ee5650f166aeda64736f6c634300080d0033",
  "linkReferences": {},
  "deployedLinkReferences": {}
}