{
  "_format": "hh-sol-artifact-1",
  "contractName": "NFTStaking",
  "sourceName": "contracts/NFTStaking.sol",
  "abi": [
    {
      "inputs": [
        {
          "internalType": "address",
          "name": "_token1",
          "type": "address"
        },
        {
          "internalType": "address",
          "name": "_token2",
          "type": "address"
        },
        {
          "internalType": "address",
          "name": "_booster",
          "type": "address"
        }
      ],
      "stateMutability": "nonpayable",
      "type": "constructor"
    },
    {
      "anonymous": false,
      "inputs": [
        {
          "indexed": true,
          "internalType": "address",
          "name": "staker",
          "type": "address"
        },
        {
          "indexed": false,
          "internalType": "address",
          "name": "nftContract",
          "type": "address"
        },
        {
          "indexed": false,
          "internalType": "uint256",
          "name": "tokensAmount",
          "type": "uint256"
        }
      ],
      "name": "Deposit",
      "type": "event"
    },
    {
      "anonymous": false,
      "inputs": [
        {
          "indexed": true,
          "internalType": "address",
          "name": "previousOwner",
          "type": "address"
        },
        {
          "indexed": true,
          "internalType": "address",
          "name": "newOwner",
          "type": "address"
        }
      ],
      "name": "OwnershipTransferred",
      "type": "event"
    },
    {
      "anonymous": false,
      "inputs": [
        {
          "indexed": true,
          "internalType": "address",
          "name": "staker",
          "type": "address"
        },
        {
          "indexed": false,
          "internalType": "address",
          "name": "nftContract",
          "type": "address"
        },
        {
          "indexed": false,
          "internalType": "uint256",
          "name": "tokensAmount",
          "type": "uint256"
        }
      ],
      "name": "Withdraw",
      "type": "event"
    },
    {
      "anonymous": false,
      "inputs": [
        {
          "indexed": true,
          "internalType": "address",
          "name": "receiver",
          "type": "address"
        },
        {
          "indexed": true,
          "internalType": "address",
          "name": "tokenAddress",
          "type": "address"
        },
        {
          "indexed": true,
          "internalType": "uint256",
          "name": "tokenId",
          "type": "uint256"
        }
      ],
      "name": "WithdrawStuckERC721",
      "type": "event"
    },
    {
      "inputs": [],
      "name": "SECONDS_IN_DAY",
      "outputs": [
        {
          "internalType": "uint256",
          "name": "",
          "type": "uint256"
        }
      ],
      "stateMutability": "view",
      "type": "function"
    },
    {
      "inputs": [
        {
          "internalType": "address",
          "name": "",
          "type": "address"
        }
      ],
      "name": "baseYield",
      "outputs": [
        {
          "internalType": "uint256",
          "name": "",
          "type": "uint256"
        }
      ],
      "stateMutability": "view",
      "type": "function"
    },
    {
      "inputs": [],
      "name": "booster",
      "outputs": [
        {
          "internalType": "address",
          "name": "",
          "type": "address"
        }
      ],
      "stateMutability": "view",
      "type": "function"
    },
    {
      "inputs": [
        {
          "internalType": "address",
          "name": "nftContract",
          "type": "address"
        },
        {
          "internalType": "uint256[]",
          "name": "yields",
          "type": "uint256[]"
        }
      ],
      "name": "bulkUpdateCategoryYields",
      "outputs": [],
      "stateMutability": "nonpayable",
      "type": "function"
    },
    {
      "inputs": [
        {
          "internalType": "uint256",
          "name": "numOfStakedToken1s",
          "type": "uint256"
        },
        {
          "internalType": "uint256[]",
          "name": "boosters",
          "type": "uint256[]"
        }
      ],
      "name": "calculateBoostersYield",
      "outputs": [
        {
          "internalType": "uint256",
          "name": "",
          "type": "uint256"
        }
      ],
      "stateMutability": "view",
      "type": "function"
    },
    {
      "inputs": [
        {
          "internalType": "address",
          "name": "nftContract",
          "type": "address"
        },
        {
          "internalType": "uint256[]",
          "name": "tokenIds",
          "type": "uint256[]"
        }
      ],
      "name": "deposit",
      "outputs": [],
      "stateMutability": "nonpayable",
      "type": "function"
    },
    {
      "inputs": [],
      "name": "depositPaused",
      "outputs": [
        {
          "internalType": "bool",
          "name": "",
          "type": "bool"
        }
      ],
      "stateMutability": "view",
      "type": "function"
    },
    {
      "inputs": [
        {
          "internalType": "address",
          "name": "tokenAddress",
          "type": "address"
        },
        {
          "internalType": "uint256[]",
          "name": "tokenIds",
          "type": "uint256[]"
        }
      ],
      "name": "emergencyWithdraw",
      "outputs": [],
      "stateMutability": "nonpayable",
      "type": "function"
    },
    {
      "inputs": [
        {
          "internalType": "address",
          "name": "staker",
          "type": "address"
        }
      ],
      "name": "getAccumulatedAmount",
      "outputs": [
        {
          "internalType": "uint256",
          "name": "",
          "type": "uint256"
        }
      ],
      "stateMutability": "view",
      "type": "function"
    },
    {
      "inputs": [
        {
          "internalType": "address",
          "name": "nftContract",
          "type": "address"
        },
        {
          "internalType": "uint8[]",
          "name": "tokenIds",
          "type": "uint8[]"
        }
      ],
      "name": "getCategoriesForTokens",
      "outputs": [
        {
          "internalType": "uint8[]",
          "name": "",
          "type": "uint8[]"
        }
      ],
      "stateMutability": "view",
      "type": "function"
    },
    {
      "inputs": [
        {
          "internalType": "address",
          "name": "nftContract",
          "type": "address"
        },
        {
          "internalType": "uint256",
          "name": "tokenId",
          "type": "uint256"
        }
      ],
      "name": "getCategoryOfToken",
      "outputs": [
        {
          "internalType": "uint8",
          "name": "",
          "type": "uint8"
        }
      ],
      "stateMutability": "view",
      "type": "function"
    },
    {
      "inputs": [
        {
          "internalType": "address",
          "name": "staker",
          "type": "address"
        }
      ],
      "name": "getCurrentReward",
      "outputs": [
        {
          "internalType": "uint256",
          "name": "",
          "type": "uint256"
        }
      ],
      "stateMutability": "view",
      "type": "function"
    },
    {
      "inputs": [
        {
          "internalType": "address",
          "name": "nftContract",
          "type": "address"
        },
        {
          "internalType": "address",
          "name": "staker",
          "type": "address"
        }
      ],
      "name": "getStakerTokens",
      "outputs": [
        {
          "internalType": "uint256[]",
          "name": "tokens",
          "type": "uint256[]"
        }
      ],
      "stateMutability": "view",
      "type": "function"
    },
    {
      "inputs": [
        {
          "internalType": "address",
          "name": "staker",
          "type": "address"
        }
      ],
      "name": "getStakerYield",
      "outputs": [
        {
          "internalType": "uint256",
          "name": "",
          "type": "uint256"
        }
      ],
      "stateMutability": "view",
      "type": "function"
    },
    {
      "inputs": [
        {
          "internalType": "address",
          "name": "nftContract",
          "type": "address"
        },
        {
          "internalType": "uint256",
          "name": "tokenId",
          "type": "uint256"
        }
      ],
      "name": "getTokenYield",
      "outputs": [
        {
          "internalType": "uint256",
          "name": "",
          "type": "uint256"
        }
      ],
      "stateMutability": "view",
      "type": "function"
    },
    {
      "inputs": [
        {
          "internalType": "address",
          "name": "nftContract",
          "type": "address"
        },
        {
          "internalType": "uint256[]",
          "name": "tokenIds",
          "type": "uint256[]"
        }
      ],
      "name": "getYieldsForTokens",
      "outputs": [
        {
          "internalType": "uint256[]",
          "name": "",
          "type": "uint256[]"
        }
      ],
      "stateMutability": "view",
      "type": "function"
    },
    {
      "inputs": [],
      "name": "hasSetAllCategories",
      "outputs": [
        {
          "internalType": "bool",
          "name": "",
          "type": "bool"
        }
      ],
      "stateMutability": "view",
      "type": "function"
    },
    {
      "inputs": [],
      "name": "hasSetBoosterCategories",
      "outputs": [
        {
          "internalType": "bool",
          "name": "",
          "type": "bool"
        }
      ],
      "stateMutability": "view",
      "type": "function"
    },
    {
      "inputs": [],
      "name": "hasSetToken1Categories",
      "outputs": [
        {
          "internalType": "bool",
          "name": "",
          "type": "bool"
        }
      ],
      "stateMutability": "view",
      "type": "function"
    },
    {
      "inputs": [],
      "name": "hasSetToken2Categories",
      "outputs": [
        {
          "internalType": "bool",
          "name": "",
          "type": "bool"
        }
      ],
      "stateMutability": "view",
      "type": "function"
    },
    {
      "inputs": [],
      "name": "launchStaking",
      "outputs": [],
      "stateMutability": "nonpayable",
      "type": "function"
    },
    {
      "inputs": [
        {
          "internalType": "address",
          "name": "nftContract",
          "type": "address"
        },
        {
          "internalType": "bytes",
          "name": "categoryInBytes",
          "type": "bytes"
        }
      ],
      "name": "massUpdateCategories",
      "outputs": [],
      "stateMutability": "nonpayable",
      "type": "function"
    },
    {
      "inputs": [],
      "name": "numOfBoosterCategory",
      "outputs": [
        {
          "internalType": "uint256",
          "name": "",
          "type": "uint256"
        }
      ],
      "stateMutability": "view",
      "type": "function"
    },
    {
      "inputs": [],
      "name": "numOfToken1Category",
      "outputs": [
        {
          "internalType": "uint256",
          "name": "",
          "type": "uint256"
        }
      ],
      "stateMutability": "view",
      "type": "function"
    },
    {
      "inputs": [],
      "name": "numOfToken2Category",
      "outputs": [
        {
          "internalType": "uint256",
          "name": "",
          "type": "uint256"
        }
      ],
      "stateMutability": "view",
      "type": "function"
    },
    {
      "inputs": [
        {
          "internalType": "address",
          "name": "",
          "type": "address"
        },
        {
          "internalType": "address",
          "name": "",
          "type": "address"
        },
        {
          "internalType": "uint256",
          "name": "",
          "type": "uint256"
        },
        {
          "internalType": "bytes",
          "name": "",
          "type": "bytes"
        }
      ],
      "name": "onERC721Received",
      "outputs": [
        {
          "internalType": "bytes4",
          "name": "",
          "type": "bytes4"
        }
      ],
      "stateMutability": "pure",
      "type": "function"
    },
    {
      "inputs": [],
      "name": "owner",
      "outputs": [
        {
          "internalType": "address",
          "name": "",
          "type": "address"
        }
      ],
      "stateMutability": "view",
      "type": "function"
    },
    {
      "inputs": [
        {
          "internalType": "address",
          "name": "nftContract",
          "type": "address"
        },
        {
          "internalType": "uint256",
          "name": "tokenId",
          "type": "uint256"
        }
      ],
      "name": "ownerOf",
      "outputs": [
        {
          "internalType": "address",
          "name": "",
          "type": "address"
        }
      ],
      "stateMutability": "view",
      "type": "function"
    },
    {
      "inputs": [
        {
          "internalType": "bool",
          "name": "_pause",
          "type": "bool"
        }
      ],
      "name": "pauseDeposit",
      "outputs": [],
      "stateMutability": "nonpayable",
      "type": "function"
    },
    {
      "inputs": [],
      "name": "renounceOwnership",
      "outputs": [],
      "stateMutability": "nonpayable",
      "type": "function"
    },
    {
      "inputs": [
        {
          "internalType": "address",
          "name": "",
          "type": "address"
        }
      ],
      "name": "stakers",
      "outputs": [
        {
          "internalType": "uint256",
          "name": "currentYield",
          "type": "uint256"
        },
        {
          "internalType": "uint256",
          "name": "accumulatedAmount",
          "type": "uint256"
        },
        {
          "internalType": "uint256",
          "name": "lastCheckpoint",
          "type": "uint256"
        },
        {
          "internalType": "uint256",
          "name": "lastBoosterYield",
          "type": "uint256"
        }
      ],
      "stateMutability": "view",
      "type": "function"
    },
    {
      "inputs": [],
      "name": "stakingLaunched",
      "outputs": [
        {
          "internalType": "bool",
          "name": "",
          "type": "bool"
        }
      ],
      "stateMutability": "view",
      "type": "function"
    },
    {
      "inputs": [],
      "name": "token1",
      "outputs": [
        {
          "internalType": "address",
          "name": "",
          "type": "address"
        }
      ],
      "stateMutability": "view",
      "type": "function"
    },
    {
      "inputs": [],
      "name": "token2",
      "outputs": [
        {
          "internalType": "address",
          "name": "",
          "type": "address"
        }
      ],
      "stateMutability": "view",
      "type": "function"
    },
    {
      "inputs": [
        {
          "internalType": "address",
          "name": "newOwner",
          "type": "address"
        }
      ],
      "name": "transferOwnership",
      "outputs": [],
      "stateMutability": "nonpayable",
      "type": "function"
    },
    {
      "inputs": [
        {
          "internalType": "address",
          "name": "nftContract",
          "type": "address"
        },
        {
          "internalType": "uint8",
          "name": "category",
          "type": "uint8"
        },
        {
          "internalType": "uint256",
          "name": "yield",
          "type": "uint256"
        }
      ],
      "name": "updateCategoryYield",
      "outputs": [],
      "stateMutability": "nonpayable",
      "type": "function"
    },
    {
      "inputs": [
        {
          "internalType": "address",
          "name": "nftContract",
          "type": "address"
        },
        {
          "internalType": "uint256[]",
          "name": "tokenIds",
          "type": "uint256[]"
        }
      ],
      "name": "withdraw",
      "outputs": [],
      "stateMutability": "nonpayable",
      "type": "function"
    },
    {
      "inputs": [
        {
          "internalType": "uint256",
          "name": "",
          "type": "uint256"
        }
      ],
      "name": "yieldsForBoosterCategory",
      "outputs": [
        {
          "internalType": "uint256",
          "name": "",
          "type": "uint256"
        }
      ],
      "stateMutability": "view",
      "type": "function"
    },
    {
      "inputs": [
        {
          "internalType": "uint256",
          "name": "",
          "type": "uint256"
        }
      ],
      "name": "yieldsForToken1Category",
      "outputs": [
        {
          "internalType": "uint256",
          "name": "",
          "type": "uint256"
        }
      ],
      "stateMutability": "view",
      "type": "function"
    },
    {
      "inputs": [
        {
          "internalType": "uint256",
          "name": "",
          "type": "uint256"
        }
      ],
      "name": "yieldsForToken2Category",
      "outputs": [
        {
          "internalType": "uint256",
          "name": "",
          "type": "uint256"
        }
      ],
      "stateMutability": "view",
      "type": "function"
    }
  ],
  "bytecode": "0x60806040523480156200001157600080fd5b50604051620033fb380380620033fb83398101604081905262000034916200012f565b6200003f33620000c2565b6001808055600280546001600160a01b03199081166001600160a01b039687169081178355600380548316968816968717905560048054909216949096169384179055600094855260196020526040808620805460ff19908116909155948652808620805486169093179092559184529092208054909116909117905562000178565b600080546001600160a01b038381166001600160a01b0319831681178455604051919092169283917f8be0079c531659141344cd1fd0a4f28419497f9722a3daafe3b4186f6b6457e09190a35050565b80516001600160a01b03811681146200012a57600080fd5b919050565b60008060006060848603121562000144578283fd5b6200014f8462000112565b92506200015f6020850162000112565b91506200016f6040850162000112565b90509250925092565b61327380620001886000396000f3fe608060405234801561001057600080fd5b50600436106102485760003560e01c8063684747851161013b578063b87d2b1b116100b8578063e1af56981161007c578063e1af5698146105fc578063e4cbfac514610610578063f210ef1114610623578063f2fde38b14610636578063f409b82b1461043957600080fd5b8063b87d2b1b14610590578063c6def076146105a3578063d21220a7146105b6578063dc2f282e146105c9578063dfeaa74c146105e957600080fd5b806396059ae6116100ff57806396059ae61461053b578063a1ce2d841461054f578063a30a247414610562578063a4ba332f1461056a578063a71604e81461057d57600080fd5b806368474785146104a7578063715018a6146104ba5780638293744b146104c25780638da5cb5b146104d55780639168ae72146104e657600080fd5b8063339b7154116101c957806355c193b71161018d57806355c193b7146104395780635c2df8ec1461044157806361499ab91461045457806361a52a361461048a57806363f0ec211461049457600080fd5b8063339b7154146103c85780633b42ea74146103dd578063415855d6146103ea5780634bee21d4146103fd5780634d307e3f1461042657600080fd5b8063150b7a0211610210578063150b7a02146102ee5780631bb36f091461033f5780631d7f540c1461035f5780631f29d2dc1461036757806325be124e146103b557600080fd5b806302befd241461024d57806303a050c514610276578063041296671461029b5780630c37dd0d146102bc578063146a042c146102dc575b600080fd5b60045461026190600160a81b900460ff1681565b60405190151581526020015b60405180910390f35b610289610284366004612ed5565b610649565b60405160ff909116815260200161026d565b6102ae6102a9366004612c9d565b6107a1565b60405190815260200161026d565b6102cf6102ca366004612cdc565b6107d2565b60405161026d9190612fa4565b60185461026190610100900460ff1681565b6103266102fc366004612d14565b7f150b7a023d4804d13e8c85fb27262cb750cf6ba9f9dd3bb30d90f482ceeb4b1f95945050505050565b6040516001600160e01b0319909116815260200161026d565b6102ae61034d366004612c9d565b601b6020526000908152604090205481565b6102ae600381565b61039d610375366004612ed5565b6001600160a01b039182166000908152601d6020908152604080832093835292905220541690565b6040516001600160a01b03909116815260200161026d565b60035461039d906001600160a01b031681565b6103db6103d6366004612d85565b6109b2565b005b6018546102619060ff1681565b6103db6103f8366004612f3d565b610c96565b6102ae61040b366004612c9d565b6001600160a01b03166000908152601c602052604090205490565b6102ae610434366004612c9d565b610cde565b6102ae600581565b6018546102619062010000900460ff1681565b6102ae610462366004612ed5565b6001600160a01b03919091166000908152601a60209081526040808320938352929052205490565b6102ae6201518081565b6102ae6104a2366004612f5d565b610d4a565b6103db6104b5366004612e82565b610d61565b6103db610f3b565b6103db6104d0366004612d85565b610f71565b6000546001600160a01b031661039d565b61051b6104f4366004612c9d565b601c6020526000908152604090208054600182015460028301546006909301549192909184565b60408051948552602085019390935291830152606082015260800161026d565b601854610261906301000000900460ff1681565b6102cf61055d366004612d85565b6116c4565b6103db6117c1565b6102ae610578366004612f75565b6118bd565b6103db61058b366004612d85565b61198e565b6102ae61059e366004612f5d565b61223e565b60045461039d906001600160a01b031681565b60025461039d906001600160a01b031681565b6105dc6105d7366004612dd3565b61224e565b60405161026d9190612fe8565b6103db6105f7366004612d85565b61232a565b60045461026190600160a01b900460ff1681565b6102ae61061e366004612f5d565b6125fe565b6103db610631366004612f00565b61260e565b6103db610644366004612c9d565b612855565b6001600160a01b03821660009081526019602052604081205460ff168181600281111561068657634e487b7160e01b600052602160045260246000fd5b14156106fc5760185460ff1661069d5760006106f4565b60158381546106ab906131a6565b81106106c757634e487b7160e01b600052603260045260246000fd5b8154600116156106e65790600052602060002090602091828204019190065b9054901a600160f81b0260f81c5b91505061079b565b600181600281111561071e57634e487b7160e01b600052602160045260246000fd5b141561074857601854610100900460ff1661073a5760006106f4565b60168381546106ab906131a6565b600281600281111561076a57634e487b7160e01b600052602160045260246000fd5b14156107955760185462010000900460ff166107875760006106f4565b60178381546106ab906131a6565b60009150505b92915050565b60006107ac82610cde565b6001600160a01b0383166000908152601c602052604090206001015461079b9190613138565b6001600160a01b03821660009081526019602052604081205460609160ff9091169081600281111561081457634e487b7160e01b600052602160045260246000fd5b1415610887576001600160a01b0383166000908152601c60209081526040918290206003018054835181840281018401909452808452909183018282801561087b57602002820191906000526020600020905b815481526020019060010190808311610867575b505050505091506109ab565b60018160028111156108a957634e487b7160e01b600052602160045260246000fd5b141561091a576001600160a01b0383166000908152601c60209081526040918290206004018054835181840281018401909452808452909183018282801561087b576020028201919060005260206000209081548152602001906001019080831161086757505050505091506109ab565b600281600281111561093c57634e487b7160e01b600052602160045260246000fd5b14156109ab576001600160a01b0383166000908152601c6020908152604091829020600501805483518184028101840190945280845290918301828280156109a357602002820191906000526020600020905b81548152602001906001019080831161098f575b505050505091505b5092915050565b6000546001600160a01b031633146109e55760405162461bcd60e51b81526004016109dc9061304d565b60405180910390fd5b816001600160a01b03811615801590610a0b57506002546001600160a01b038281169116145b80610a2357506003546001600160a01b038281169116145b80610a3b57506004546001600160a01b038281169116145b610a575760405162461bcd60e51b81526004016109dc90613082565b6001600160a01b03831660009081526019602052604081205460ff1690816002811115610a9457634e487b7160e01b600052602160045260246000fd5b1415610b2a576006835114610abb5760405162461bcd60e51b81526004016109dc90613023565b60005b8351811015610b2457838181518110610ae757634e487b7160e01b600052603260045260246000fd5b602002602001015160058260068110610b1057634e487b7160e01b600052603260045260246000fd5b015580610b1c816131e1565b915050610abe565b50610c90565b6001816002811115610b4c57634e487b7160e01b600052602160045260246000fd5b1415610bdc576006835114610b735760405162461bcd60e51b81526004016109dc90613023565b60005b8351811015610b2457838181518110610b9f57634e487b7160e01b600052603260045260246000fd5b6020026020010151600b8260068110610bc857634e487b7160e01b600052603260045260246000fd5b015580610bd4816131e1565b915050610b76565b6002816002811115610bfe57634e487b7160e01b600052602160045260246000fd5b1415610c90576004835114610c255760405162461bcd60e51b81526004016109dc90613023565b60005b8351811015610c8e57838181518110610c5157634e487b7160e01b600052603260045260246000fd5b602002602001015160118260048110610c7a57634e487b7160e01b600052603260045260246000fd5b015580610c86816131e1565b915050610c28565b505b50505050565b6000546001600160a01b03163314610cc05760405162461bcd60e51b81526004016109dc9061304d565b60048054911515600160a81b0260ff60a81b19909216919091179055565b6001600160a01b0381166000908152601c6020526040812060020154610d0657506000919050565b6001600160a01b0382166000908152601c602052604090208054600290910154620151809190610d36904261318f565b610d409190613170565b61079b9190613150565b600b8160068110610d5a57600080fd5b0154905081565b6000546001600160a01b03163314610d8b5760405162461bcd60e51b81526004016109dc9061304d565b826001600160a01b03811615801590610db157506002546001600160a01b038281169116145b80610dc957506003546001600160a01b038281169116145b80610de157506004546001600160a01b038281169116145b610dfd5760405162461bcd60e51b81526004016109dc90613082565b6001600160a01b03841660009081526019602052604081205460ff1690816002811115610e3a57634e487b7160e01b600052602160045260246000fd5b1415610e5f57610e4c60158585612afd565b506018805460ff19166001179055610eef565b6001816002811115610e8157634e487b7160e01b600052602160045260246000fd5b1415610ea857610e9360168585612afd565b506018805461ff001916610100179055610eef565b6002816002811115610eca57634e487b7160e01b600052602160045260246000fd5b1415610eef57610edc60178585612afd565b506018805462ff00001916620100001790555b60185460ff168015610f085750601854610100900460ff165b8015610f1c575060185462010000900460ff165b15610c8e576018805463ff000000191663010000001790555050505050565b6000546001600160a01b03163314610f655760405162461bcd60e51b81526004016109dc9061304d565b610f6f60006128f0565b565b60026001541415610fc45760405162461bcd60e51b815260206004820152601f60248201527f5265656e7472616e637947756172643a207265656e7472616e742063616c6c0060448201526064016109dc565b6002600155816001600160a01b03811615801590610fef57506002546001600160a01b038281169116145b8061100757506003546001600160a01b038281169116145b8061101f57506004546001600160a01b038281169116145b61103b5760405162461bcd60e51b81526004016109dc90613082565b336000908152601c602090815260408083206001600160a01b038716845260199092528220548154919260ff90911691905b855181101561158457600086828151811061109857634e487b7160e01b600052603260045260246000fd5b60200260200101519050306001600160a01b0316886001600160a01b0316636352211e836040518263ffffffff1660e01b81526004016110da91815260200190565b60206040518083038186803b1580156110f257600080fd5b505afa158015611106573d6000803e3d6000fd5b505050506040513d601f19601f8201168201806040525081019061112a9190612cc0565b6001600160a01b0316146111805760405162461bcd60e51b815260206004820152601960248201527f496e76616c696420746f6b656e4964732070726f76696465640000000000000060448201526064016109dc565b6001600160a01b038881166000908152601d6020908152604080832085845290915290205416331461120a5760405162461bcd60e51b815260206004820152602d60248201527f4e6f7420746865206f776e6572206f66206f6e65206f7265206d6f726520707260448201526c6f766964656420746f6b656e7360981b60648201526084016109dc565b6001600160a01b0388166000908152601d60209081526040808320848452909152902080546001600160a01b031916905584541580159061126b5750600284600281111561126857634e487b7160e01b600052602160045260246000fd5b14155b156112a2576001600160a01b0388166000908152601a6020908152604080832084845290915290205461129e818561318f565b9350505b60008460028111156112c457634e487b7160e01b600052602160045260246000fd5b1415611379576113268560030180548060200260200160405190810160405280929190818152602001828054801561131b57602002820191906000526020600020905b815481526020019060010190808311611307575b505050505082612940565b805161133c916003880191602090910190612b81565b508460030180548061135e57634e487b7160e01b600052603160045260246000fd5b60019003818190600052602060002001600090559055611504565b600184600281111561139b57634e487b7160e01b600052602160045260246000fd5b1415611433576113fb8560040180548060200260200160405190810160405280929190818152602001828054801561131b576020028201919060005260206000209081548152602001906001019080831161130757505050505082612940565b8051611411916004880191602090910190612b81565b508460040180548061135e57634e487b7160e01b600052603160045260246000fd5b600284600281111561145557634e487b7160e01b600052602160045260246000fd5b1415611504576114b58560050180548060200260200160405190810160405280929190818152602001828054801561131b576020028201919060005260206000209081548152602001906001019080831161130757505050505082612940565b80516114cb916005880191602090910190612b81565b50846005018054806114ed57634e487b7160e01b600052603160045260246000fd5b600190038181906000526020600020016000905590555b60408051632142170760e11b81523060048201523360248201526044810183905290516001600160a01b038a16916342842e0e91606480830192600092919082900301818387803b15801561155857600080fd5b505af115801561156c573d6000803e3d6000fd5b5050505050808061157c906131e1565b91505061106d565b5060008260028111156115a757634e487b7160e01b600052602160045260246000fd5b14806115d2575060028260028111156115d057634e487b7160e01b600052602160045260246000fd5b145b1561166457600061163c84600301805490508560050180548060200260200160405190810160405280929190818152602001828054801561163257602002820191906000526020600020905b81548152602001906001019080831161161e575b50505050506118bd565b90508084600601548361164f919061318f565b6116599190613138565b600685019190915590505b61166d33612aa4565b8083558451604080516001600160a01b0389168152602081019290925233917f9b1bfa7fa9ee420a16e124f794c35ac9f90472acc99140eb2f6447c714cad8eb91015b60405180910390a250506001805550505050565b60606000825167ffffffffffffffff8111156116f057634e487b7160e01b600052604160045260246000fd5b604051908082528060200260200182016040528015611719578160200160208202803683370190505b50905060005b83518110156117b9576001600160a01b0385166000908152601a60205260408120855190919086908490811061176557634e487b7160e01b600052603260045260246000fd5b602002602001015181526020019081526020016000205482828151811061179c57634e487b7160e01b600052603260045260246000fd5b6020908102919091010152806117b1816131e1565b91505061171f565b509392505050565b6000546001600160a01b031633146117eb5760405162461bcd60e51b81526004016109dc9061304d565b600454600160a01b900460ff161561184f5760405162461bcd60e51b815260206004820152602160248201527f5374616b696e6720686173206265656e206c61756e6368656420616c726561646044820152607960f81b60648201526084016109dc565b6018546301000000900460ff166118a85760405162461bcd60e51b815260206004820152601d60248201527f43617465676f7269657320666f7220746f6b656e73206e6f742073657400000060448201526064016109dc565b6004805460ff60a01b1916600160a01b179055565b6000806118cb846002613170565b90506000818451106118dd57816118e0565b83515b90506000805b8281101561198457600086828151811061191057634e487b7160e01b600052603260045260246000fd5b60200260200101519050600061193b600460009054906101000a90046001600160a01b031683610649565b60ff1690506011816004811061196157634e487b7160e01b600052603260045260246000fd5b015461196d9085613138565b93505050808061197c906131e1565b9150506118e6565b5095945050505050565b600260015414156119e15760405162461bcd60e51b815260206004820152601f60248201527f5265656e7472616e637947756172643a207265656e7472616e742063616c6c0060448201526064016109dc565b6002600155816001600160a01b03811615801590611a0c57506002546001600160a01b038281169116145b80611a2457506003546001600160a01b038281169116145b80611a3c57506004546001600160a01b038281169116145b611a585760405162461bcd60e51b81526004016109dc90613082565b600454600160a81b900460ff1615611aa35760405162461bcd60e51b815260206004820152600e60248201526d11195c1bdcda5d081c185d5cd95960921b60448201526064016109dc565b600454600160a01b900460ff16611afc5760405162461bcd60e51b815260206004820152601b60248201527f5374616b696e67206973206e6f74206c61756e6368656420796574000000000060448201526064016109dc565b6001600160a01b038316600090815260196020908152604080832054338452601c90925290912060ff9091169060028281811115611b4a57634e487b7160e01b600052602160045260246000fd5b1415611c27576003810154611bb85760405162461bcd60e51b815260206004820152602e60248201527f72657175697265206174206c656173742031204e46542066726f6d20636f6c6c60448201526d1958dd1a5bdb8c481cdd185ad95960921b60648201526084016109dc565b6003810154611bc8906002613170565b84516005830154611bd99190613138565b1115611c275760405162461bcd60e51b815260206004820152601f60248201527f4d6178696d756d206e756d206f6620626f6f737465727320726561636865640060448201526064016109dc565b805460005b855181101561211057336001600160a01b0316876001600160a01b0316636352211e888481518110611c6e57634e487b7160e01b600052603260045260246000fd5b60200260200101516040518263ffffffff1660e01b8152600401611c9491815260200190565b60206040518083038186803b158015611cac57600080fd5b505afa158015611cc0573d6000803e3d6000fd5b505050506040513d601f19601f82011682018060405250810190611ce49190612cc0565b6001600160a01b031614611d2a5760405162461bcd60e51b815260206004820152600d60248201526c2737ba103a34329037bbb732b960991b60448201526064016109dc565b6001600160a01b0387166342842e0e3330898581518110611d5b57634e487b7160e01b600052603260045260246000fd5b60209081029190910101516040516001600160e01b031960e086901b1681526001600160a01b0393841660048201529290911660248301526044820152606401600060405180830381600087803b158015611db557600080fd5b505af1158015611dc9573d6000803e3d6000fd5b50505050611dd43390565b6001600160a01b0388166000908152601d602052604081208851909190899085908110611e1157634e487b7160e01b600052603260045260246000fd5b6020026020010151815260200190815260200160002060006101000a8154816001600160a01b0302191690836001600160a01b031602179055506000611e7e88888481518110611e7157634e487b7160e01b600052603260045260246000fd5b6020026020010151610649565b60ff1690506000856002811115611ea557634e487b7160e01b600052602160045260246000fd5b1415611f8a5783600301878381518110611ecf57634e487b7160e01b600052603260045260246000fd5b602090810291909101810151825460018101845560009384529183209091015560058260068110611f1057634e487b7160e01b600052603260045260246000fd5b0154905080601a60008b6001600160a01b03166001600160a01b0316815260200190815260200160002060008a8681518110611f5c57634e487b7160e01b600052603260045260246000fd5b60200260200101518152602001908152602001600020819055508084611f829190613138565b9350506120fd565b6001856002811115611fac57634e487b7160e01b600052602160045260246000fd5b14156120175783600401878381518110611fd657634e487b7160e01b600052603260045260246000fd5b6020908102919091018101518254600181018455600093845291832090910155600b8260068110611f1057634e487b7160e01b600052603260045260246000fd5b600285600281111561203957634e487b7160e01b600052602160045260246000fd5b14156120fd578360050187838151811061206357634e487b7160e01b600052603260045260246000fd5b60209081029190910181015182546001810184556000938452919092200155601181600481106120a357634e487b7160e01b600052603260045260246000fd5b01546001600160a01b0389166000908152601a6020526040812089519091908a90869081106120e257634e487b7160e01b600052603260045260246000fd5b60200260200101518152602001908152602001600020819055505b5080612108816131e1565b915050611c2c565b5061211a33612aa4565b600083600281111561213c57634e487b7160e01b600052602160045260246000fd5b14806121675750600283600281111561216557634e487b7160e01b600052602160045260246000fd5b145b156121f75760006121cf836003018054905084600501805480602002602001604051908101604052809291908181526020018280548015611632576020028201919060005260206000209081548152602001906001019080831161161e5750505050506118bd565b9050808360060154836121e2919061318f565b6121ec9190613138565b600684019190915590505b8082558451604080516001600160a01b0389168152602081019290925233917f5548c837ab068cf56a2c2479df0882a4922fd203edb7517321831d95078c5f6291016116b0565b60118160048110610d5a57600080fd5b60606000825167ffffffffffffffff81111561227a57634e487b7160e01b600052604160045260246000fd5b6040519080825280602002602001820160405280156122a3578160200160208202803683370190505b50905060005b83518110156117b9576122e6858583815181106122d657634e487b7160e01b600052603260045260246000fd5b602002602001015160ff16610649565b82828151811061230657634e487b7160e01b600052603260045260246000fd5b60ff9092166020928302919091019091015280612322816131e1565b9150506122a9565b6000546001600160a01b031633146123545760405162461bcd60e51b81526004016109dc9061304d565b6032815111156123995760405162461bcd60e51b815260206004820152601060248201526f06a6040d2e640dac2f040e0cae440e8f60831b60448201526064016109dc565b6123a36001610c96565b60005b81518110156125f9576001600160a01b0383166000908152601d60205260408120835182908590859081106123eb57634e487b7160e01b600052603260045260246000fd5b6020908102919091018101518252810191909152604001600020546001600160a01b0316905080158015906124d55750306001600160a01b0316846001600160a01b0316636352211e85858151811061245457634e487b7160e01b600052603260045260246000fd5b60200260200101516040518263ffffffff1660e01b815260040161247a91815260200190565b60206040518083038186803b15801561249257600080fd5b505afa1580156124a6573d6000803e3d6000fd5b505050506040513d601f19601f820116820180604052508101906124ca9190612cc0565b6001600160a01b0316145b156125e657836001600160a01b03166323b872dd308386868151811061250b57634e487b7160e01b600052603260045260246000fd5b60209081029190910101516040516001600160e01b031960e086901b1681526001600160a01b0393841660048201529290911660248301526044820152606401600060405180830381600087803b15801561256557600080fd5b505af1158015612579573d6000803e3d6000fd5b5050505082828151811061259d57634e487b7160e01b600052603260045260246000fd5b6020026020010151846001600160a01b0316826001600160a01b03167ffefe036cac4ee3a4aca074a81cbcc4376e1484693289078dbec149c890101d5b60405160405180910390a45b50806125f1816131e1565b9150506123a6565b505050565b60058160068110610d5a57600080fd5b6000546001600160a01b031633146126385760405162461bcd60e51b81526004016109dc9061304d565b826001600160a01b0381161580159061265e57506002546001600160a01b038281169116145b8061267657506003546001600160a01b038281169116145b8061268e57506004546001600160a01b038281169116145b6126aa5760405162461bcd60e51b81526004016109dc90613082565b6001600160a01b03841660009081526019602052604081205460ff16908160028111156126e757634e487b7160e01b600052602160045260246000fd5b141561274c5760008460ff16118015612704575060058460ff1611155b6127205760405162461bcd60e51b81526004016109dc906130ac565b8260058560ff166006811061274557634e487b7160e01b600052603260045260246000fd5b0155610c8e565b600181600281111561276e57634e487b7160e01b600052602160045260246000fd5b14156127cc5760008460ff1611801561278b575060058460ff1611155b6127a75760405162461bcd60e51b81526004016109dc906130ac565b82600b8560ff166006811061274557634e487b7160e01b600052603260045260246000fd5b60028160028111156127ee57634e487b7160e01b600052602160045260246000fd5b1415610c8e5760008460ff1611801561280b575060038460ff1611155b6128275760405162461bcd60e51b81526004016109dc906130ac565b8260118560ff166004811061284c57634e487b7160e01b600052603260045260246000fd5b01555050505050565b6000546001600160a01b0316331461287f5760405162461bcd60e51b81526004016109dc9061304d565b6001600160a01b0381166128e45760405162461bcd60e51b815260206004820152602660248201527f4f776e61626c653a206e6577206f776e657220697320746865207a65726f206160448201526564647265737360d01b60648201526084016109dc565b6128ed816128f0565b50565b600080546001600160a01b038381166001600160a01b0319831681178455604051919092169283917f8be0079c531659141344cd1fd0a4f28419497f9722a3daafe3b4186f6b6457e09190a35050565b606060008060018551612953919061318f565b855190915060005b818110156129b6578587828151811061298457634e487b7160e01b600052603260045260246000fd5b602002602001015114156129a45761299d816001613138565b93506129b6565b806129ae816131e1565b91505061295b565b5082612a045760405162461bcd60e51b815260206004820152601b60248201527f6d73672e73656e646572206973206e6f7420746865206f776e6572000000000060448201526064016109dc565b612a0f60018461318f565b9250818314612a9a57858281518110612a3857634e487b7160e01b600052603260045260246000fd5b6020026020010151868481518110612a6057634e487b7160e01b600052603260045260246000fd5b60200260200101818152505084868381518110612a8d57634e487b7160e01b600052603260045260246000fd5b6020026020010181815250505b5093949350505050565b612aad81610cde565b6001600160a01b0382166000908152601c602052604081206001018054909190612ad8908490613138565b90915550506001600160a01b03166000908152601c6020526040902042600290910155565b828054612b09906131a6565b90600052602060002090601f016020900481019282612b2b5760008555612b71565b82601f10612b445782800160ff19823516178555612b71565b82800160010185558215612b71579182015b82811115612b71578235825591602001919060010190612b56565b50612b7d929150612bbc565b5090565b828054828255906000526020600020908101928215612b71579160200282015b82811115612b71578251825591602001919060010190612ba1565b5b80821115612b7d5760008155600101612bbd565b600082601f830112612be1578081fd5b81356020612bf6612bf183613114565b6130e3565b80838252828201915082860187848660051b8901011115612c15578586fd5b855b85811015612c3357813584529284019290840190600101612c17565b5090979650505050505050565b60008083601f840112612c51578182fd5b50813567ffffffffffffffff811115612c68578182fd5b602083019150836020828501011115612c8057600080fd5b9250929050565b803560ff81168114612c9857600080fd5b919050565b600060208284031215612cae578081fd5b8135612cb981613228565b9392505050565b600060208284031215612cd1578081fd5b8151612cb981613228565b60008060408385031215612cee578081fd5b8235612cf981613228565b91506020830135612d0981613228565b809150509250929050565b600080600080600060808688031215612d2b578081fd5b8535612d3681613228565b94506020860135612d4681613228565b935060408601359250606086013567ffffffffffffffff811115612d68578182fd5b612d7488828901612c40565b969995985093965092949392505050565b60008060408385031215612d97578182fd5b8235612da281613228565b9150602083013567ffffffffffffffff811115612dbd578182fd5b612dc985828601612bd1565b9150509250929050565b60008060408385031215612de5578182fd5b8235612df081613228565b915060208381013567ffffffffffffffff811115612e0c578283fd5b8401601f81018613612e1c578283fd5b8035612e2a612bf182613114565b80828252848201915084840189868560051b8701011115612e49578687fd5b8694505b83851015612e7257612e5e81612c87565b835260019490940193918501918501612e4d565b5080955050505050509250929050565b600080600060408486031215612e96578283fd5b8335612ea181613228565b9250602084013567ffffffffffffffff811115612ebc578283fd5b612ec886828701612c40565b9497909650939450505050565b60008060408385031215612ee7578182fd5b8235612ef281613228565b946020939093013593505050565b600080600060608486031215612f14578283fd5b8335612f1f81613228565b9250612f2d60208501612c87565b9150604084013590509250925092565b600060208284031215612f4e578081fd5b81358015158114612cb9578182fd5b600060208284031215612f6e578081fd5b5035919050565b60008060408385031215612f87578182fd5b82359150602083013567ffffffffffffffff811115612dbd578182fd5b6020808252825182820181905260009190848201906040850190845b81811015612fdc57835183529284019291840191600101612fc0565b50909695505050505050565b6020808252825182820181905260009190848201906040850190845b81811015612fdc57835160ff1683529284019291840191600101613004565b60208082526010908201526f098cadccee8d040dcdee840dac2e8c6d60831b604082015260600190565b6020808252818101527f4f776e61626c653a2063616c6c6572206973206e6f7420746865206f776e6572604082015260600190565b60208082526010908201526f155b9adb9bdddb8818dbdb9d1c9858dd60821b604082015260600190565b60208082526017908201527f496e76616c69642063617465676f7279206e756d626572000000000000000000604082015260600190565b604051601f8201601f1916810167ffffffffffffffff8111828210171561310c5761310c613212565b604052919050565b600067ffffffffffffffff82111561312e5761312e613212565b5060051b60200190565b6000821982111561314b5761314b6131fc565b500190565b60008261316b57634e487b7160e01b81526012600452602481fd5b500490565b600081600019048311821515161561318a5761318a6131fc565b500290565b6000828210156131a1576131a16131fc565b500390565b600181811c908216806131ba57607f821691505b602082108114156131db57634e487b7160e01b600052602260045260246000fd5b50919050565b60006000198214156131f5576131f56131fc565b5060010190565b634e487b7160e01b600052601160045260246000fd5b634e487b7160e01b600052604160045260246000fd5b6001600160a01b03811681146128ed57600080fdfea26469706673582212208c912d0c8bfabc107532ebd3d1e48346242f0438e775a68b345835a050e5ff8964736f6c63430008040033",
  "linkReferences": {},
  "deployedLinkReferences": {}
}