{
  "_format": "hh-sol-artifact-1",
  "contractName": "Token",
  "sourceName": "contracts/Token.sol",
  "abi": [
    {
      "inputs": [
        {
          "internalType": "address",
          "name": "stakingContract_",
          "type": "address"
        },
        {
          "internalType": "string",
          "name": "tokenName",
          "type": "string"
        },
        {
          "internalType": "string",
          "name": "tokenSymbol",
          "type": "string"
        }
      ],
      "stateMutability": "nonpayable",
      "type": "constructor"
    },
    {
      "anonymous": false,
      "inputs": [
        {
          "indexed": true,
          "internalType": "address",
          "name": "owner",
          "type": "address"
        },
        {
          "indexed": true,
          "internalType": "address",
          "name": "spender",
          "type": "address"
        },
        {
          "indexed": false,
          "internalType": "uint256",
          "name": "value",
          "type": "uint256"
        }
      ],
      "name": "Approval",
      "type": "event"
    },
    {
      "anonymous": false,
      "inputs": [
        {
          "indexed": true,
          "internalType": "address",
          "name": "caller",
          "type": "address"
        },
        {
          "indexed": true,
          "internalType": "address",
          "name": "userAddress",
          "type": "address"
        },
        {
          "indexed": false,
          "internalType": "uint256",
          "name": "amount",
          "type": "uint256"
        }
      ],
      "name": "ClaimTax",
      "type": "event"
    },
    {
      "anonymous": false,
      "inputs": [
        {
          "indexed": true,
          "internalType": "address",
          "name": "userAddress",
          "type": "address"
        },
        {
          "indexed": false,
          "internalType": "uint256",
          "name": "amount",
          "type": "uint256"
        }
      ],
      "name": "Deposit",
      "type": "event"
    },
    {
      "anonymous": false,
      "inputs": [
        {
          "indexed": true,
          "internalType": "address",
          "name": "caller",
          "type": "address"
        },
        {
          "indexed": true,
          "internalType": "address",
          "name": "userAddress",
          "type": "address"
        },
        {
          "indexed": false,
          "internalType": "uint256",
          "name": "amount",
          "type": "uint256"
        }
      ],
      "name": "DepositFor",
      "type": "event"
    },
    {
      "anonymous": false,
      "inputs": [
        {
          "indexed": true,
          "internalType": "address",
          "name": "from",
          "type": "address"
        },
        {
          "indexed": true,
          "internalType": "address",
          "name": "to",
          "type": "address"
        },
        {
          "indexed": false,
          "internalType": "uint256",
          "name": "amount",
          "type": "uint256"
        }
      ],
      "name": "InternalTransfer",
      "type": "event"
    },
    {
      "anonymous": false,
      "inputs": [
        {
          "indexed": true,
          "internalType": "address",
          "name": "previousOwner",
          "type": "address"
        },
        {
          "indexed": true,
          "internalType": "address",
          "name": "newOwner",
          "type": "address"
        }
      ],
      "name": "OwnershipTransferred",
      "type": "event"
    },
    {
      "anonymous": false,
      "inputs": [
        {
          "indexed": true,
          "internalType": "address",
          "name": "caller",
          "type": "address"
        },
        {
          "indexed": true,
          "internalType": "address",
          "name": "userAddress",
          "type": "address"
        },
        {
          "indexed": false,
          "internalType": "uint256",
          "name": "amount",
          "type": "uint256"
        },
        {
          "indexed": false,
          "internalType": "uint256",
          "name": "tax",
          "type": "uint256"
        }
      ],
      "name": "Spend",
      "type": "event"
    },
    {
      "anonymous": false,
      "inputs": [
        {
          "indexed": true,
          "internalType": "address",
          "name": "from",
          "type": "address"
        },
        {
          "indexed": true,
          "internalType": "address",
          "name": "to",
          "type": "address"
        },
        {
          "indexed": false,
          "internalType": "uint256",
          "name": "value",
          "type": "uint256"
        }
      ],
      "name": "Transfer",
      "type": "event"
    },
    {
      "anonymous": false,
      "inputs": [
        {
          "indexed": true,
          "internalType": "address",
          "name": "userAddress",
          "type": "address"
        },
        {
          "indexed": false,
          "internalType": "uint256",
          "name": "amount",
          "type": "uint256"
        },
        {
          "indexed": false,
          "internalType": "uint256",
          "name": "tax",
          "type": "uint256"
        }
      ],
      "name": "Withdraw",
      "type": "event"
    },
    {
      "inputs": [],
      "name": "MAX_SUPPLY",
      "outputs": [
        {
          "internalType": "uint256",
          "name": "",
          "type": "uint256"
        }
      ],
      "stateMutability": "view",
      "type": "function"
    },
    {
      "inputs": [],
      "name": "MAX_TAX_PERCENT",
      "outputs": [
        {
          "internalType": "uint256",
          "name": "",
          "type": "uint256"
        }
      ],
      "stateMutability": "view",
      "type": "function"
    },
    {
      "inputs": [],
      "name": "activeTaxCollectedAmount",
      "outputs": [
        {
          "internalType": "uint256",
          "name": "",
          "type": "uint256"
        }
      ],
      "stateMutability": "view",
      "type": "function"
    },
    {
      "inputs": [
        {
          "internalType": "address",
          "name": "owner",
          "type": "address"
        },
        {
          "internalType": "address",
          "name": "spender",
          "type": "address"
        }
      ],
      "name": "allowance",
      "outputs": [
        {
          "internalType": "uint256",
          "name": "",
          "type": "uint256"
        }
      ],
      "stateMutability": "view",
      "type": "function"
    },
    {
      "inputs": [
        {
          "internalType": "address",
          "name": "spender",
          "type": "address"
        },
        {
          "internalType": "uint256",
          "name": "amount",
          "type": "uint256"
        }
      ],
      "name": "approve",
      "outputs": [
        {
          "internalType": "bool",
          "name": "",
          "type": "bool"
        }
      ],
      "stateMutability": "nonpayable",
      "type": "function"
    },
    {
      "inputs": [
        {
          "internalType": "address",
          "name": "addressToAuth",
          "type": "address"
        }
      ],
      "name": "authorise",
      "outputs": [],
      "stateMutability": "nonpayable",
      "type": "function"
    },
    {
      "inputs": [
        {
          "internalType": "uint256",
          "name": "",
          "type": "uint256"
        }
      ],
      "name": "authorisedLog",
      "outputs": [
        {
          "internalType": "address",
          "name": "",
          "type": "address"
        }
      ],
      "stateMutability": "view",
      "type": "function"
    },
    {
      "inputs": [
        {
          "internalType": "address",
          "name": "account",
          "type": "address"
        }
      ],
      "name": "balanceOf",
      "outputs": [
        {
          "internalType": "uint256",
          "name": "",
          "type": "uint256"
        }
      ],
      "stateMutability": "view",
      "type": "function"
    },
    {
      "inputs": [
        {
          "internalType": "uint256",
          "name": "amount",
          "type": "uint256"
        }
      ],
      "name": "burn",
      "outputs": [],
      "stateMutability": "nonpayable",
      "type": "function"
    },
    {
      "inputs": [
        {
          "internalType": "address",
          "name": "stakingContract_",
          "type": "address"
        }
      ],
      "name": "changeStakingContract",
      "outputs": [],
      "stateMutability": "nonpayable",
      "type": "function"
    },
    {
      "inputs": [
        {
          "internalType": "address",
          "name": "user",
          "type": "address"
        },
        {
          "internalType": "uint256",
          "name": "amount",
          "type": "uint256"
        }
      ],
      "name": "claimTax",
      "outputs": [],
      "stateMutability": "nonpayable",
      "type": "function"
    },
    {
      "inputs": [],
      "name": "decimals",
      "outputs": [
        {
          "internalType": "uint8",
          "name": "",
          "type": "uint8"
        }
      ],
      "stateMutability": "view",
      "type": "function"
    },
    {
      "inputs": [
        {
          "internalType": "address",
          "name": "spender",
          "type": "address"
        },
        {
          "internalType": "uint256",
          "name": "subtractedValue",
          "type": "uint256"
        }
      ],
      "name": "decreaseAllowance",
      "outputs": [
        {
          "internalType": "bool",
          "name": "",
          "type": "bool"
        }
      ],
      "stateMutability": "nonpayable",
      "type": "function"
    },
    {
      "inputs": [
        {
          "internalType": "address",
          "name": "user",
          "type": "address"
        },
        {
          "internalType": "uint256",
          "name": "amount",
          "type": "uint256"
        }
      ],
      "name": "depositInGameBalance",
      "outputs": [],
      "stateMutability": "nonpayable",
      "type": "function"
    },
    {
      "inputs": [
        {
          "internalType": "uint256",
          "name": "amount",
          "type": "uint256"
        }
      ],
      "name": "depositToken",
      "outputs": [],
      "stateMutability": "nonpayable",
      "type": "function"
    },
    {
      "inputs": [
        {
          "internalType": "address",
          "name": "",
          "type": "address"
        }
      ],
      "name": "depositedAmount",
      "outputs": [
        {
          "internalType": "uint256",
          "name": "",
          "type": "uint256"
        }
      ],
      "stateMutability": "view",
      "type": "function"
    },
    {
      "inputs": [
        {
          "internalType": "address[]",
          "name": "user",
          "type": "address[]"
        },
        {
          "internalType": "uint256[]",
          "name": "amount",
          "type": "uint256[]"
        }
      ],
      "name": "distributeInGameBalance",
      "outputs": [],
      "stateMutability": "nonpayable",
      "type": "function"
    },
    {
      "inputs": [
        {
          "internalType": "address",
          "name": "user",
          "type": "address"
        }
      ],
      "name": "getUserBalance",
      "outputs": [
        {
          "internalType": "uint256",
          "name": "",
          "type": "uint256"
        }
      ],
      "stateMutability": "view",
      "type": "function"
    },
    {
      "inputs": [
        {
          "internalType": "address",
          "name": "spender",
          "type": "address"
        },
        {
          "internalType": "uint256",
          "name": "addedValue",
          "type": "uint256"
        }
      ],
      "name": "increaseAllowance",
      "outputs": [
        {
          "internalType": "bool",
          "name": "",
          "type": "bool"
        }
      ],
      "stateMutability": "nonpayable",
      "type": "function"
    },
    {
      "inputs": [],
      "name": "isDepositPaused",
      "outputs": [
        {
          "internalType": "bool",
          "name": "",
          "type": "bool"
        }
      ],
      "stateMutability": "view",
      "type": "function"
    },
    {
      "inputs": [],
      "name": "isPaused",
      "outputs": [
        {
          "internalType": "bool",
          "name": "",
          "type": "bool"
        }
      ],
      "stateMutability": "view",
      "type": "function"
    },
    {
      "inputs": [],
      "name": "isTransferPaused",
      "outputs": [
        {
          "internalType": "bool",
          "name": "",
          "type": "bool"
        }
      ],
      "stateMutability": "view",
      "type": "function"
    },
    {
      "inputs": [],
      "name": "isWithdrawPaused",
      "outputs": [
        {
          "internalType": "bool",
          "name": "",
          "type": "bool"
        }
      ],
      "stateMutability": "view",
      "type": "function"
    },
    {
      "inputs": [
        {
          "internalType": "address",
          "name": "user",
          "type": "address"
        },
        {
          "internalType": "uint256",
          "name": "amount",
          "type": "uint256"
        }
      ],
      "name": "mint",
      "outputs": [],
      "stateMutability": "nonpayable",
      "type": "function"
    },
    {
      "inputs": [],
      "name": "name",
      "outputs": [
        {
          "internalType": "string",
          "name": "",
          "type": "string"
        }
      ],
      "stateMutability": "view",
      "type": "function"
    },
    {
      "inputs": [],
      "name": "owner",
      "outputs": [
        {
          "internalType": "address",
          "name": "",
          "type": "address"
        }
      ],
      "stateMutability": "view",
      "type": "function"
    },
    {
      "inputs": [
        {
          "internalType": "bool",
          "name": "_pause",
          "type": "bool"
        }
      ],
      "name": "pauseDeposits",
      "outputs": [],
      "stateMutability": "nonpayable",
      "type": "function"
    },
    {
      "inputs": [
        {
          "internalType": "bool",
          "name": "_pause",
          "type": "bool"
        }
      ],
      "name": "pauseGameToken",
      "outputs": [],
      "stateMutability": "nonpayable",
      "type": "function"
    },
    {
      "inputs": [
        {
          "internalType": "bool",
          "name": "_pause",
          "type": "bool"
        }
      ],
      "name": "pauseTransfers",
      "outputs": [],
      "stateMutability": "nonpayable",
      "type": "function"
    },
    {
      "inputs": [
        {
          "internalType": "bool",
          "name": "_pause",
          "type": "bool"
        }
      ],
      "name": "pauseWithdraw",
      "outputs": [],
      "stateMutability": "nonpayable",
      "type": "function"
    },
    {
      "inputs": [],
      "name": "renounceOwnership",
      "outputs": [],
      "stateMutability": "nonpayable",
      "type": "function"
    },
    {
      "inputs": [],
      "name": "rescue",
      "outputs": [],
      "stateMutability": "nonpayable",
      "type": "function"
    },
    {
      "inputs": [
        {
          "internalType": "address",
          "name": "user",
          "type": "address"
        },
        {
          "internalType": "uint256",
          "name": "amount",
          "type": "uint256"
        }
      ],
      "name": "spendInGameBalance",
      "outputs": [],
      "stateMutability": "nonpayable",
      "type": "function"
    },
    {
      "inputs": [
        {
          "internalType": "address[]",
          "name": "user",
          "type": "address[]"
        },
        {
          "internalType": "uint256[]",
          "name": "amount",
          "type": "uint256[]"
        }
      ],
      "name": "spendInGameBalanceInBatch",
      "outputs": [],
      "stateMutability": "nonpayable",
      "type": "function"
    },
    {
      "inputs": [],
      "name": "spendTaxPercent",
      "outputs": [
        {
          "internalType": "uint256",
          "name": "",
          "type": "uint256"
        }
      ],
      "stateMutability": "view",
      "type": "function"
    },
    {
      "inputs": [
        {
          "internalType": "address",
          "name": "",
          "type": "address"
        }
      ],
      "name": "spentAmount",
      "outputs": [
        {
          "internalType": "uint256",
          "name": "",
          "type": "uint256"
        }
      ],
      "stateMutability": "view",
      "type": "function"
    },
    {
      "inputs": [],
      "name": "stakingContract",
      "outputs": [
        {
          "internalType": "contract IStaking",
          "name": "",
          "type": "address"
        }
      ],
      "stateMutability": "view",
      "type": "function"
    },
    {
      "inputs": [],
      "name": "symbol",
      "outputs": [
        {
          "internalType": "string",
          "name": "",
          "type": "string"
        }
      ],
      "stateMutability": "view",
      "type": "function"
    },
    {
      "inputs": [],
      "name": "taxClaimedAmount",
      "outputs": [
        {
          "internalType": "uint256",
          "name": "",
          "type": "uint256"
        }
      ],
      "stateMutability": "view",
      "type": "function"
    },
    {
      "inputs": [],
      "name": "totalSupply",
      "outputs": [
        {
          "internalType": "uint256",
          "name": "",
          "type": "uint256"
        }
      ],
      "stateMutability": "view",
      "type": "function"
    },
    {
      "inputs": [
        {
          "internalType": "address",
          "name": "to",
          "type": "address"
        },
        {
          "internalType": "uint256",
          "name": "amount",
          "type": "uint256"
        }
      ],
      "name": "transfer",
      "outputs": [
        {
          "internalType": "bool",
          "name": "",
          "type": "bool"
        }
      ],
      "stateMutability": "nonpayable",
      "type": "function"
    },
    {
      "inputs": [
        {
          "internalType": "address",
          "name": "from",
          "type": "address"
        },
        {
          "internalType": "address",
          "name": "to",
          "type": "address"
        },
        {
          "internalType": "uint256",
          "name": "amount",
          "type": "uint256"
        }
      ],
      "name": "transferFrom",
      "outputs": [
        {
          "internalType": "bool",
          "name": "",
          "type": "bool"
        }
      ],
      "stateMutability": "nonpayable",
      "type": "function"
    },
    {
      "inputs": [
        {
          "internalType": "address",
          "name": "to",
          "type": "address"
        },
        {
          "internalType": "uint256",
          "name": "amount",
          "type": "uint256"
        }
      ],
      "name": "transferInGameBalance",
      "outputs": [],
      "stateMutability": "nonpayable",
      "type": "function"
    },
    {
      "inputs": [
        {
          "internalType": "address",
          "name": "newOwner",
          "type": "address"
        }
      ],
      "name": "transferOwnership",
      "outputs": [],
      "stateMutability": "nonpayable",
      "type": "function"
    },
    {
      "inputs": [
        {
          "internalType": "address",
          "name": "addressToUnAuth",
          "type": "address"
        }
      ],
      "name": "unauthorise",
      "outputs": [],
      "stateMutability": "nonpayable",
      "type": "function"
    },
    {
      "inputs": [
        {
          "internalType": "uint256",
          "name": "taxPercent",
          "type": "uint256"
        }
      ],
      "name": "updateSpendTaxPercent",
      "outputs": [],
      "stateMutability": "nonpayable",
      "type": "function"
    },
    {
      "inputs": [
        {
          "internalType": "uint256",
          "name": "taxPercent",
          "type": "uint256"
        }
      ],
      "name": "updateWithdrawTaxPercent",
      "outputs": [],
      "stateMutability": "nonpayable",
      "type": "function"
    },
    {
      "inputs": [],
      "name": "withdrawTaxPercent",
      "outputs": [
        {
          "internalType": "uint256",
          "name": "",
          "type": "uint256"
        }
      ],
      "stateMutability": "view",
      "type": "function"
    },
    {
      "inputs": [
        {
          "internalType": "uint256",
          "name": "amount",
          "type": "uint256"
        }
      ],
      "name": "withdrawToken",
      "outputs": [],
      "stateMutability": "nonpayable",
      "type": "function"
    }
  ],
  "bytecode": "0x60806040523480156200001157600080fd5b50604051620026223803806200262283398101604081905262000034916200029c565b8151829082906200004d90600390602085019062000129565b5080516200006390600490602084019062000129565b50506001600555506200007633620000d7565b5050336000908152600e602052604090208054600160ff19909116179055600d805463ff0000ff191663010000011790556019600a819055600955600780546001600160a01b0319166001600160a01b039290921691909117905562000362565b600680546001600160a01b038381166001600160a01b0319831681179093556040519116919082907f8be0079c531659141344cd1fd0a4f28419497f9722a3daafe3b4186f6b6457e090600090a35050565b828054620001379062000326565b90600052602060002090601f0160209004810192826200015b5760008555620001a6565b82601f106200017657805160ff1916838001178555620001a6565b82800160010185558215620001a6579182015b82811115620001a657825182559160200191906001019062000189565b50620001b4929150620001b8565b5090565b5b80821115620001b45760008155600101620001b9565b634e487b7160e01b600052604160045260246000fd5b600082601f830112620001f757600080fd5b81516001600160401b0380821115620002145762000214620001cf565b604051601f8301601f19908116603f011681019082821181831017156200023f576200023f620001cf565b816040528381526020925086838588010111156200025c57600080fd5b600091505b8382101562000280578582018301518183018401529082019062000261565b83821115620002925760008385830101525b9695505050505050565b600080600060608486031215620002b257600080fd5b83516001600160a01b0381168114620002ca57600080fd5b60208501519093506001600160401b0380821115620002e857600080fd5b620002f687838801620001e5565b935060408601519150808211156200030d57600080fd5b506200031c86828701620001e5565b9150509250925092565b600181811c908216806200033b57607f821691505b6020821081036200035c57634e487b7160e01b600052602260045260246000fd5b50919050565b6122b080620003726000396000f3fe608060405234801561001057600080fd5b50600436106102bb5760003560e01c806370a0823111610182578063a9059cbb116100e9578063dd62ed3e116100a2578063ee99205c1161007c578063ee99205c14610634578063f11aafe114610647578063f2fde38b1461065a578063f560d0b21461066d57600080fd5b8063dd62ed3e146105d5578063e74d3a411461060e578063ebd462cb1461062157600080fd5b8063a9059cbb1461057e578063b187bd2614610591578063b5b521bb1461059e578063b84e1c08146105a7578063c7e5ab88146105af578063c82bc61d146105c257600080fd5b80638da5cb5b1161013b5780638da5cb5b146105045780639467ec041461052957806394db4d051461053c57806395d89b411461054f578063a1a1ef4314610557578063a457c2d71461056b57600080fd5b806370a0823114610491578063715018a6146104ba578063738b62e5146104c25780638075654e146104d557806380833d78146104e857806384b4efea146104fb57600080fd5b80633466e404116102265780634a4643f7116101df5780634a4643f71461040557806350baa622146104255780636215be771461043857806366e6c8af1461044b57806367800b5f1461045e5780636d031d0a1461047157600080fd5b80633466e4041461039d57806339509351146103a657806340c10f19146103b957806342966c68146103cc578063459f6f50146103df57806347734892146103f257600080fd5b806323b872dd1161027857806323b872dd146103395780632a68f2c21461034c5780632e078ff51461035f578063313ce5671461037257806332cb6b0c1461038157806332dba96b1461038a57600080fd5b806306fdde03146102c0578063095ea7b3146102de57806318160ddd146103015780631fbe1979146103135780632041baf11461031d57806322f8388c14610326575b600080fd5b6102c861067f565b6040516102d59190611d85565b60405180910390f35b6102f16102ec366004611df6565b610711565b60405190151581526020016102d5565b6002545b6040519081526020016102d5565b61031b610729565b005b610305600c5481565b61031b610334366004611df6565b610798565b6102f1610347366004611e20565b6108cd565b61031b61035a366004611df6565b6108f1565b61031b61036d366004611e5c565b61095a565b604051601281526020016102d5565b61030560085481565b61031b610398366004611f4b565b6109ce565b610305600b5481565b6102f16103b4366004611df6565b610acf565b61031b6103c7366004611df6565b610b0e565b61031b6103da366004611e5c565b610b6e565b61031b6103ed366004611e5c565b610ba3565b61030561040036600461200b565b610c17565b61030561041336600461200b565b60106020526000908152604090205481565b61031b610433366004611e5c565b610cbf565b61031b610446366004611e5c565b610e32565b61031b61045936600461200b565b610f57565b600d546102f19062010000900460ff1681565b61030561047f36600461200b565b60116020526000908152604090205481565b61030561049f36600461200b565b6001600160a01b031660009081526020819052604090205490565b61031b610fe7565b61031b6104d036600461202d565b61101d565b61031b6104e3366004611df6565b611061565b61031b6104f636600461200b565b6111b0565b610305600a5481565b6006546001600160a01b03165b6040516001600160a01b0390911681526020016102d5565b61031b610537366004611f4b565b6111fb565b61031b61054a36600461200b565b6112f2565b6102c8611340565b600d546102f1906301000000900460ff1681565b6102f1610579366004611df6565b61134f565b6102f161058c366004611df6565b6113e1565b600d546102f19060ff1681565b61030560095481565b610305606481565b61031b6105bd36600461202d565b6113ef565b6105116105d0366004611e5c565b61142c565b6103056105e336600461204f565b6001600160a01b03918216600090815260016020908152604080832093909416825291909152205490565b61031b61061c366004611df6565b611456565b61031b61062f36600461202d565b6115a2565b600754610511906001600160a01b031681565b61031b61065536600461202d565b6115e8565b61031b61066836600461200b565b611630565b600d546102f190610100900460ff1681565b60606003805461068e90612082565b80601f01602080910402602001604051908101604052809291908181526020018280546106ba90612082565b80156107075780601f106106dc57610100808354040283529160200191610707565b820191906000526020600020905b8154815290600101906020018083116106ea57829003601f168201915b5050505050905090565b60003361071f8185856116c8565b5060019392505050565b6006546001600160a01b0316331461075c5760405162461bcd60e51b8152600401610753906120bc565b60405180910390fd5b6006546040516001600160a01b03909116904780156108fc02916000818181858888f19350505050158015610795573d6000803e3d6000fd5b50565b336000908152600e602052604090205460ff166107c75760405162461bcd60e51b8152600401610753906120f1565b6002600554036107e95760405162461bcd60e51b815260040161075390612119565b6002600555806107f883610c17565b10156108165760405162461bcd60e51b815260040161075390612150565b60006064600954836108289190612194565b61083291906121b3565b6001600160a01b03841660009081526011602052604081208054929350849290919061085f9084906121d5565b9250508190555080600c600082825461087891906121d5565b909155505060408051838152602081018390526001600160a01b0385169133917fed8cfe3600cacf009dc67354491d44da19a77f26a4aed42181ba6824ccb35d72910160405180910390a35050600160055550565b6000336108db8582856117ed565b6108e685858561187f565b506001949350505050565b336000908152600e602052604090205460ff166109205760405162461bcd60e51b8152600401610753906120f1565b6002600554036109425760405162461bcd60e51b815260040161075390612119565b60026005556109518282611a4d565b50506001600555565b6006546001600160a01b031633146109845760405162461bcd60e51b8152600401610753906120bc565b606481106109c95760405162461bcd60e51b815260206004820152601260248201527115dc9bdb99c81d985b1d59481c185cdcd95960721b6044820152606401610753565b600955565b336000908152600e602052604090205460ff166109fd5760405162461bcd60e51b8152600401610753906120f1565b600260055403610a1f5760405162461bcd60e51b815260040161075390612119565b60026005558051825114610a6b5760405162461bcd60e51b815260206004820152601360248201527215dc9bdb99c8185c9c985e5cc81c185cdcd959606a1b6044820152606401610753565b60005b8251811015610ac557610ab3838281518110610a8c57610a8c6121ed565b6020026020010151838381518110610aa657610aa66121ed565b6020026020010151611a4d565b80610abd81612203565b915050610a6e565b5050600160055550565b3360008181526001602090815260408083206001600160a01b038716845290915281205490919061071f9082908690610b099087906121d5565b6116c8565b336000908152600e602052604090205460ff16610b3d5760405162461bcd60e51b8152600401610753906120f1565b600260055403610b5f5760405162461bcd60e51b815260040161075390612119565b60026005556109518282611b15565b6006546001600160a01b03163314610b985760405162461bcd60e51b8152600401610753906120bc565b610795335b82611bed565b6006546001600160a01b03163314610bcd5760405162461bcd60e51b8152600401610753906120bc565b60648110610c125760405162461bcd60e51b815260206004820152601260248201527115dc9bdb99c81d985b1d59481c185cdcd95960721b6044820152606401610753565b600a55565b6001600160a01b038181166000818152601160209081526040808320546010909252808320546007549151630af3c58760e21b8152600481019590955292949193911690632bcf161c90602401602060405180830381865afa158015610c81573d6000803e3d6000fd5b505050506040513d601f19601f82011682018060405250810190610ca5919061221c565b610caf91906121d5565b610cb99190612235565b92915050565b600260055403610ce15760405162461bcd60e51b815260040161075390612119565b6002600555600d5460ff1615610d095760405162461bcd60e51b81526004016107539061224c565b600d5462010000900460ff1615610d545760405162461bcd60e51b815260206004820152600f60248201526e15da5d1a191c985dc814185d5cd959608a1b6044820152606401610753565b80610d5e33610c17565b1015610d7c5760405162461bcd60e51b815260040161075390612150565b60006064600a5483610d8e9190612194565b610d9891906121b3565b33600090815260116020526040812080549293508492909190610dbc9084906121d5565b9250508190555080600c6000828254610dd591906121d5565b90915550610dee905033610de98385612235565b611b15565b604080518381526020810183905233917ff279e6a1f5e320cca91135676d9cb6e44ca8a08c0b88342bcdb1144f6511b568910160405180910390a250506001600555565b600260055403610e545760405162461bcd60e51b815260040161075390612119565b6002600555600d5460ff1615610e7c5760405162461bcd60e51b81526004016107539061224c565b600d54610100900460ff1615610ec55760405162461bcd60e51b815260206004820152600e60248201526d11195c1bdcda5d0814185d5cd95960921b6044820152606401610753565b80610ecf3361049f565b1015610eed5760405162461bcd60e51b815260040161075390612150565b610ef633610b9d565b3360009081526010602052604081208054839290610f159084906121d5565b909155505060405181815233907fe1fffcc4923d04b559f4d29a8bfc6cda04eb5b0d3c460751c2402c5c5cc9109c9060200160405180910390a2506001600555565b6006546001600160a01b03163314610f815760405162461bcd60e51b8152600401610753906120bc565b6001600160a01b03166000818152600e60205260408120805460ff19166001908117909155600f805491820181559091527f8d1108e10bcb7c27dddfc02ed9d693a074039d026cf4ea4240b40f7d581ac8020180546001600160a01b0319169091179055565b6006546001600160a01b031633146110115760405162461bcd60e51b8152600401610753906120bc565b61101b6000611d33565b565b6006546001600160a01b031633146110475760405162461bcd60e51b8152600401610753906120bc565b600d80549115156101000261ff0019909216919091179055565b336000908152600e602052604090205460ff166110905760405162461bcd60e51b8152600401610753906120f1565b6002600554036110b25760405162461bcd60e51b815260040161075390612119565b6002600555600c548111156111095760405162461bcd60e51b815260206004820152601860248201527f496e73756666696369656e64207461782062616c616e636500000000000000006044820152606401610753565b80600c600082825461111b9190612235565b90915550506001600160a01b038216600090815260106020526040812080548392906111489084906121d5565b9250508190555080600b600082825461116191906121d5565b90915550506040518181526001600160a01b0383169033907f1ad2283cc65e3e122c0a874bda25abbd844e8ae88fa9512b4849ee1b58b6570d906020015b60405180910390a350506001600555565b6006546001600160a01b031633146111da5760405162461bcd60e51b8152600401610753906120bc565b6001600160a01b03166000908152600e60205260409020805460ff19169055565b336000908152600e602052604090205460ff1661122a5760405162461bcd60e51b8152600401610753906120f1565b60026005540361124c5760405162461bcd60e51b815260040161075390612119565b600260055580518251146112985760405162461bcd60e51b815260206004820152601360248201527215dc9bdb99c8185c9c985e5cc81c185cdcd959606a1b6044820152606401610753565b60005b8251811015610ac5576112e08382815181106112b9576112b96121ed565b60200260200101518383815181106112d3576112d36121ed565b6020026020010151610798565b806112ea81612203565b91505061129b565b6006546001600160a01b0316331461131c5760405162461bcd60e51b8152600401610753906120bc565b600780546001600160a01b0319166001600160a01b03831617905561079581610f57565b60606004805461068e90612082565b3360008181526001602090815260408083206001600160a01b0387168452909152812054909190838110156113d45760405162461bcd60e51b815260206004820152602560248201527f45524332303a2064656372656173656420616c6c6f77616e63652062656c6f77604482015264207a65726f60d81b6064820152608401610753565b6108e682868684036116c8565b60003361071f81858561187f565b6006546001600160a01b031633146114195760405162461bcd60e51b8152600401610753906120bc565b600d805460ff1916911515919091179055565b600f818154811061143c57600080fd5b6000918252602090912001546001600160a01b0316905081565b6002600554036114785760405162461bcd60e51b815260040161075390612119565b6002600555600d5460ff16156114a05760405162461bcd60e51b81526004016107539061224c565b600d546301000000900460ff16156114ec5760405162461bcd60e51b815260206004820152600f60248201526e151c985b9cd9995c8814185d5cd959608a1b6044820152606401610753565b806114f633610c17565b10156115145760405162461bcd60e51b815260040161075390612150565b33600090815260116020526040812080548392906115339084906121d5565b90915550506001600160a01b038216600090815260106020526040812080548392906115609084906121d5565b90915550506040518181526001600160a01b0383169033907fe2080c8fc8d86c864d8dc081fadaebf2be7191086615e786f954420f13ed122a9060200161119f565b6006546001600160a01b031633146115cc5760405162461bcd60e51b8152600401610753906120bc565b600d8054911515620100000262ff000019909216919091179055565b6006546001600160a01b031633146116125760405162461bcd60e51b8152600401610753906120bc565b600d805491151563010000000263ff00000019909216919091179055565b6006546001600160a01b0316331461165a5760405162461bcd60e51b8152600401610753906120bc565b6001600160a01b0381166116bf5760405162461bcd60e51b815260206004820152602660248201527f4f776e61626c653a206e6577206f776e657220697320746865207a65726f206160448201526564647265737360d01b6064820152608401610753565b61079581611d33565b6001600160a01b03831661172a5760405162461bcd60e51b8152602060048201526024808201527f45524332303a20617070726f76652066726f6d20746865207a65726f206164646044820152637265737360e01b6064820152608401610753565b6001600160a01b03821661178b5760405162461bcd60e51b815260206004820152602260248201527f45524332303a20617070726f766520746f20746865207a65726f206164647265604482015261737360f01b6064820152608401610753565b6001600160a01b0383811660008181526001602090815260408083209487168084529482529182902085905590518481527f8c5be1e5ebec7d5bd14f71427d1e84f3dd0314c0f7b2291e5b200ac8c7c3b92591015b60405180910390a3505050565b6001600160a01b038381166000908152600160209081526040808320938616835292905220546000198114611879578181101561186c5760405162461bcd60e51b815260206004820152601d60248201527f45524332303a20696e73756666696369656e7420616c6c6f77616e63650000006044820152606401610753565b61187984848484036116c8565b50505050565b6001600160a01b0383166118e35760405162461bcd60e51b815260206004820152602560248201527f45524332303a207472616e736665722066726f6d20746865207a65726f206164604482015264647265737360d81b6064820152608401610753565b6001600160a01b0382166119455760405162461bcd60e51b815260206004820152602360248201527f45524332303a207472616e7366657220746f20746865207a65726f206164647260448201526265737360e81b6064820152608401610753565b6001600160a01b038316600090815260208190526040902054818110156119bd5760405162461bcd60e51b815260206004820152602660248201527f45524332303a207472616e7366657220616d6f756e7420657863656564732062604482015265616c616e636560d01b6064820152608401610753565b6001600160a01b038085166000908152602081905260408082208585039055918516815290812080548492906119f49084906121d5565b92505081905550826001600160a01b0316846001600160a01b03167fddf252ad1be2c89b69c2b068fc378daa952ba7f163c4a11628f55a4df523b3ef84604051611a4091815260200190565b60405180910390a3611879565b6001600160a01b038216611aa35760405162461bcd60e51b815260206004820152601860248201527f43616e6e6f742073656e6420746f2030206164647265737300000000000000006044820152606401610753565b6001600160a01b03821660009081526010602052604081208054839290611acb9084906121d5565b90915550506040518181526001600160a01b0383169033907f6b64443f4cc3aac2df66fff76675a29dc321ce9efebffb006f528db1690179a0906020015b60405180910390a35050565b6001600160a01b038216611b6b5760405162461bcd60e51b815260206004820152601f60248201527f45524332303a206d696e7420746f20746865207a65726f2061646472657373006044820152606401610753565b8060026000828254611b7d91906121d5565b90915550506001600160a01b03821660009081526020819052604081208054839290611baa9084906121d5565b90915550506040518181526001600160a01b038316906000907fddf252ad1be2c89b69c2b068fc378daa952ba7f163c4a11628f55a4df523b3ef90602001611b09565b6001600160a01b038216611c4d5760405162461bcd60e51b815260206004820152602160248201527f45524332303a206275726e2066726f6d20746865207a65726f206164647265736044820152607360f81b6064820152608401610753565b6001600160a01b03821660009081526020819052604090205481811015611cc15760405162461bcd60e51b815260206004820152602260248201527f45524332303a206275726e20616d6f756e7420657863656564732062616c616e604482015261636560f01b6064820152608401610753565b6001600160a01b0383166000908152602081905260408120838303905560028054849290611cf0908490612235565b90915550506040518281526000906001600160a01b038516907fddf252ad1be2c89b69c2b068fc378daa952ba7f163c4a11628f55a4df523b3ef906020016117e0565b600680546001600160a01b038381166001600160a01b0319831681179093556040519116919082907f8be0079c531659141344cd1fd0a4f28419497f9722a3daafe3b4186f6b6457e090600090a35050565b600060208083528351808285015260005b81811015611db257858101830151858201604001528201611d96565b81811115611dc4576000604083870101525b50601f01601f1916929092016040019392505050565b80356001600160a01b0381168114611df157600080fd5b919050565b60008060408385031215611e0957600080fd5b611e1283611dda565b946020939093013593505050565b600080600060608486031215611e3557600080fd5b611e3e84611dda565b9250611e4c60208501611dda565b9150604084013590509250925092565b600060208284031215611e6e57600080fd5b5035919050565b634e487b7160e01b600052604160045260246000fd5b604051601f8201601f1916810167ffffffffffffffff81118282101715611eb457611eb4611e75565b604052919050565b600067ffffffffffffffff821115611ed657611ed6611e75565b5060051b60200190565b600082601f830112611ef157600080fd5b81356020611f06611f0183611ebc565b611e8b565b82815260059290921b84018101918181019086841115611f2557600080fd5b8286015b84811015611f405780358352918301918301611f29565b509695505050505050565b60008060408385031215611f5e57600080fd5b823567ffffffffffffffff80821115611f7657600080fd5b818501915085601f830112611f8a57600080fd5b81356020611f9a611f0183611ebc565b82815260059290921b84018101918181019089841115611fb957600080fd5b948201945b83861015611fde57611fcf86611dda565b82529482019490820190611fbe565b96505086013592505080821115611ff457600080fd5b5061200185828601611ee0565b9150509250929050565b60006020828403121561201d57600080fd5b61202682611dda565b9392505050565b60006020828403121561203f57600080fd5b8135801515811461202657600080fd5b6000806040838503121561206257600080fd5b61206b83611dda565b915061207960208401611dda565b90509250929050565b600181811c9082168061209657607f821691505b6020821081036120b657634e487b7160e01b600052602260045260246000fd5b50919050565b6020808252818101527f4f776e61626c653a2063616c6c6572206973206e6f7420746865206f776e6572604082015260600190565b6020808252600e908201526d139bdd08105d5d1a1bdc9a5cd95960921b604082015260600190565b6020808252601f908201527f5265656e7472616e637947756172643a207265656e7472616e742063616c6c00604082015260600190565b602080825260149082015273496e73756666696369656e742062616c616e636560601b604082015260600190565b634e487b7160e01b600052601160045260246000fd5b60008160001904831182151516156121ae576121ae61217e565b500290565b6000826121d057634e487b7160e01b600052601260045260246000fd5b500490565b600082198211156121e8576121e861217e565b500190565b634e487b7160e01b600052603260045260246000fd5b6000600182016122155761221561217e565b5060010190565b60006020828403121561222e57600080fd5b5051919050565b6000828210156122475761224761217e565b500390565b602080825260149082015273151bdad95b8819d85b59481a5cc81c185d5cd95960621b60408201526060019056fea26469706673582212204c3148422a0208daaf9c65007f69279c037dc8d81be640a9787ff418e2ad1bc164736f6c634300080d0033",
  "linkReferences": {},
  "deployedLinkReferences": {}
}