{
  "_format": "hh-sol-artifact-1",
  "contractName": "Token",
  "sourceName": "contracts/Token.sol",
  "abi": [
    {
      "inputs": [
        {
          "internalType": "address",
          "name": "_source",
          "type": "address"
        },
        {
          "internalType": "string",
          "name": "tokenName",
          "type": "string"
        },
        {
          "internalType": "string",
          "name": "tokenSymbol",
          "type": "string"
        }
      ],
      "stateMutability": "nonpayable",
      "type": "constructor"
    },
    {
      "anonymous": false,
      "inputs": [
        {
          "indexed": true,
          "internalType": "address",
          "name": "owner",
          "type": "address"
        },
        {
          "indexed": true,
          "internalType": "address",
          "name": "spender",
          "type": "address"
        },
        {
          "indexed": false,
          "internalType": "uint256",
          "name": "value",
          "type": "uint256"
        }
      ],
      "name": "Approval",
      "type": "event"
    },
    {
      "anonymous": false,
      "inputs": [
        {
          "indexed": true,
          "internalType": "address",
          "name": "caller",
          "type": "address"
        },
        {
          "indexed": true,
          "internalType": "address",
          "name": "userAddress",
          "type": "address"
        },
        {
          "indexed": false,
          "internalType": "uint256",
          "name": "amount",
          "type": "uint256"
        }
      ],
      "name": "ClaimTax",
      "type": "event"
    },
    {
      "anonymous": false,
      "inputs": [
        {
          "indexed": true,
          "internalType": "address",
          "name": "userAddress",
          "type": "address"
        },
        {
          "indexed": false,
          "internalType": "uint256",
          "name": "amount",
          "type": "uint256"
        }
      ],
      "name": "Deposit",
      "type": "event"
    },
    {
      "anonymous": false,
      "inputs": [
        {
          "indexed": true,
          "internalType": "address",
          "name": "caller",
          "type": "address"
        },
        {
          "indexed": true,
          "internalType": "address",
          "name": "userAddress",
          "type": "address"
        },
        {
          "indexed": false,
          "internalType": "uint256",
          "name": "amount",
          "type": "uint256"
        }
      ],
      "name": "DepositFor",
      "type": "event"
    },
    {
      "anonymous": false,
      "inputs": [
        {
          "indexed": true,
          "internalType": "address",
          "name": "from",
          "type": "address"
        },
        {
          "indexed": true,
          "internalType": "address",
          "name": "to",
          "type": "address"
        },
        {
          "indexed": false,
          "internalType": "uint256",
          "name": "amount",
          "type": "uint256"
        }
      ],
      "name": "InternalTransfer",
      "type": "event"
    },
    {
      "anonymous": false,
      "inputs": [
        {
          "indexed": true,
          "internalType": "address",
          "name": "previousOwner",
          "type": "address"
        },
        {
          "indexed": true,
          "internalType": "address",
          "name": "newOwner",
          "type": "address"
        }
      ],
      "name": "OwnershipTransferred",
      "type": "event"
    },
    {
      "anonymous": false,
      "inputs": [
        {
          "indexed": true,
          "internalType": "address",
          "name": "caller",
          "type": "address"
        },
        {
          "indexed": true,
          "internalType": "address",
          "name": "userAddress",
          "type": "address"
        },
        {
          "indexed": false,
          "internalType": "uint256",
          "name": "amount",
          "type": "uint256"
        },
        {
          "indexed": false,
          "internalType": "uint256",
          "name": "tax",
          "type": "uint256"
        }
      ],
      "name": "Spend",
      "type": "event"
    },
    {
      "anonymous": false,
      "inputs": [
        {
          "indexed": true,
          "internalType": "address",
          "name": "from",
          "type": "address"
        },
        {
          "indexed": true,
          "internalType": "address",
          "name": "to",
          "type": "address"
        },
        {
          "indexed": false,
          "internalType": "uint256",
          "name": "value",
          "type": "uint256"
        }
      ],
      "name": "Transfer",
      "type": "event"
    },
    {
      "anonymous": false,
      "inputs": [
        {
          "indexed": true,
          "internalType": "address",
          "name": "userAddress",
          "type": "address"
        },
        {
          "indexed": false,
          "internalType": "uint256",
          "name": "amount",
          "type": "uint256"
        },
        {
          "indexed": false,
          "internalType": "uint256",
          "name": "tax",
          "type": "uint256"
        }
      ],
      "name": "Withdraw",
      "type": "event"
    },
    {
      "inputs": [],
      "name": "MAX_SUPPLY",
      "outputs": [
        {
          "internalType": "uint256",
          "name": "",
          "type": "uint256"
        }
      ],
      "stateMutability": "view",
      "type": "function"
    },
    {
      "inputs": [],
      "name": "MAX_TAX_PERCENT",
      "outputs": [
        {
          "internalType": "uint256",
          "name": "",
          "type": "uint256"
        }
      ],
      "stateMutability": "view",
      "type": "function"
    },
    {
      "inputs": [],
      "name": "TokenSource",
      "outputs": [
        {
          "internalType": "contract ITokenSource",
          "name": "",
          "type": "address"
        }
      ],
      "stateMutability": "view",
      "type": "function"
    },
    {
      "inputs": [],
      "name": "activeTaxCollectedAmount",
      "outputs": [
        {
          "internalType": "uint256",
          "name": "",
          "type": "uint256"
        }
      ],
      "stateMutability": "view",
      "type": "function"
    },
    {
      "inputs": [
        {
          "internalType": "address",
          "name": "owner",
          "type": "address"
        },
        {
          "internalType": "address",
          "name": "spender",
          "type": "address"
        }
      ],
      "name": "allowance",
      "outputs": [
        {
          "internalType": "uint256",
          "name": "",
          "type": "uint256"
        }
      ],
      "stateMutability": "view",
      "type": "function"
    },
    {
      "inputs": [
        {
          "internalType": "address",
          "name": "spender",
          "type": "address"
        },
        {
          "internalType": "uint256",
          "name": "amount",
          "type": "uint256"
        }
      ],
      "name": "approve",
      "outputs": [
        {
          "internalType": "bool",
          "name": "",
          "type": "bool"
        }
      ],
      "stateMutability": "nonpayable",
      "type": "function"
    },
    {
      "inputs": [
        {
          "internalType": "address",
          "name": "addressToAuth",
          "type": "address"
        }
      ],
      "name": "authorise",
      "outputs": [],
      "stateMutability": "nonpayable",
      "type": "function"
    },
    {
      "inputs": [
        {
          "internalType": "uint256",
          "name": "",
          "type": "uint256"
        }
      ],
      "name": "authorisedLog",
      "outputs": [
        {
          "internalType": "address",
          "name": "",
          "type": "address"
        }
      ],
      "stateMutability": "view",
      "type": "function"
    },
    {
      "inputs": [
        {
          "internalType": "address",
          "name": "account",
          "type": "address"
        }
      ],
      "name": "balanceOf",
      "outputs": [
        {
          "internalType": "uint256",
          "name": "",
          "type": "uint256"
        }
      ],
      "stateMutability": "view",
      "type": "function"
    },
    {
      "inputs": [
        {
          "internalType": "uint256",
          "name": "amount",
          "type": "uint256"
        }
      ],
      "name": "burn",
      "outputs": [],
      "stateMutability": "nonpayable",
      "type": "function"
    },
    {
      "inputs": [
        {
          "internalType": "address",
          "name": "_source",
          "type": "address"
        }
      ],
      "name": "changeTokenSourceContract",
      "outputs": [],
      "stateMutability": "nonpayable",
      "type": "function"
    },
    {
      "inputs": [
        {
          "internalType": "address",
          "name": "user",
          "type": "address"
        },
        {
          "internalType": "uint256",
          "name": "amount",
          "type": "uint256"
        }
      ],
      "name": "claimTax",
      "outputs": [],
      "stateMutability": "nonpayable",
      "type": "function"
    },
    {
      "inputs": [],
      "name": "decimals",
      "outputs": [
        {
          "internalType": "uint8",
          "name": "",
          "type": "uint8"
        }
      ],
      "stateMutability": "view",
      "type": "function"
    },
    {
      "inputs": [
        {
          "internalType": "address",
          "name": "spender",
          "type": "address"
        },
        {
          "internalType": "uint256",
          "name": "subtractedValue",
          "type": "uint256"
        }
      ],
      "name": "decreaseAllowance",
      "outputs": [
        {
          "internalType": "bool",
          "name": "",
          "type": "bool"
        }
      ],
      "stateMutability": "nonpayable",
      "type": "function"
    },
    {
      "inputs": [
        {
          "internalType": "uint256",
          "name": "amount",
          "type": "uint256"
        }
      ],
      "name": "depositToken",
      "outputs": [],
      "stateMutability": "nonpayable",
      "type": "function"
    },
    {
      "inputs": [
        {
          "internalType": "address",
          "name": "user",
          "type": "address"
        },
        {
          "internalType": "uint256",
          "name": "amount",
          "type": "uint256"
        }
      ],
      "name": "depositTokenFor",
      "outputs": [],
      "stateMutability": "nonpayable",
      "type": "function"
    },
    {
      "inputs": [
        {
          "internalType": "address",
          "name": "",
          "type": "address"
        }
      ],
      "name": "depositedAmount",
      "outputs": [
        {
          "internalType": "uint256",
          "name": "",
          "type": "uint256"
        }
      ],
      "stateMutability": "view",
      "type": "function"
    },
    {
      "inputs": [
        {
          "internalType": "address[]",
          "name": "user",
          "type": "address[]"
        },
        {
          "internalType": "uint256[]",
          "name": "amount",
          "type": "uint256[]"
        }
      ],
      "name": "distributeToken",
      "outputs": [],
      "stateMutability": "nonpayable",
      "type": "function"
    },
    {
      "inputs": [],
      "name": "getMaxSupply",
      "outputs": [
        {
          "internalType": "uint256",
          "name": "",
          "type": "uint256"
        }
      ],
      "stateMutability": "view",
      "type": "function"
    },
    {
      "inputs": [
        {
          "internalType": "address",
          "name": "user",
          "type": "address"
        }
      ],
      "name": "getUserBalance",
      "outputs": [
        {
          "internalType": "uint256",
          "name": "",
          "type": "uint256"
        }
      ],
      "stateMutability": "view",
      "type": "function"
    },
    {
      "inputs": [
        {
          "internalType": "address",
          "name": "spender",
          "type": "address"
        },
        {
          "internalType": "uint256",
          "name": "addedValue",
          "type": "uint256"
        }
      ],
      "name": "increaseAllowance",
      "outputs": [
        {
          "internalType": "bool",
          "name": "",
          "type": "bool"
        }
      ],
      "stateMutability": "nonpayable",
      "type": "function"
    },
    {
      "inputs": [],
      "name": "isDepositPaused",
      "outputs": [
        {
          "internalType": "bool",
          "name": "",
          "type": "bool"
        }
      ],
      "stateMutability": "view",
      "type": "function"
    },
    {
      "inputs": [],
      "name": "isPaused",
      "outputs": [
        {
          "internalType": "bool",
          "name": "",
          "type": "bool"
        }
      ],
      "stateMutability": "view",
      "type": "function"
    },
    {
      "inputs": [],
      "name": "isTransferPaused",
      "outputs": [
        {
          "internalType": "bool",
          "name": "",
          "type": "bool"
        }
      ],
      "stateMutability": "view",
      "type": "function"
    },
    {
      "inputs": [],
      "name": "isWithdrawPaused",
      "outputs": [
        {
          "internalType": "bool",
          "name": "",
          "type": "bool"
        }
      ],
      "stateMutability": "view",
      "type": "function"
    },
    {
      "inputs": [
        {
          "internalType": "address",
          "name": "user",
          "type": "address"
        },
        {
          "internalType": "uint256",
          "name": "amount",
          "type": "uint256"
        }
      ],
      "name": "mintFor",
      "outputs": [],
      "stateMutability": "nonpayable",
      "type": "function"
    },
    {
      "inputs": [],
      "name": "name",
      "outputs": [
        {
          "internalType": "string",
          "name": "",
          "type": "string"
        }
      ],
      "stateMutability": "view",
      "type": "function"
    },
    {
      "inputs": [],
      "name": "owner",
      "outputs": [
        {
          "internalType": "address",
          "name": "",
          "type": "address"
        }
      ],
      "stateMutability": "view",
      "type": "function"
    },
    {
      "inputs": [
        {
          "internalType": "bool",
          "name": "_pause",
          "type": "bool"
        }
      ],
      "name": "pauseDeposits",
      "outputs": [],
      "stateMutability": "nonpayable",
      "type": "function"
    },
    {
      "inputs": [
        {
          "internalType": "bool",
          "name": "_pause",
          "type": "bool"
        }
      ],
      "name": "pauseGameToken",
      "outputs": [],
      "stateMutability": "nonpayable",
      "type": "function"
    },
    {
      "inputs": [
        {
          "internalType": "bool",
          "name": "_pause",
          "type": "bool"
        }
      ],
      "name": "pauseTransfers",
      "outputs": [],
      "stateMutability": "nonpayable",
      "type": "function"
    },
    {
      "inputs": [
        {
          "internalType": "bool",
          "name": "_pause",
          "type": "bool"
        }
      ],
      "name": "pauseWithdraw",
      "outputs": [],
      "stateMutability": "nonpayable",
      "type": "function"
    },
    {
      "inputs": [],
      "name": "renounceOwnership",
      "outputs": [],
      "stateMutability": "nonpayable",
      "type": "function"
    },
    {
      "inputs": [],
      "name": "rescue",
      "outputs": [],
      "stateMutability": "nonpayable",
      "type": "function"
    },
    {
      "inputs": [
        {
          "internalType": "uint256",
          "name": "tokenCup",
          "type": "uint256"
        }
      ],
      "name": "setTokenCap",
      "outputs": [],
      "stateMutability": "nonpayable",
      "type": "function"
    },
    {
      "inputs": [],
      "name": "spendTaxCollectionStopped",
      "outputs": [
        {
          "internalType": "bool",
          "name": "",
          "type": "bool"
        }
      ],
      "stateMutability": "view",
      "type": "function"
    },
    {
      "inputs": [],
      "name": "spendTaxPercent",
      "outputs": [
        {
          "internalType": "uint256",
          "name": "",
          "type": "uint256"
        }
      ],
      "stateMutability": "view",
      "type": "function"
    },
    {
      "inputs": [
        {
          "internalType": "address",
          "name": "user",
          "type": "address"
        },
        {
          "internalType": "uint256",
          "name": "amount",
          "type": "uint256"
        }
      ],
      "name": "spendToken",
      "outputs": [],
      "stateMutability": "nonpayable",
      "type": "function"
    },
    {
      "inputs": [
        {
          "internalType": "address",
          "name": "",
          "type": "address"
        }
      ],
      "name": "spentAmount",
      "outputs": [
        {
          "internalType": "uint256",
          "name": "",
          "type": "uint256"
        }
      ],
      "stateMutability": "view",
      "type": "function"
    },
    {
      "inputs": [
        {
          "internalType": "bool",
          "name": "_stop",
          "type": "bool"
        }
      ],
      "name": "stopTaxCollectionOnSpend",
      "outputs": [],
      "stateMutability": "nonpayable",
      "type": "function"
    },
    {
      "inputs": [
        {
          "internalType": "bool",
          "name": "_stop",
          "type": "bool"
        }
      ],
      "name": "stopTaxCollectionOnWithdraw",
      "outputs": [],
      "stateMutability": "nonpayable",
      "type": "function"
    },
    {
      "inputs": [],
      "name": "symbol",
      "outputs": [
        {
          "internalType": "string",
          "name": "",
          "type": "string"
        }
      ],
      "stateMutability": "view",
      "type": "function"
    },
    {
      "inputs": [],
      "name": "taxClaimedAmount",
      "outputs": [
        {
          "internalType": "uint256",
          "name": "",
          "type": "uint256"
        }
      ],
      "stateMutability": "view",
      "type": "function"
    },
    {
      "inputs": [],
      "name": "tokenCapSet",
      "outputs": [
        {
          "internalType": "bool",
          "name": "",
          "type": "bool"
        }
      ],
      "stateMutability": "view",
      "type": "function"
    },
    {
      "inputs": [],
      "name": "totalSupply",
      "outputs": [
        {
          "internalType": "uint256",
          "name": "",
          "type": "uint256"
        }
      ],
      "stateMutability": "view",
      "type": "function"
    },
    {
      "inputs": [
        {
          "internalType": "address",
          "name": "to",
          "type": "address"
        },
        {
          "internalType": "uint256",
          "name": "amount",
          "type": "uint256"
        }
      ],
      "name": "transfer",
      "outputs": [
        {
          "internalType": "bool",
          "name": "",
          "type": "bool"
        }
      ],
      "stateMutability": "nonpayable",
      "type": "function"
    },
    {
      "inputs": [
        {
          "internalType": "address",
          "name": "from",
          "type": "address"
        },
        {
          "internalType": "address",
          "name": "to",
          "type": "address"
        },
        {
          "internalType": "uint256",
          "name": "amount",
          "type": "uint256"
        }
      ],
      "name": "transferFrom",
      "outputs": [
        {
          "internalType": "bool",
          "name": "",
          "type": "bool"
        }
      ],
      "stateMutability": "nonpayable",
      "type": "function"
    },
    {
      "inputs": [
        {
          "internalType": "address",
          "name": "newOwner",
          "type": "address"
        }
      ],
      "name": "transferOwnership",
      "outputs": [],
      "stateMutability": "nonpayable",
      "type": "function"
    },
    {
      "inputs": [
        {
          "internalType": "address",
          "name": "to",
          "type": "address"
        },
        {
          "internalType": "uint256",
          "name": "amount",
          "type": "uint256"
        }
      ],
      "name": "transferToken",
      "outputs": [],
      "stateMutability": "nonpayable",
      "type": "function"
    },
    {
      "inputs": [
        {
          "internalType": "address",
          "name": "addressToUnAuth",
          "type": "address"
        }
      ],
      "name": "unauthorise",
      "outputs": [],
      "stateMutability": "nonpayable",
      "type": "function"
    },
    {
      "inputs": [
        {
          "internalType": "uint256",
          "name": "_taxPercent",
          "type": "uint256"
        }
      ],
      "name": "updateSpendTaxPercent",
      "outputs": [],
      "stateMutability": "nonpayable",
      "type": "function"
    },
    {
      "inputs": [
        {
          "internalType": "uint256",
          "name": "_taxPercent",
          "type": "uint256"
        }
      ],
      "name": "updateWithdrawTaxPercent",
      "outputs": [],
      "stateMutability": "nonpayable",
      "type": "function"
    },
    {
      "inputs": [],
      "name": "withdrawTaxCollectionStopped",
      "outputs": [
        {
          "internalType": "bool",
          "name": "",
          "type": "bool"
        }
      ],
      "stateMutability": "view",
      "type": "function"
    },
    {
      "inputs": [],
      "name": "withdrawTaxPercent",
      "outputs": [
        {
          "internalType": "uint256",
          "name": "",
          "type": "uint256"
        }
      ],
      "stateMutability": "view",
      "type": "function"
    },
    {
      "inputs": [
        {
          "internalType": "uint256",
          "name": "amount",
          "type": "uint256"
        }
      ],
      "name": "withdrawToken",
      "outputs": [],
      "stateMutability": "nonpayable",
      "type": "function"
    }
  ],
  "bytecode": "0x60806040523480156200001157600080fd5b506040516200290b3803806200290b833981016040819052620000349162000288565b8151829082906200004d9060039060208501906200012f565b508051620000639060049060208401906200012f565b50506001600555506200007633620000dd565b5050336000908152600e602052604090208054600160ff19909116179055600d805466ff0000ff000000191666010000010000001790556019600a819055600955600780546001600160a01b0319166001600160a01b039290921691909117905562000361565b600680546001600160a01b038381166001600160a01b0319831681179093556040519116919082907f8be0079c531659141344cd1fd0a4f28419497f9722a3daafe3b4186f6b6457e090600090a35050565b8280546200013d906200030e565b90600052602060002090601f016020900481019282620001615760008555620001ac565b82601f106200017c57805160ff1916838001178555620001ac565b82800160010185558215620001ac579182015b82811115620001ac5782518255916020019190600101906200018f565b50620001ba929150620001be565b5090565b5b80821115620001ba5760008155600101620001bf565b600082601f830112620001e6578081fd5b81516001600160401b03808211156200020357620002036200034b565b604051601f8301601f19908116603f011681019082821181831017156200022e576200022e6200034b565b816040528381526020925086838588010111156200024a578485fd5b8491505b838210156200026d57858201830151818301840152908201906200024e565b838211156200027e57848385830101525b9695505050505050565b6000806000606084860312156200029d578283fd5b83516001600160a01b0381168114620002b4578384fd5b60208501519093506001600160401b0380821115620002d1578384fd5b620002df87838801620001d5565b93506040860151915080821115620002f5578283fd5b506200030486828701620001d5565b9150509250925092565b600181811c908216806200032357607f821691505b602082108114156200034557634e487b7160e01b600052602260045260246000fd5b50919050565b634e487b7160e01b600052604160045260246000fd5b61259a80620003716000396000f3fe608060405234801561001057600080fd5b506004361061035d5760003560e01c806370a08231116101d3578063b187bd2611610104578063dd62ed3e116100a2578063ebd462cb1161007c578063ebd462cb14610740578063f11aafe114610753578063f2fde38b14610766578063f560d0b21461077957600080fd5b8063dd62ed3e146106e1578063e53d48721461071a578063e5b1e45e1461072d57600080fd5b8063c7e5ab88116100de578063c7e5ab8814610695578063c82bc61d146106a8578063d91eef11146106bb578063da1919b3146106ce57600080fd5b8063b187bd2614610670578063b5b521bb14610684578063b84e1c081461068d57600080fd5b806380833d781161017157806395d89b411161014b57806395d89b411461062e578063a1a1ef4314610636578063a457c2d71461064a578063a9059cbb1461065d57600080fd5b806380833d78146105ed57806384b4efea146106005780638da5cb5b1461060957600080fd5b8063738b62e5116101ad578063738b62e5146105a15780637cc1408d146105b45780637e22e39d146105c75780638075654e146105da57600080fd5b806370a082311461055e578063710cf8e614610587578063715018a61461059957600080fd5b806339509351116102ad57806351a255661161024b578063659de63b11610225578063659de63b1461050257806366e6c8af1461051557806367800b5f146105285780636d031d0a1461053e57600080fd5b806351a25566146104c957806359d7d9de146104dc5780636215be77146104ef57600080fd5b80634773489211610287578063477348921461047b5780634a4643f71461048e5780634c0f38c2146104ae57806350baa622146104b657600080fd5b8063395093511461044257806342966c6814610455578063459f6f501461046857600080fd5b80632041baf11161031a5780632e078ff5116102f45780632e078ff51461040e578063313ce5671461042157806332cb6b0c146104305780633466e4041461043957600080fd5b80632041baf1146103df57806323b872dd146103e85780632854bc7e146103fb57600080fd5b806306fdde0314610362578063095ea7b3146103805780631072cbea146103a357806318160ddd146103b85780631fbe1979146103ca578063200847dd146103d2575b600080fd5b61036a61078e565b60405161037791906122dc565b60405180910390f35b61039361038e3660046121a2565b610820565b6040519015158152602001610377565b6103b66103b13660046121a2565b610838565b005b6002545b604051908152602001610377565b6103b66109a2565b600d546103939060ff1681565b6103bc600c5481565b6103936103f6366004612167565b610a08565b6103b66104093660046122ac565b610a2c565b6103b661041c3660046122ac565b610b2e565b60405160128152602001610377565b6103bc60085481565b6103bc600b5481565b6103936104503660046121a2565b610ba2565b6103b66104633660046122ac565b610be1565b6103b66104763660046122ac565b610c16565b6103bc610489366004612114565b610c8a565b6103bc61049c366004612114565b60106020526000908152604090205481565b6103bc610d41565b6103b66104c43660046122ac565b610d95565b6103b66104d736600461228c565b610f2b565b6103b66104ea36600461228c565b610f6f565b6103b66104fd3660046122ac565b610fb5565b6103b66105103660046121cb565b6110e5565b6103b6610523366004612114565b611203565b600d546103939065010000000000900460ff1681565b6103bc61054c366004612114565b60116020526000908152604090205481565b6103bc61056c366004612114565b6001600160a01b031660009081526020819052604090205490565b600d5461039390610100900460ff1681565b6103b6611293565b6103b66105af36600461228c565b6112c9565b6103b66105c2366004612114565b611313565b600d546103939062010000900460ff1681565b6103b66105e83660046121a2565b611361565b6103b66105fb366004612114565b6114a4565b6103bc600a5481565b6006546001600160a01b03165b6040516001600160a01b039091168152602001610377565b61036a6114ef565b600d5461039390600160301b900460ff1681565b6103936106583660046121a2565b6114fe565b61039361066b3660046121a2565b611590565b600d54610393906301000000900460ff1681565b6103bc60095481565b6103bc606481565b6103b66106a336600461228c565b61159e565b6106166106b63660046122ac565b6115e6565b6103b66106c93660046121a2565b611610565b6103b66106dc3660046121a2565b61175f565b6103bc6106ef366004612135565b6001600160a01b03918216600090815260016020908152604080832093909416825291909152205490565b600754610616906001600160a01b031681565b6103b661073b3660046121a2565b611845565b6103b661074e36600461228c565b6118a6565b6103b661076136600461228c565b6118f2565b6103b6610774366004612114565b61193d565b600d5461039390640100000000900460ff1681565b60606003805461079d906124e2565b80601f01602080910402602001604051908101604052809291908181526020018280546107c9906124e2565b80156108165780601f106107eb57610100808354040283529160200191610816565b820191906000526020600020905b8154815290600101906020018083116107f957829003601f168201915b5050505050905090565b60003361082e8185856119d5565b5060019392505050565b600260055414156108645760405162461bcd60e51b815260040161085b906123e8565b60405180910390fd5b6002600555600d546301000000900460ff16156108935760405162461bcd60e51b815260040161085b90612357565b600d54600160301b900460ff16156108df5760405162461bcd60e51b815260206004820152600f60248201526e151c985b9cd9995c8814185d5cd959608a1b604482015260640161085b565b806108e933610c8a565b10156109075760405162461bcd60e51b815260040161085b90612385565b3360009081526011602052604081208054839290610926908490612474565b90915550506001600160a01b03821660009081526010602052604081208054839290610953908490612474565b90915550506040518181526001600160a01b0383169033907fe2080c8fc8d86c864d8dc081fadaebf2be7191086615e786f954420f13ed122a906020015b60405180910390a350506001600555565b6006546001600160a01b031633146109cc5760405162461bcd60e51b815260040161085b906123b3565b6006546040516001600160a01b03909116904780156108fc02916000818181858888f19350505050158015610a05573d6000803e3d6000fd5b50565b600033610a16858285611afa565b610a21858585611b8c565b506001949350505050565b6006546001600160a01b03163314610a565760405162461bcd60e51b815260040161085b906123b3565b80610a6060025490565b10610ac95760405162461bcd60e51b815260206004820152603360248201527f56616c756520697320736d616c6c6572207468616e20746865206e756d626572604482015272206f66206578697374696e6720746f6b656e7360681b606482015260840161085b565b600d5460ff1615610b1c5760405162461bcd60e51b815260206004820152601e60248201527f546f6b656e2063617020686173206265656e20616c7265616479207365740000604482015260640161085b565b600855600d805460ff19166001179055565b6006546001600160a01b03163314610b585760405162461bcd60e51b815260040161085b906123b3565b60648110610b9d5760405162461bcd60e51b815260206004820152601260248201527115dc9bdb99c81d985b1d59481c185cdcd95960721b604482015260640161085b565b600955565b3360008181526001602090815260408083206001600160a01b038716845290915281205490919061082e9082908690610bdc908790612474565b6119d5565b6006546001600160a01b03163314610c0b5760405162461bcd60e51b815260040161085b906123b3565b610a05335b82611d5a565b6006546001600160a01b03163314610c405760405162461bcd60e51b815260040161085b906123b3565b60648110610c855760405162461bcd60e51b815260206004820152601260248201527115dc9bdb99c81d985b1d59481c185cdcd95960721b604482015260640161085b565b600a55565b6001600160a01b038181166000818152601160209081526040808320546010909252808320546007549151630412966760e01b815260048101959095529294919391169063041296679060240160206040518083038186803b158015610cef57600080fd5b505afa158015610d03573d6000803e3d6000fd5b505050506040513d601f19601f82011682018060405250810190610d2791906122c4565b610d319190612474565b610d3b91906124cb565b92915050565b600d5460009060ff16610d8e5760405162461bcd60e51b815260206004820152601560248201527413585e081cdd5c1c1b1e481a5cc81b9bdd081cd95d605a1b604482015260640161085b565b5060085490565b60026005541415610db85760405162461bcd60e51b815260040161085b906123e8565b6002600555600d546301000000900460ff1615610de75760405162461bcd60e51b815260040161085b90612357565b600d5465010000000000900460ff1615610e355760405162461bcd60e51b815260206004820152600f60248201526e15da5d1a191c985dc814185d5cd959608a1b604482015260640161085b565b80610e3f33610c8a565b1015610e5d5760405162461bcd60e51b815260040161085b90612385565b600d54600090610100900460ff16610e8e576064600a5483610e7f91906124ac565b610e89919061248c565b610e91565b60005b33600090815260116020526040812080549293508492909190610eb5908490612474565b9250508190555080600c6000828254610ece9190612474565b90915550610ee7905033610ee283856124cb565b611ea0565b604080518381526020810183905233917ff279e6a1f5e320cca91135676d9cb6e44ca8a08c0b88342bcdb1144f6511b568910160405180910390a250506001600555565b6006546001600160a01b03163314610f555760405162461bcd60e51b815260040161085b906123b3565b600d80549115156101000261ff0019909216919091179055565b6006546001600160a01b03163314610f995760405162461bcd60e51b815260040161085b906123b3565b600d8054911515620100000262ff000019909216919091179055565b60026005541415610fd85760405162461bcd60e51b815260040161085b906123e8565b6002600555600d546301000000900460ff16156110075760405162461bcd60e51b815260040161085b90612357565b600d54640100000000900460ff16156110535760405162461bcd60e51b815260206004820152600e60248201526d11195c1bdcda5d0814185d5cd95960921b604482015260640161085b565b8061105d3361056c565b101561107b5760405162461bcd60e51b815260040161085b90612385565b61108433610c10565b33600090815260106020526040812080548392906110a3908490612474565b909155505060405181815233907fe1fffcc4923d04b559f4d29a8bfc6cda04eb5b0d3c460751c2402c5c5cc9109c9060200160405180910390a2506001600555565b336000908152600e602052604090205460ff166111145760405162461bcd60e51b815260040161085b9061232f565b600260055414156111375760405162461bcd60e51b815260040161085b906123e8565b600260055580518251146111835760405162461bcd60e51b815260206004820152601360248201527215dc9bdb99c8185c9c985e5cc81c185cdcd959606a1b604482015260640161085b565b60005b82518110156111f9576111e78382815181106111b257634e487b7160e01b600052603260045260246000fd5b60200260200101518383815181106111da57634e487b7160e01b600052603260045260246000fd5b6020026020010151611f80565b806111f18161251d565b915050611186565b5050600160055550565b6006546001600160a01b0316331461122d5760405162461bcd60e51b815260040161085b906123b3565b6001600160a01b03166000818152600e60205260408120805460ff19166001908117909155600f805491820181559091527f8d1108e10bcb7c27dddfc02ed9d693a074039d026cf4ea4240b40f7d581ac8020180546001600160a01b0319169091179055565b6006546001600160a01b031633146112bd5760405162461bcd60e51b815260040161085b906123b3565b6112c76000612037565b565b6006546001600160a01b031633146112f35760405162461bcd60e51b815260040161085b906123b3565b600d80549115156401000000000264ff0000000019909216919091179055565b6006546001600160a01b0316331461133d5760405162461bcd60e51b815260040161085b906123b3565b600780546001600160a01b0319166001600160a01b038316179055610a0581611203565b336000908152600e602052604090205460ff166113905760405162461bcd60e51b815260040161085b9061232f565b600260055414156113b35760405162461bcd60e51b815260040161085b906123e8565b6002600555600c5481111561140a5760405162461bcd60e51b815260206004820152601860248201527f496e73756666696369656e64207461782062616c616e63650000000000000000604482015260640161085b565b80600c600082825461141c91906124cb565b90915550506001600160a01b03821660009081526010602052604081208054839290611449908490612474565b9250508190555080600b60008282546114629190612474565b90915550506040518181526001600160a01b0383169033907f1ad2283cc65e3e122c0a874bda25abbd844e8ae88fa9512b4849ee1b58b6570d90602001610991565b6006546001600160a01b031633146114ce5760405162461bcd60e51b815260040161085b906123b3565b6001600160a01b03166000908152600e60205260409020805460ff19169055565b60606004805461079d906124e2565b3360008181526001602090815260408083206001600160a01b0387168452909152812054909190838110156115835760405162461bcd60e51b815260206004820152602560248201527f45524332303a2064656372656173656420616c6c6f77616e63652062656c6f77604482015264207a65726f60d81b606482015260840161085b565b610a2182868684036119d5565b60003361082e818585611b8c565b6006546001600160a01b031633146115c85760405162461bcd60e51b815260040161085b906123b3565b600d805491151563010000000263ff00000019909216919091179055565b600f81815481106115f657600080fd5b6000918252602090912001546001600160a01b0316905081565b336000908152600e602052604090205460ff1661163f5760405162461bcd60e51b815260040161085b9061232f565b600260055414156116625760405162461bcd60e51b815260040161085b906123e8565b60026005558061167183610c8a565b101561168f5760405162461bcd60e51b815260040161085b90612385565b600d5460009062010000900460ff166116c1576064600954836116b291906124ac565b6116bc919061248c565b6116c4565b60005b6001600160a01b0384166000908152601160205260408120805492935084929091906116f1908490612474565b9250508190555080600c600082825461170a9190612474565b909155505060408051838152602081018390526001600160a01b0385169133917fed8cfe3600cacf009dc67354491d44da19a77f26a4aed42181ba6824ccb35d72910160405180910390a35050600160055550565b336000908152600e602052604090205460ff1661178e5760405162461bcd60e51b815260040161085b9061232f565b600260055414156117b15760405162461bcd60e51b815260040161085b906123e8565b6002600555600d5460ff161561183257600854816117ce60025490565b6117d89190612474565b11156118325760405162461bcd60e51b8152602060048201526024808201527f596f752074727920746f206d696e74206d6f7265207468616e206d617820737560448201526370706c7960e01b606482015260840161085b565b61183c8282611ea0565b50506001600555565b336000908152600e602052604090205460ff166118745760405162461bcd60e51b815260040161085b9061232f565b600260055414156118975760405162461bcd60e51b815260040161085b906123e8565b600260055561183c8282611f80565b6006546001600160a01b031633146118d05760405162461bcd60e51b815260040161085b906123b3565b600d8054911515650100000000000265ff000000000019909216919091179055565b6006546001600160a01b0316331461191c5760405162461bcd60e51b815260040161085b906123b3565b600d8054911515600160301b0266ff00000000000019909216919091179055565b6006546001600160a01b031633146119675760405162461bcd60e51b815260040161085b906123b3565b6001600160a01b0381166119cc5760405162461bcd60e51b815260206004820152602660248201527f4f776e61626c653a206e6577206f776e657220697320746865207a65726f206160448201526564647265737360d01b606482015260840161085b565b610a0581612037565b6001600160a01b038316611a375760405162461bcd60e51b8152602060048201526024808201527f45524332303a20617070726f76652066726f6d20746865207a65726f206164646044820152637265737360e01b606482015260840161085b565b6001600160a01b038216611a985760405162461bcd60e51b815260206004820152602260248201527f45524332303a20617070726f766520746f20746865207a65726f206164647265604482015261737360f01b606482015260840161085b565b6001600160a01b0383811660008181526001602090815260408083209487168084529482529182902085905590518481527f8c5be1e5ebec7d5bd14f71427d1e84f3dd0314c0f7b2291e5b200ac8c7c3b92591015b60405180910390a3505050565b6001600160a01b038381166000908152600160209081526040808320938616835292905220546000198114611b865781811015611b795760405162461bcd60e51b815260206004820152601d60248201527f45524332303a20696e73756666696369656e7420616c6c6f77616e6365000000604482015260640161085b565b611b8684848484036119d5565b50505050565b6001600160a01b038316611bf05760405162461bcd60e51b815260206004820152602560248201527f45524332303a207472616e736665722066726f6d20746865207a65726f206164604482015264647265737360d81b606482015260840161085b565b6001600160a01b038216611c525760405162461bcd60e51b815260206004820152602360248201527f45524332303a207472616e7366657220746f20746865207a65726f206164647260448201526265737360e81b606482015260840161085b565b6001600160a01b03831660009081526020819052604090205481811015611cca5760405162461bcd60e51b815260206004820152602660248201527f45524332303a207472616e7366657220616d6f756e7420657863656564732062604482015265616c616e636560d01b606482015260840161085b565b6001600160a01b03808516600090815260208190526040808220858503905591851681529081208054849290611d01908490612474565b92505081905550826001600160a01b0316846001600160a01b03167fddf252ad1be2c89b69c2b068fc378daa952ba7f163c4a11628f55a4df523b3ef84604051611d4d91815260200190565b60405180910390a3611b86565b6001600160a01b038216611dba5760405162461bcd60e51b815260206004820152602160248201527f45524332303a206275726e2066726f6d20746865207a65726f206164647265736044820152607360f81b606482015260840161085b565b6001600160a01b03821660009081526020819052604090205481811015611e2e5760405162461bcd60e51b815260206004820152602260248201527f45524332303a206275726e20616d6f756e7420657863656564732062616c616e604482015261636560f01b606482015260840161085b565b6001600160a01b0383166000908152602081905260408120838303905560028054849290611e5d9084906124cb565b90915550506040518281526000906001600160a01b038516907fddf252ad1be2c89b69c2b068fc378daa952ba7f163c4a11628f55a4df523b3ef90602001611aed565b6001600160a01b038216611ef65760405162461bcd60e51b815260206004820152601f60248201527f45524332303a206d696e7420746f20746865207a65726f206164647265737300604482015260640161085b565b8060026000828254611f089190612474565b90915550506001600160a01b03821660009081526020819052604081208054839290611f35908490612474565b90915550506040518181526001600160a01b038316906000907fddf252ad1be2c89b69c2b068fc378daa952ba7f163c4a11628f55a4df523b3ef906020015b60405180910390a35050565b6001600160a01b038216611fcd5760405162461bcd60e51b81526020600482015260146024820152734465706f73697420746f2030206164647265737360601b604482015260640161085b565b6001600160a01b03821660009081526010602052604081208054839290611ff5908490612474565b90915550506040518181526001600160a01b0383169033907f6b64443f4cc3aac2df66fff76675a29dc321ce9efebffb006f528db1690179a090602001611f74565b600680546001600160a01b038381166001600160a01b0319831681179093556040519116919082907f8be0079c531659141344cd1fd0a4f28419497f9722a3daafe3b4186f6b6457e090600090a35050565b80356001600160a01b03811681146120a057600080fd5b919050565b600082601f8301126120b5578081fd5b813560206120ca6120c583612450565b61241f565b80838252828201915082860187848660051b89010111156120e9578586fd5b855b85811015612107578135845292840192908401906001016120eb565b5090979650505050505050565b600060208284031215612125578081fd5b61212e82612089565b9392505050565b60008060408385031215612147578081fd5b61215083612089565b915061215e60208401612089565b90509250929050565b60008060006060848603121561217b578081fd5b61218484612089565b925061219260208501612089565b9150604084013590509250925092565b600080604083850312156121b4578182fd5b6121bd83612089565b946020939093013593505050565b600080604083850312156121dd578182fd5b823567ffffffffffffffff808211156121f4578384fd5b818501915085601f830112612207578384fd5b813560206122176120c583612450565b8083825282820191508286018a848660051b8901011115612236578889fd5b8896505b8487101561225f5761224b81612089565b83526001969096019591830191830161223a565b5096505086013592505080821115612275578283fd5b50612282858286016120a5565b9150509250929050565b60006020828403121561229d578081fd5b8135801515811461212e578182fd5b6000602082840312156122bd578081fd5b5035919050565b6000602082840312156122d5578081fd5b5051919050565b6000602080835283518082850152825b81811015612308578581018301518582016040015282016122ec565b818111156123195783604083870101525b50601f01601f1916929092016040019392505050565b6020808252600e908201526d139bdd08105d5d1a1bdc9a5cd95960921b604082015260600190565b602080825260149082015273151bdad95b8819d85b59481a5cc81c185d5cd95960621b604082015260600190565b602080825260149082015273496e73756666696369656e742062616c616e636560601b604082015260600190565b6020808252818101527f4f776e61626c653a2063616c6c6572206973206e6f7420746865206f776e6572604082015260600190565b6020808252601f908201527f5265656e7472616e637947756172643a207265656e7472616e742063616c6c00604082015260600190565b604051601f8201601f1916810167ffffffffffffffff811182821017156124485761244861254e565b604052919050565b600067ffffffffffffffff82111561246a5761246a61254e565b5060051b60200190565b6000821982111561248757612487612538565b500190565b6000826124a757634e487b7160e01b81526012600452602481fd5b500490565b60008160001904831182151516156124c6576124c6612538565b500290565b6000828210156124dd576124dd612538565b500390565b600181811c908216806124f657607f821691505b6020821081141561251757634e487b7160e01b600052602260045260246000fd5b50919050565b600060001982141561253157612531612538565b5060010190565b634e487b7160e01b600052601160045260246000fd5b634e487b7160e01b600052604160045260246000fdfea26469706673582212204133a105d395d283ec6a6369334cc57e1e39db286642cd2746c4dfdb628780c464736f6c63430008040033",
  "linkReferences": {},
  "deployedLinkReferences": {}
}